:020000040000FA
:04000000C6EF00F057
:0800080000012A502B6E0001DB
:100010002C502D6E00012E50316E0001E950326ED1
:10002000EA50336E0001F650346EF750356EF850DA
:10003000366EF550376E00010850186E0950196E73
:100040000A501A6E0B501B6E0C501C6E0D501D6E1C
:100050000E501E6E0F501F6E1050206E1150216EEC
:100060001250226E1350236E1450246E1550256EBC
:100070001650266E1750276E6DEF0DF020546965EF
:100080006D706F3A20003A003A00205469656D7037
:100090006F3A206F66662D3E2020487A20507368A4
:1000A0003A2025002D3E506F7765723A20002500DA
:1000B000467265713A205068693A20006475747917
:1000C0003A20506F776572207374617475733A20AB
:1000D0002053616C6972203C2D00200E2A6E0C6A40
:1000E0000D6A0E6A0F6AD890143615361636173612
:1000F000D890083609360A360B360C360D360E36D1
:100100000F360F50135CD8A492EF00F00E50125C23
:10011000D8A492EF00F00D50115CD8A492EF00F03B
:100120000C50105CD8B498EF00F0D8B0A6EF00F0F7
:10013000D8800C5010540C6E0D5011540D6E0E5092
:1001400012540E6E0F5013540F6E14802A2E73EF3C
:1001500000F0120030BEC0EF00F030BCB6EF00F08F
:100160002F50EA6E2E50E96EEF5012002E50F66EB0
:100170002F50F76E30503F0BF86E0800F55012000C
:100180001200FB6E2F50FA6E2E50F96ED190C26A9B
:100190000F0EC16EC06A070EB46E6AEF02F0A7516F
:1001A000B36FA851B46FB351B86FB451B96FB76B97
:1001B000F2EF00F0AF51B7252E6E000E096EB05170
:1001C00009202F6EB1510920306EAAEC00F0086EA4
:1001D00000019C512E6E9D512F6E9E51C1EC00F07E
:1001E0000001B72BB751B85D086EB9510810D8A4FB
:1001F000DAEF00F01200D8904336443645364636E2
:10020000D8904334C66F4434C76F4534C86F463402
:10021000C96FD890C637C737C837C937C6514326C4
:10022000C7514422C8514522C95146221200010E2D
:10023000436E446A456A466ABE6BBF6B4650BB5DFF
:10024000D8A42FEF01F04550BA5DD8A42FEF01F0EC
:100250004450B95DD8A42FEF01F04350B85DC1916F
:10026000D8A4D8B0C181000EBF5DD8A43AEF01F088
:100270000A0EBE5DC193D8B440EF01F0D8A0C1838F
:10028000C185C1B1C1A3C195C1A54FEF01F0FBEC80
:1002900000F00001BE2BD8B4BF2B1EEF01F0BE5101
:1002A000BF11D8A457EF01F0010EBE6FBF6BBE07A0
:1002B000BE29D8B4BF07010E436E446A456A466A38
:1002C000BE51C26FBF51C36FC46BC56B6EEF01F0FF
:1002D000FBEC00F00001C42BD8B4C52BC451C25DA7
:1002E000086EC551C35D0810D8A468EF01F0300E48
:1002F000C06FBB51465CD8A48AEF01F0BA51455C8F
:10030000D8A48AEF01F0B951445CD8A48AEF01F077
:10031000B851435CD8B490EF01F0D8B0A0EF01F031
:10032000D880B8514354B86FB9514454B96FBA51D9
:100330004554BA6FBB514654BB6FC02B79EF01F0E7
:10034000C051086EB3512E6EB4512F6EB551C1EC31
:1003500000F00001BE51BF11D8A457EF01F0120008
:100360009C51B36F9D51B46F9E51B56FA751B86F3B
:10037000A851B96FA951BA6FAA51BB6F17EF01F01D
:10038000A76FAB6FAC6BAD6BAE6B9C51B36F9D51F8
:10039000B46F9E51B56FAB51B86FAC51B96FAD51E1
:1003A000BA6FAE51BB6F17EF01F0406E4050D8B43A
:1003B00012004004D8A4E6EF01F000010A0E086E16
:1003C000082EE0EF01F000000000120040060001DE
:1003D000070E086E082EEAEF01F000004050416E53
:1003E000426AFAEF01F000010E0E086E082EF6EFD9
:1003F00001F0422A4250415CD8A4F3EF01F0120010
:1004000098519F6F9951A06FA76BA86B17EF02F0DF
:100410000001090E086EB70E096E092E0DEF02F0ED
:10042000082E0BEF02F00000A72BD8B4A82BA75181
:100430009F5D086EA851A05D0810D8A408EF02F0D7
:10044000120098519F6F9951A06FA76BA86B3CEF5A
:1004500002F00001110E086E570E096E6F0E0A6E43
:100460000A2E30EF02F0092E2EEF02F0082E2CEFAC
:1004700002F0A72BD8B4A82BA7519F5D086EA851F6
:10048000A05D0810D8A429EF02F012009893D88438
:10049000A1A150EF02F098A151EF02F052EF02F04B
:1004A00098B1D894D8A45AEF02F0030E9811996F1E
:1004B00066EF02F099079951D8A466EF02F098917F
:1004C000A1B19881030E9811996F9883030E981526
:1004D0009F6F12009494959A8B948C9A9380938238
:1004E000938893869384939E0A0E986F996B21EC60
:1004F00002F01F0E00018D17FE0E8E1792801F0E48
:100500008D15C0098D6FFE0E8E1501098E6F086A5C
:100510008DBB08808DBD08828DBF08848EB1088692
:100520000F0E0814096EF00EC1140910C16E966BFF
:100530009639086E300E0816CF0EC1140810C16E21
:10054000F80EC0140509C06EC70EC016A80E476E7F
:10055000610E486E496A4A6AA80E4B6E610E4C6E77
:100560004D6A4E6A320E4F6E506A516A526A536A31
:100570008D91546A556A566A1E0E576E010E586E5A
:10058000596A8D938D858D97300E966F030E961157
:10059000976F96515A6E97515B6E5A505C6E5B50D6
:1005A0005D6E300E966F030E9611976F96515A6ED0
:1005B00097515B6E5A505E6E5B505F6E300E966F59
:1005C000030E9611976F96515A6E97515B6E5A5063
:1005D000606F5B50616F626B8D99386A010E396E86
:1005E00093EF03F0986F386A010E396E3804CB6EC2
:1005F0009805D8A400EF03F0FC0ECA16CA841200B6
:10060000040E985DD8A40BEF03F0FC0ECA14010988
:10061000CA6ECA841200100E985DD8A416EF03F0BB
:10062000FC0ECA140209CA6ECA841200CA941200CF
:100630009851106E9951116E9A51126E9B51136E12
:10064000086A2D0E096E310E0A6E010E0B6E6DECEE
:1006500000F014500001A76F1550A86FD890A83172
:10066000B06FA731AF6FD890B033AF33CA6AAF5114
:10067000B011B281D8B4B291100EB05DD8A443EFDE
:1006800003F0000EAF5DB293D8A4D8A0B283B285B8
:10069000B2B1B2A3B295B2A592EF03F0010EB05D74
:1006A000D8A455EF03F0000EAF5DD8B45BEF03F0B4
:1006B000D8B063EF03F0AF51386EB051396EFC0E15
:1006C000CA168FEF03F0040EB05DD8A46AEF03F0F2
:1006D000000EAF5DD8B470EF03F0D8B07EEF03F03A
:1006E000D890B031396EAF31386ED8903932383257
:1006F000FC0ECA140109CA6E8FEF03F0D890B03116
:10070000396EAF31386E030E086ED89039323832F8
:10071000082E85EF03F0FC0ECA140209CA6E3804D5
:10072000CB6ECA841200636B646B23EF04F0F00E8F
:10073000000164150C09646F6351BE6E6451BD6E97
:100740001200F00E000164176451BD6E1200030E1A
:10075000B45DD8A4AEEF03F0FF0EB35DD8B4B8EF2C
:1007600003F0D8A0B8EF03F0FF0EB36F030EB46F21
:10077000D890B431096EB331086ED890093208327E
:100780000850636F030EB315086E0838096E300EFB
:100790000916CF0E64150910646F97EF03F000017E
:1007A000986F9851D8A4D9EF03F09C6B9D6B15EF0F
:1007B00004F0640E985DD8B4E1EF03F0D8A0EAEF3E
:1007C00003F039509D6F38049C6F9C29D8B49D0765
:1007D00015EF04F09851A16FA26BD8903930A46F37
:1007E0003830A36FD890A433A333A151A303F3509F
:1007F000A56FF450A66FA151A403F350A627A251F0
:10080000A303F350A627190E106E116A126A136A19
:10081000A551086EA651096E0A6A0B6A6DEC00F0CC
:10082000145000019C6F15509D6FD8909C35A16F9E
:100830009D35A26FD890A137A237A151B36FA251B5
:10084000B46FA7EF03F0010EF2EC02F0A80E000166
:10085000986F610E996F9A6B9B6B18EC03F0320ED8
:10086000CFEC03F0A1EC03F0D59AD596F80ED51491
:100870000709D56ED59CB40ED66EB30ED76ECD9249
:10088000CD8ECF0ECD16CE6ACF6AF19CF19AF29240
:10089000F090F28E959C959E959095929594959654
:1008A0008EEF04F03F6E3FB059EF04F08C905AEF9A
:1008B00004F08C803FB260EF04F08C9261EF04F0A2
:1008C0008C823FB467EF04F08C9468EF04F08C8462
:1008D0003FB66EEF04F08C966FEF04F08C868C8E32
:1008E000000000000000000000008C9E12003D6E21
:1008F0003D380F0B3E6E52EC04F03D5052EC04F0CC
:10090000040ED5EF01F03C6E8C8C3C5077EF04F078
:100910000001AB6F8C9CAB5177EF04F03A6AF3EFB8
:1009200004F0A76F040EA75DD8B49AEF04F0D8A026
:100930009BEF04F0A76BA751D8B4000CA705D8B45F
:10094000400C020EA75DD8B4140C030EA75DD8B4FA
:10095000540C1200800E3A10A76F88EF04F0085074
:100960003B6E83EF04F09C6F91EC04F00001A16FEB
:100970009F51A1253A6EAAEF04F0010E88EC04F015
:10098000B40ED5EF01F08C9C190E0001986F996B95
:1009900000EC02F0030E52EC04F0050E0001986F1B
:1009A000996B00EC02F0030E52EC04F00A0ED5EC49
:1009B00001F0030E52EC04F0040ED5EC01F0020E2F
:1009C00052EC04F0040ED5EC01F0280E88EC04F093
:1009D0001C0E88EC04F00C0E88EC04F0060E88EC7B
:1009E00004F0BDEF04F0C3EC04F04D0E0001656FA0
:1009F000690E666F200E676F430E686F6F0E696F2A
:100A0000630E6A6F690E6B6F6E0E6C6F610E6D6FA9
:100A1000200E6E6F640E6F6F650E706F200E716F1B
:100A2000490E726F6E0E736F640E746F750E756F74
:100A3000630E766F776F200E786FBDEC04F05E0E5C
:100A400000019C6F090E9D6F000E9E6F140EA76F24
:100A5000A86B650EAF6FB06BB16BCFEC00F00A0EF8
:100A60000001986F996B21EC02F0BDEC04F0EBEF04
:100A700009F08DA944EF05F04B50476E4C50486E7D
:100A80004D50496E4E504A6E4750986F4850996F7E
:100A900049509A6F4A509B6F18EC03F04F50CFECBF
:100AA00003F097EC03F0F00EBD140C09BD6E3F0E81
:100AB000BD148009BD6E800EB7143209B76EF2887E
:100AC000F096F292F090CD801200A1EC03F08B949E
:100AD0008C9AF298F096CD901200A151106EA2510E
:100AE000116E126A136A086ACA0E096E9A0E0A6EAD
:100AF0003B0E0B6E6DEC00F014500001AB6F155007
:100B0000AC6F1650AD6F1750AE6FAB51B36FAC51A9
:100B1000B46FAD51B56FAE51B66FBC6BBD6B680EA7
:100B20009C03F350AB6FF450AC6F680E9D03F35011
:100B3000AC27010E9C03F350AC27B351106EB45197
:100B4000116EB551126EB651136EAB51086EAC51A9
:100B5000096E0A6A0B6A6DEC00F014500001BC6F5C
:100B60001550BD6FBC51086EBD51096E12008DA7A6
:100B7000E8EF05F056509883D8A49893555098857F
:100B8000D8A49895988798B398A598975450988921
:100B9000D8A49899988B98B798A9989B98ABD5EFBB
:100BA00005F08D978D9165EC05F05450D8B4DBEFCE
:100BB00005F0540612003B0E546E5550D8B4E3EFC6
:100BC00005F0550612003B0E556E5650D8A4560639
:100BD0001200F28AF294D58E5950566E5850556EC6
:100BE0005750546E120000018DA700EF06F08DA340
:100BF00005EF06F0B7EC05F000018D938D8512002E
:100C0000D59EF29A566A556A546A1200BDEC04F0F9
:100C100000019F6B000EB3EC04F000018DA1B7EF53
:100C200006F0200E656F410E666F500E676F410E25
:100C3000686F470E696F410E6A6F520E6B6F200E20
:100C40006C6F6D6F540E6E6F490E6F6F4D0E706F3F
:100C5000450E716F520E726F200E736F746F500ECF
:100C6000756F4F0E766F540E776F200E786F5E0E95
:100C70009C6F090E9D6F000E9E6F140EA76FA86BE0
:100C8000650EAF6FB06BB16BCFEC00F000019F6BE6
:100C9000010EB3EC04F000018DA7A5EF06F05E0E87
:100CA0009C6F090E9D6F000E9E6F090EA76FA86BBB
:100CB0007C0EAF6F000EB06F000E4009B16FCFEC2D
:100CC00000F05E0E00019C6F090E9D6F000E9E6F7E
:100CD0005650C0EC01F05E0E00019C6F090E9D6F36
:100CE000000E9E6F010EA76FA86B860EAF6F000EF1
:100CF000B06F000E4009B16FCFEC00F05E0E000146
:100D00009C6F090E9D6F000E9E6F5550C0EC01F058
:100D10005E0E00019C6F090E9D6F000E9E6F010E0E
:100D2000A76FA86B880EAF6F000EB06F000E400962
:100D3000B16FCFEC00F05E0E00019C6F090E9D6F4D
:100D4000000E9E6F5450C0EF01F05E0E9C6F090EB6
:100D50009D6F000E9E6F0C0EA76FA86B8A0EAF6F73
:100D6000000EB06F000E4009B16FCFEF00F0200E03
:100D7000656F410E666F430E676F540E686F490EC4
:100D8000696F560E6A6F410E6B6F520E6C6F200EBC
:100D90006D6F6E6F6F6F500E706F4F0E716F540EE0
:100DA000726F450E736F4E0E746F430E756F490E62
:100DB000766F410E776F200E786F200E796F7A6F05
:100DC0007B6F7C6F7D6F7E6F7F6F540E806F490EDF
:100DD000816F4D0E826F450E836F520E846F200E11
:100DE000856F866F876F886F896F8A6F8B6F8C6F47
:100DF0005E0E9C6F090E9D6F000E9E6F140EA76F06
:100E0000A86B650EAF6FB06BB16BCFEC00F000015B
:100E10009F6B010EB3EC04F05E0E00019C6F090E97
:100E20009D6F000E9E6F140EA76FA86B790EAF6FAB
:100E3000B06BB16BCFEF00F0450E656F6E0E666F55
:100E4000740E676F720E686F610E696F720E6A6F53
:100E5000200E6B6F650E6C6F6E0E6D6F200E6E6FD9
:100E60006D0E6F6F6F0E706F640E716F6F0E726F1D
:100E7000200E736F640E746F650E756F620E766F61
:100E8000750E776F670E786F200E796F7A6F7B6FB4
:100E90007C6F7D6F7E6F7F6F530E806F490E816F09
:100EA000200E826F836F846F856F866F876F4E0E03
:100EB000886F4F0E896F200E8A6F8B6F8C6FBDEC21
:100EC00004F000019F6B000EB3EC04F05E0E000115
:100ED0009C6F090E9D6F000E9E6F140EA76FA86B7E
:100EE000650EAF6FB06BB16BCFEC00F000019F6B84
:100EF000010EB3EC04F05E0E00019C6F090E9D6FB5
:100F0000000E9E6F140EA76FA86B790EAF6FB06BBB
:100F1000B16BCFEF00F0BDEC04F000019F6B000E51
:100F2000B3EC04F0040E0001625DD8B4BFEF08F02A
:100F3000D8B0BFEF08F0986B9F6B9851B3EC04F0FA
:100F400000019851625DD8A4BAEF07F05E0E9C6F65
:100F5000090E9D6F000E9E6F020EA76FA86B960E76
:100F6000AF6F000EB06F000E4009B16FCFEC00F014
:100F7000CCEF07F05E0E9C6F090E9D6F000E9E6F0A
:100F8000020EA76FA86B980EAF6F000EB06F000E29
:100F90004009B16FCFEC00F00001982B040E985D72
:100FA000D8A49CEF07F0020E9F6F000EB3EC04F084
:100FB0005E0E00019C6F090E9D6F000E9E6F060E67
:100FC000A76FA86BB00EAF6F000EB06F000E400998
:100FD000B16FCFEC00F05E0E00019C6F090E9D6FAB
:100FE000000E9E6F4B50A76F4C50A86F4D50A96FCD
:100FF0004E50AA6FB0EC01F05E0E00019C6F090E1E
:101000009D6F000E9E6F020EA76FA86B9A0EAF6FBA
:10101000000EB06F000E4009B16FCFEC00F0020E71
:1010200000019F6F010EB3EC04F05E0E00019C6F97
:10103000090E9D6F000E9E6F050EA76FA86BB60E72
:10104000AF6F000EB06F000E4009B16FCFEC00F033
:10105000515000019C6F52509D6F4750A16F4850F6
:10106000A26F6DEC05F00850506E5E0E00019C6F93
:10107000090E9D6F000E9E6F5050C0EC01F05E0E89
:1010800000019C6F090E9D6F000E9E6F060EA76FEC
:10109000A86B9C0EAF6F000EB06F000E4009B16FD1
:1010A000CFEC00F05E0E00019C6F090E9D6F000EEC
:1010B0009E6F5150A76F5250A86FA96BAA6BB0ECEE
:1010C00001F0020E00019F6F020EB3EC04F05E0E01
:1010D00000019C6F090E9D6F000E9E6F060EA76F9C
:1010E000A86BBC0EAF6F000EB06F000E4009B16F61
:1010F000CFEC00F05E0E00019C6F090E9D6F000E9C
:101100009E6F4F50A76FA86BA96BAA6BB0EC01F054
:101110005E0E00019C6F090E9D6F000E9E6F010E0A
:10112000A76FA86BA20EAF6F000EB06F000E400944
:10113000B16FCFEC00F0020E00019F6F030EB3EC15
:1011400004F05E0E00019C6F090E9D6F000E9E6FF5
:101150000E0EA76FA86BC20EAF6F000EB06F000E21
:101160004009B16FCFEC00F05E0E00019C6F090EDC
:101170009D6F000E9E6F8D51010BC0EF01F0BDEC15
:1011800004F000019F6B000EB3EC04F05E0E000152
:101190009C6F090E9D6F000E9E6F020EA76FA86BCD
:1011A000A40EAF6F000EB06F000E4009B16FCFEC10
:1011B00000F05E0E00019C6F090E9D6F000E9E6F89
:1011C000090EA76FA86BD00EAF6F000EB06F000EA8
:1011D0004009B16FCFEF00F0200E656F540E666FBF
:1011E000490E676F4D0E686F450E696F520E6A6F3C
:1011F000200E6B6F6C6F6D6F6E6F6F6F706F716FB6
:10120000726F736F746F756F766F776F786FBDECF9
:1012100004F000019F6B000EB3EC04F05E0E0001C1
:101220009C6F090E9D6F000E9E6F140EA76FA86B2A
:10123000650EAF6FB06BB16BCFEC00F000019F6B30
:10124000010EB3EC04F05E0E00019C6F090E9D6F61
:10125000000E9E6F5950C0EC01F03A0E086EAFECD4
:1012600004F05E0E00019C6F090E9D6F000E9E6FD4
:101270005850C0EC01F03A0E086EAFEC04F05E0E70
:1012800000019C6F090E9D6F000E9E6F5750C0EFBE
:1012900001F0200E656F666F676F410E686F630E19
:1012A000696F740E6A6F690E6B6F760E6C6F610EEC
:1012B0006D6F720E6E6F200E6F6F540E706F690E31
:1012C000716F6D0E726F650E736F720E746F3F0EDD
:1012D000756F200E766F776F786F200E796F7A6F4B
:1012E0007B6F7C6F7D6F7E6F7F6F530E806F490EBB
:1012F000816F200E826F836F846F856F866F876F1B
:101300004E0E886F4F0E896F200E8A6F8B6F8C6F19
:10131000BDEC04F000019F6B000EB3EC04F05E0E18
:1013200000019C6F090E9D6F000E9E6F140EA76F3B
:10133000A86B650EAF6FB06BB16BCFEC00F0000126
:101340009F6B010EB3EC04F05E0E00019C6F090E62
:101350009D6F000E9E6F140EA76FA86B790EAF6F76
:10136000B06BB16BCFEF00F0BDEC04F000019F6BF0
:10137000000EB3EC04F05E0E00019C6F090E9D6F31
:10138000000E9E6F070EA76FA86BA60EAF6F000E24
:10139000B06F000E4009B16FCFEC00F05E0E00019F
:1013A0009C6F090E9D6F000E9E6F4F50C0EC01F0B8
:1013B0005E0E00019C6F090E9D6F000E9E6F010E68
:1013C000A76FA86BAE0EAF6F000EB06F000E400996
:1013D000B16FCFEF00F05350D8A44CEF0AF00001EA
:1013E0008DA5F7EF09F006EC06F000018D95A191AF
:1013F00081B6A1815E50986F5F50996F46EC02F004
:101400000001966F98515E6E99515F6E020E965D67
:10141000D8A40EEF0AF0010E536E8D85A19181B80C
:10142000A1816051986F6151996F46EC02F0000103
:10143000966F9851606F9951616F020E965DD8A4B6
:1014400025EF0AF0020E536E8D85A19181B4A18122
:101450005C50986F5D50996F46EC02F00001966FFA
:1014600098515C6E99515D6E020E965DD8A469EF3D
:101470000DF08DA13FEF0AF08D9140EF0AF08D81C4
:101480008D858DA148EF0AF039EC05F069EF0DF07C
:1014900065EC05F069EF0DF05304D8A4EAEF0AF00B
:1014A00000018DA558EF0AF0ECEC08F000018D95D5
:1014B000A19181B4A1815C50986F5D50996F46EC09
:1014C00002F00001966F98515C6E99515D6E020EAC
:1014D000965DD8A471EF0AF0030E536E8D8569EF07
:1014E0000DF0A19181B6A1815E50986F5F50996F08
:1014F00046EC02F00001966F98515E6E99515F6E56
:10150000020E965DD8A4BEEF0AF0572A3B0E575C38
:10151000D8B4A6EF0AF0D8A0A6EF0AF0576A582A66
:101520003B0E585CD8B4BBEF0AF0D8A0BBEF0AF072
:10153000586A592A010E595CD8B4BBEF0AF0D8A0FA
:10154000BBEF0AF0010E596EBBEF0AF03B0E585C80
:10155000D8B4B2EF0AF0D8A0B2EF0AF0586A592A0C
:10156000BBEF0AF0010E595CD8B4BBEF0AF0D8A06B
:10157000BBEF0AF0596A8D8569EF0DF0A19181B832
:10158000A1816051986F6151996F46EC02F00001A2
:10159000966F9851606F9951616F020E965DD8A455
:1015A000E8EF0AF05750D8B4D9EF0AF05706E7EF42
:1015B0000AF03B0E576E5850D8B4E2EF0AF05806C6
:1015C000E7EF0AF03B0E586E5950D8A459068D85A6
:1015D00069EF0DF0020E535CD8A484EF0BF000010C
:1015E0008DA5F7EF0AF0B4EC09F000018D95A191FB
:1015F00081B4A1815C50986F5D50996F46EC02F008
:101600000001966F98515C6E99515D6E020E965D69
:10161000D8A40FEF0BF0536A8D8551EF0BF0A19119
:1016200081B6A1815E50986F5F50996F46EC02F0D1
:101630000001966F98515E6E99515F6E020E965D35
:10164000D8A435EF0BF04F2A640E4F5CD8B42EEFC0
:101650000BF0D8A02EEF0BF0640E4F6E8DB139EC6D
:1016600005F000018D8551EF0BF0A19181B8A181AA
:101670006051986F6151996F46EC02F00001966FCE
:101680009851606F9951616F020E965DD8A451EF29
:101690000BF04F50D8A44F068DB139EC05F0000186
:1016A0008D85A19181B4A1815C50986F5D50996F37
:1016B00046EC02F00001966F98515C6E99515D6E98
:1016C000020E965D9195D8B49185A19181B6A181C4
:1016D0005E50986F5F50996F46EC02F00001976F73
:1016E00098515E6E99515F6E97519187D8A49197EA
:1016F000918991B591A7919991A969EF0DF0040E87
:10170000536E8D8569EF0DF0030E535CD8A4C4EFC2
:101710000BF000018DA591EF0BF049EC09F00001F1
:101720008D95A19181B6A1815E50986F5F50996FA0
:1017300046EC02F00001966F98515E6E99515F6E13
:10174000020E965DD8A4AAEF0BF08D87536A8D85A3
:10175000E9EC05F00001A19181B8A1816051986F79
:101760006151996F46EC02F00001966F9851606FDD
:101770009951616F020E965DD8A469EF0DF08D97B7
:10178000536A8D8569EF0DF0040E535CD8A400EF09
:101790000CF000018DA5D1EF0BF01CEC07F000015F
:1017A0008D95A19181B8A1816051986F6151996F18
:1017B00046EC02F00001966F9851606F9951616F8D
:1017C000020E965DD8A4E7EF0BF0536A8D85A191C8
:1017D00081B6A1815E50986F5F50996F46EC02F020
:1017E0000001966F98515E6E99515F6E020E965D84
:1017F000D8A469EF0DF0050E536E8D8569EF0DF0DD
:10180000050E535CD8A469EF0DF000018DA50DEF16
:101810000CF08BEC07F000018D958D896251D8A4F6
:1018200093EF0CF0A19181B6A1815E50986F5F504B
:10183000996F46EC02F00001966F98515E6E9951D7
:101840005F6E020E965DD8A451EF0CF08D85640E8C
:101850004B26000E4C22000E4D22000E4E22000E92
:101860004A5CD8A440EF0CF0000E495CD8A440EFCD
:101870000CF0C30E485CD8A440EF0CF0500E475C4F
:10188000D8B446EF0CF0D8A04CEF0CF0500E476ED9
:10189000C30E486E496A4A6A8DA151EF0CF039ECCB
:1018A00005F00001A19181B8A1816051986F61514B
:1018B000996F46EC02F00001966F9851606F995154
:1018C000616F020E965DD8A414EF0DF08D859C0E0D
:1018D0004B26FF0E4C22FF0E4D22FF0E4E22000E15
:1018E0004A5CD8A480EF0CF0000E495CD8A480EFCD
:1018F0000CF0270E485CD8A480EF0CF0100E475C6B
:10190000D8B486EF0CF0D8B08CEF0CF0100E476E08
:10191000270E486E496A4A6A8DA114EF0DF039EC22
:1019200005F014EF0DF0020E625DD8A4DDEF0CF0AF
:10193000A19181B6A1815E50986F5F50996F46EC7E
:1019400002F00001966F98515E6E99515F6E020E23
:10195000965DD8A4BDEF0CF08D854F2A640E4F5CC8
:10196000D8B4B8EF0CF0D8A0B8EF0CF0640E4F6EFE
:101970008DA1BDEF0CF039EC05F00001A19181B80B
:10198000A1816051986F6151996F46EC02F000019E
:10199000966F9851606F9951616F020E965DD8A451
:1019A00014EF0DF08D854F50D8A44F068DA114EF84
:1019B0000DF039EC05F014EF0DF0030E625DD8A4C4
:1019C00014EF0DF0A19181B6A1815E50986F5F5028
:1019D000996F46EC02F00001966F98515E6E995136
:1019E0005F6E020E965DD8A4FBEF0CF039EC05F0AB
:1019F00000018D818D85A19181B8A1816051986F81
:101A00006151996F46EC02F00001966F9851606F3A
:101A10009951616F020E965DD8A414EF0DF08D916F
:101A200065EC05F000018D850001A19181B4A181D3
:101A30005C50986F5D50996F46EC02F00001966F14
:101A400098515C6E99515D6E020E965DD8A434EF8C
:101A50000DF0622B8D85040E625DD8B434EF0DF06D
:101A6000D8A034EF0DF0626B040E625DD8A469EF6C
:101A70000DF0A19181B6A1815E50986F5F50996F72
:101A800046EC02F00001966F98515E6E99515F6EC0
:101A9000020E965DD8A451EF0DF0536A626B8D99DA
:101AA0008D85A19181B8A1816051986F6151996F25
:101AB00046EC02F00001966F9851606F9951616F8A
:101AC000020E965DD8A469EF0DF0536A626B8D9992
:101AD0008D85F3EC05F0EBEF09F0F2A476EF0DF055
:101AE0008D83B40ED66EB30ED76EF294F2A27FEF52
:101AF0000DF0CD80CE6ACF6AF298F086F292F0A017
:101B00008FEF0DF0C80ECE02F350516EF450526EAE
:101B1000C80ECF02F3505226F096F288F09018507B
:101B2000086E1950096E1A500A6E1B500B6E1C502D
:101B30000C6E1D500D6E1E500E6E1F500F6E2050FD
:101B4000106E2150116E2250126E2350136E2450CD
:101B5000146E2550156E2650166E2750176E345091
:101B6000F66E3550F76E3650F86E3750F56E3250CF
:101B7000E96E3350EA6E31502E6E2D502C6E2B5084
:041B80002A6E1100B8
:020000040030CA
:0E000000240C391E008580000FC00FE00F4059
:00000001FF
