:020000040000FA
:04000000C6EF00F057
:0800080000012A502B6E0001DB
:100010002C502D6E00012E50316E0001E950326ED1
:10002000EA50336E0001F650346EF750356EF850DA
:10003000366EF550376E00010850186E0950196E73
:100040000A501A6E0B501B6E0C501C6E0D501D6E1C
:100050000E501E6E0F501F6E1050206E1150216EEC
:100060001250226E1350236E1450246E1550256EBC
:100070001650266E1750276E17EF0DF02054696545
:100080006D706F3A20003A003A00205469656D7037
:100090006F3A206F66662D3E2020487A20507368A4
:1000A0003A2025002D3E506F7765723A20002500DA
:1000B000467265713A205068693A20006475747917
:1000C0003A20506F776572207374617475733A20AB
:1000D0002053616C6972203C2D00200E2A6E0C6A40
:1000E0000D6A0E6A0F6AD890143615361636173612
:1000F000D890083609360A360B360C360D360E36D1
:100100000F360F50135CD8A492EF00F00E50125C23
:10011000D8A492EF00F00D50115CD8A492EF00F03B
:100120000C50105CD8B498EF00F0D8B0A6EF00F0F7
:10013000D8800C5010540C6E0D5011540D6E0E5092
:1001400012540E6E0F5013540F6E14802A2E73EF3C
:1001500000F0120030BEC0EF00F030BCB6EF00F08F
:100160002F50EA6E2E50E96EEF5012002E50F66EB0
:100170002F50F76E30503F0BF86E0800F55012000C
:100180001200FB6E2F50FA6E2E50F96ED190C26A9B
:100190000F0EC16EC06A070EB46E6AEF02F0A65170
:1001A000B26FA751B36FB251B66FB351B76FB56BA2
:1001B000F2EF00F0AE51B5252E6E000E096EAF5174
:1001C00009202F6EB0510920306EAAEC00F0086EA5
:1001D00000019B512E6E9C512F6E9D51C1EC00F081
:1001E0000001B52BB551B65D086EB7510810D8A403
:1001F000DAEF00F01200D8904336443645364636E2
:10020000D8904334C26F4434C36F4534C46F46340E
:10021000C56FD890C237C337C437C537C2514326DC
:10022000C3514422C4514522C55146221200010E39
:10023000436E446A456A466ABA6BBB6B4650B95D09
:10024000D8A42FEF01F04550B85DD8A42FEF01F0EE
:100250004450B75DD8A42FEF01F04350B65DBD9177
:10026000D8A4D8B0BD81000EBB5DD8A43AEF01F090
:100270000A0EBA5DBD93D8B440EF01F0D8A0BD839B
:10028000BD85BDB1BDA3BD95BDA54FEF01F0FBEC94
:1002900000F00001BA2BD8B4BB2B1EEF01F0BA510D
:1002A000BB11D8A457EF01F0010EBA6FBB6BBA07B0
:1002B000BA29D8B4BB07010E436E446A456A466A40
:1002C000BA51BE6FBB51BF6FC06BC16B6EEF01F017
:1002D000FBEC00F00001C02BD8B4C12BC051BE5DB7
:1002E000086EC151BF5D0810D8A468EF01F0300E50
:1002F000BC6FB951465CD8A48AEF01F0B851455C97
:10030000D8A48AEF01F0B751445CD8A48AEF01F079
:10031000B651435CD8B490EF01F0D8B0A0EF01F033
:10032000D880B6514354B66FB7514454B76FB851E3
:100330004554B86FB9514654B96FBC2B79EF01F0F1
:10034000BC51086EB2512E6EB3512F6EB451C1EC38
:1003500000F00001BA51BB11D8A457EF01F0120010
:100360009B51B26F9C51B36F9D51B46FA651B66F44
:10037000A751B76FA851B86FA951B96F17EF01F026
:10038000A66FAA6FAB6BAC6BAD6B9B51B26F9C5100
:10039000B36F9D51B46FAA51B66FAB51B76FAC51EB
:1003A000B86FAD51B96F17EF01F0406E4050D8B43F
:1003B00012004004D8A4E6EF01F000010A0E086E16
:1003C000082EE0EF01F000000000120040060001DE
:1003D000070E086E082EEAEF01F000004050416E53
:1003E000426AFAEF01F000010E0E086E082EF6EFD9
:1003F00001F0422A4250415CD8A4F3EF01F0120010
:1004000097519E6F98519F6FA66BA76B17EF02F0E5
:100410000001090E086EB70E096E092E0DEF02F0ED
:10042000082E0BEF02F00000A62BD8B4A72BA65184
:100430009E5D086EA7519F5D0810D8A408EF02F0DA
:10044000120097519E6F98519F6FA66BA76B3CEF60
:1004500002F00001110E086E570E096E6F0E0A6E43
:100460000A2E30EF02F0092E2EEF02F0082E2CEFAC
:1004700002F0A62BD8B4A72BA6519E5D086EA751FB
:100480009F5D0810D8A429EF02F012009793D8843A
:10049000A0A150EF02F097A151EF02F052EF02F04D
:1004A00097B1D894D8A45AEF02F0030E9711986F21
:1004B00066EF02F098079851D8A466EF02F0979182
:1004C000A0B19781030E9711986F9783030E97152C
:1004D0009E6F12009494959A8B948C9A9380938239
:1004E000938893869384939E0A0E976F986B21EC62
:1004F00002F01F0E00018C17FE0E8D1792801F0E4A
:100500008C15C0098C6FFE0E8D1501098D6F086A60
:100510008CBB08808CBD08828CBF08848DB1088696
:100520000F0E0814096EF00EC1140910C16E956B00
:100530009539086E300E0816CF0EC1140810C16E22
:10054000F80EC0140509C06EC70EC016A80E476E7F
:10055000610E486E496A4A6AA80E4B6E610E4C6E77
:100560004D6A4E6A320E4F6E506A516A526A8C91D1
:10057000536A546A556A1E0E566E010E576E586ABB
:100580008C938C858C97300E956F030E9511966F1A
:100590009551596E96515A6E59505B6E5A505C6E19
:1005A000300E956F030E9511966F9551596E9651B9
:1005B0005A6E59505D6E5A505E6E300E956F030E36
:1005C0009511966F9551596E96515A6E59505F6FAD
:1005D0005A50606F616B8C99386A010E396E92EFD8
:1005E00003F0976F386A010E396E3804CB6E9705A9
:1005F000D8A4FFEF02F0FC0ECA16CA841200040E43
:10060000975DD8A40AEF03F0FC0ECA140109CA6E64
:10061000CA841200100E975DD8A415EF03F0FC0EEB
:10062000CA140209CA6ECA841200CA9412009751F1
:10063000106E9851116E9951126E9A51136E086A8C
:100640002D0E096E310E0A6E010E0B6E6DEC00F070
:1006500014500001A66F1550A76FD890A731AF6F47
:10066000A631AE6FD890AF33AE33CA6AAE51AF1178
:10067000B181D8B4B191100EAF5DD8A442EF03F0B0
:10068000000EAE5DB193D8A4D8A0B183B185B1B14D
:10069000B1A3B195B1A591EF03F0010EAF5DD8A460
:1006A00054EF03F0000EAE5DD8B45AEF03F0D8B0AB
:1006B00062EF03F0AE51386EAF51396EFC0ECA16C0
:1006C0008EEF03F0040EAF5DD8A469EF03F0000EC7
:1006D000AE5DD8B46FEF03F0D8B07DEF03F0D890E3
:1006E000AF31396EAE31386ED89039323832FC0EB7
:1006F000CA140109CA6E8EEF03F0D890AF31396E7B
:10070000AE31386E030E086ED89039323832082E6A
:1007100084EF03F0FC0ECA140209CA6E3804CB6ED3
:10072000CA841200626B636B22EF04F0F00E0001CA
:1007300063150C09636F6251BE6E6351BD6E12008A
:10074000F00E000163176351BD6E1200030EB35D1E
:10075000D8A4ADEF03F0FF0EB25DD8B4B7EF03F04D
:10076000D8A0B7EF03F0FF0EB26F030EB36FD890AF
:10077000B331096EB231086ED89009320832085090
:10078000626F030EB215086E0838096E300E091636
:10079000CF0E63150910636F96EF03F00001976F9A
:1007A0009751D8A4D8EF03F09B6B9C6B14EF04F027
:1007B000640E975DD8B4E0EF03F0D8A0E9EF03F042
:1007C00039509C6F38049B6F9B29D8B49C0714EF59
:1007D00004F09751A06FA16BD8903930A36F3830D7
:1007E000A26FD890A333A233A051A203F350A46FF9
:1007F000F450A56FA051A303F350A527A151A20364
:10080000F350A527190E106E116A126A136AA451CB
:10081000086EA551096E0A6A0B6A6DEC00F014505F
:1008200000019B6F15509C6FD8909B35A06F9C3535
:10083000A16FD890A037A137A051B26FA151B36F6B
:10084000A6EF03F0010EF1EC02F0A80E0001976F85
:10085000610E986F996B9A6B17EC03F0320ECEEC29
:1008600003F0A0EC03F069EF04F08CA940EF04F072
:100870004B50476E4C50486E4D50496E4E504A6E2C
:100880004750976F4850986F4950996F4A509A6FE8
:1008900017EC03F04F50CEEC03F096EC03F0F00EA3
:1008A000BD140C09BD6E3F0EBD148009BD6E800ED7
:1008B000B7143209B76EF288F096F292F090CD80BC
:1008C0001200A0EC03F08B948C9AF298F096CD90E5
:1008D0001200D59AD596F80ED5140709D56ED59C79
:1008E000B40ED66EB30ED76ECD92CD8ECF0ECD1682
:1008F000CE6ACF6AF19CF19AF292F090F28E959CBA
:10090000959E9590959295949596C3EF04F03F6EC1
:100910003FB08EEF04F08C908FEF04F08C803FB2EC
:1009200095EF04F08C9296EF04F08C823FB49CEF2C
:1009300004F08C949DEF04F08C843FB6A3EF04F098
:100940008C96A4EF04F08C868C8E000000000000D2
:10095000000000008C9E12003D6E3D380F0B3E6E75
:1009600087EC04F03D5087EC04F0040ED5EF01F065
:100970003C6E8C8C3C50ACEF04F00001AA6F8C9C58
:10098000AA51ACEF04F03A6A28EF05F0A66F040E06
:10099000A65DD8B4CFEF04F0D8A0D0EF04F0A66BDA
:1009A000A651D8B4000CA605D8B4400C020EA65D22
:1009B000D8B4140C030EA65DD8B4540C1200800EEB
:1009C0003A10A66FBDEF04F008503B6EB8EF04F08C
:1009D0009B6FC6EC04F00001A06F9E51A0253A6EFB
:1009E000DFEF04F0010EBDEC04F0B40ED5EF01F022
:1009F0008C9C190E0001976F986B00EC02F0030EAF
:100A000087EC04F0050E0001976F986B00EC02F084
:100A1000030E87EC04F00A0ED5EC01F0030E87EC10
:100A200004F0040ED5EC01F0020E87EC04F0040E85
:100A3000D5EC01F0280EBDEC04F01C0EBDEC04F06A
:100A40000C0EBDEC04F0060EBDEC04F0F2EF04F069
:100A5000F8EC04F04D0E0001646F690E656F200E16
:100A6000666F430E676F6F0E686F630E696F690E76
:100A70006A6F6E0E6B6F610E6C6F200E6D6F640E81
:100A80006E6F650E6F6F200E706F490E716F6E0E78
:100A9000726F640E736F750E746F630E756F766F81
:100AA000200E776FF2EC04F0C80E00019B6F090E68
:100AB0009C6F000E9D6F140EA66FA76B640EAE6F39
:100AC000AF6BB06BCFEC00F00A0E0001976F986B24
:100AD00021EC02F0F2EC04F095EF09F08CA79FEF07
:100AE00005F055509783D8A4979354509785D8A470
:100AF0009795978797B397A5979753509789D8A4B9
:100B00009799978B97B797A9979B97AB8CEF05F021
:100B10008C978C9161EC04F05350D8B492EF05F0AF
:100B2000530612003B0E536E5450D8B49AEF05F0A2
:100B3000540612003B0E546E5550D8A455061200B0
:100B4000F28AF294D58E5850556E5750546E5650C6
:100B5000536E120000018CA7B7EF05F08CA3BCEF19
:100B600005F06EEC05F000018C938C851200D59E8B
:100B7000F29A556A546A536A1200F2EC04F00001CA
:100B80009E6B000EE8EC04F000018CA16EEF06F005
:100B9000200E646F410E656F500E666F410E676FD9
:100BA000470E686F410E696F520E6A6F200E6B6FB1
:100BB0006C6F540E6D6F490E6E6F4D0E6F6F450E5C
:100BC000706F520E716F200E726F736F500E746FD4
:100BD0004F0E756F540E766F200E776FC80E9B6F99
:100BE000090E9C6F000E9D6F140EA66FA76B640E0E
:100BF000AE6FAF6BB06BCFEC00F000019E6B010EDF
:100C0000E8EC04F000018CA75CEF06F0C80E9B6FC7
:100C1000090E9C6F000E9D6F090EA66FA76B7C0ED0
:100C2000AE6F000EAF6F000E4009B06FCFEC00F05A
:100C3000C80E00019B6F090E9C6F000E9D6F5550F2
:100C4000C0EC01F0C80E00019B6F090E9C6F000EF6
:100C50009D6F010EA66FA76B860EAE6F000EAF6F75
:100C6000000E4009B06FCFEC00F0C80E00019B6F82
:100C7000090E9C6F000E9D6F5450C0EC01F0C80E21
:100C800000019B6F090E9C6F000E9D6F010EA66FF9
:100C9000A76B880EAE6F000EAF6F000E4009B06FED
:100CA000CFEC00F0C80E00019B6F090E9C6F000E88
:100CB0009D6F5350C0EF01F0C80E9B6F090E9C6FE3
:100CC000000E9D6F0C0EA66FA76B8A0EAE6F000E06
:100CD000AF6F000E4009B06FCFEF00F0200E646FD1
:100CE000410E656F430E666F540E676F490E686F55
:100CF000560E696F410E6A6F520E6B6F200E6C6F4D
:100D00006D6F6E6F500E6F6F4F0E706F540E716F70
:100D1000450E726F4E0E736F430E746F490E756FF2
:100D2000410E766F200E776F200E786F796F7A6F95
:100D30007B6F7C6F7D6F7E6F540E7F6F490E806F6F
:100D40004D0E816F450E826F520E836F200E846FA1
:100D5000856F866F876F886F896F8A6F8B6FC80EFC
:100D60009B6F090E9C6F000E9D6F140EA66FA76BF4
:100D7000640EAE6FAF6BB06BCFEC00F000019E6BFA
:100D8000010EE8EC04F0C80E00019B6F090E9C6F89
:100D9000000E9D6F140EA66FA76B780EAE6FAF6B33
:100DA000B06BCFEF00F0450E646F6E0E656F740E82
:100DB000666F720E676F610E686F720E696F200E3C
:100DC0006A6F650E6B6F6E0E6C6F200E6D6F6D0E21
:100DD0006E6F6F0E6F6F640E706F6F0E716F200EFF
:100DE000726F640E736F650E746F620E756F750EA1
:100DF000766F670E776F200E786F796F7A6F7B6FE3
:100E00007C6F7D6F7E6F530E7F6F490E806F200E5B
:100E1000816F826F836F846F856F866F4E0E876FD1
:100E20004F0E886F200E896F8A6F8B6FF2EC04F083
:100E300000019E6B000EE8EC04F0C80E00019B6FF1
:100E4000090E9C6F000E9D6F140EA66FA76B640EAB
:100E5000AE6FAF6BB06BCFEC00F000019E6B010E7C
:100E6000E8EC04F0C80E00019B6F090E9C6F000EA9
:100E70009D6F140EA66FA76B780EAE6FAF6BB06B45
:100E8000CFEF00F0F2EC04F000019E6B000EE8ECF6
:100E900004F0040E0001615DD8B469EF08F0D8B029
:100EA00069EF08F0976B9E6B9751E8EC04F0000136
:100EB0009751615DD8A471EF07F0C80E9B6F090EC2
:100EC0009C6F000E9D6F020EA66FA76B960EAE6F05
:100ED000000EAF6F000E4009B06FCFEC00F083EF53
:100EE00007F0C80E9B6F090E9C6F000E9D6F020EDF
:100EF000A66FA76B980EAE6F000EAF6F000E400985
:100F0000B06FCFEC00F00001972B040E975DD8A4D2
:100F100053EF07F0020E9E6F000EE8EC04F0C80ECF
:100F200000019B6F090E9C6F000E9D6F060EA66F51
:100F3000A76BB00EAE6F000EAF6F000E4009B06F22
:100F4000CFEC00F0C80E00019B6F090E9C6F000EE5
:100F50009D6F4B50A66F4C50A76F4D50A86F4E50D1
:100F6000A96FB0EC01F0C80E00019B6F090E9C6FD9
:100F7000000E9D6F020EA66FA76B9A0EAE6F000E4D
:100F8000AF6F000E4009B06FCFEC00F0020E000111
:100F90009E6F010EE8EC04F0C80E00019B6F090E75
:100FA0009C6F000E9D6F050EA66FA76BB60EAE6F01
:100FB000000EAF6F000E4009B06FCFEC00F0C80E0E
:100FC00000019B6F090E9C6F000E9D6F6151C0EC7C
:100FD00001F0C80E00019B6F090E9C6F000E9D6F03
:100FE000060EA66FA76B9C0EAE6F000EAF6F000EC5
:100FF0004009B06FCFEC00F0C80E00019B6F090EE6
:101000009C6F000E9D6F5050A66F5150A76FA86B3C
:10101000A96BB0EC01F0020E00019E6F020EE8EC2D
:1010200004F0C80E00019B6F090E9C6F000E9D6FAF
:10103000060EA66FA76BBC0EAE6F000EAF6F000E54
:101040004009B06FCFEC00F0C80E00019B6F090E95
:101050009C6F000E9D6F4F50A66FA76BA86BA96B7E
:10106000B0EC01F0C80E00019B6F090E9C6F000EE2
:101070009D6F010EA66FA76BA20EAE6F000EAF6F35
:10108000000E4009B06FCFEC00F0020E00019E6F21
:10109000030EE8EC04F0C80E00019B6F090E9C6F74
:1010A000000E9D6F0E0EA66FA76BC20EAE6F000EE8
:1010B000AF6F000E4009B06FCFEC00F0C80E00011A
:1010C0009B6F090E9C6F000E9D6F8C51010BC0EF42
:1010D00001F0F2EC04F000019E6B000EE8EC04F06D
:1010E000C80E00019B6F090E9C6F000E9D6F020ED3
:1010F000A66FA76BA40EAE6F000EAF6F000E400977
:10110000B06FCFEC00F0C80E00019B6F090E9C6F12
:10111000000E9D6F090EA66FA76BD00EAE6F000E6E
:10112000AF6F000E4009B06FCFEF00F0200E646F7C
:10113000540E656F490E666F4D0E676F450E686FF2
:10114000520E696F200E6A6F6B6F6C6F6D6F6E6FF2
:101150006F6F706F716F726F736F746F756F766F83
:10116000776FF2EC04F000019E6B000EE8EC04F0E7
:10117000C80E00019B6F090E9C6F000E9D6F140E30
:10118000A66FA76B640EAE6FAF6BB06BCFEC00F0C9
:1011900000019E6B010EE8EC04F0C80E00019B6F8D
:1011A000090E9C6F000E9D6F5850C0EC01F03A0E76
:1011B000086EE4EC04F0C80E00019B6F090E9C6FF2
:1011C000000E9D6F5750C0EC01F03A0E086EE4EC33
:1011D00004F0C80E00019B6F090E9C6F000E9D6FFE
:1011E0005650C0EF01F0200E646F656F666F410EC0
:1011F000676F630E686F740E696F690E6A6F760EA3
:101200006B6F610E6C6F720E6D6F200E6E6F540EF1
:101210006F6F690E706F6D0E716F650E726F720E6B
:10122000736F3F0E746F200E756F766F776F200EA1
:10123000786F796F7A6F7B6F7C6F7D6F7E6F530EE7
:101240007F6F490E806F200E816F826F836F846F76
:10125000856F866F4E0E876F4F0E886F200E896FD9
:101260008A6F8B6FF2EC04F000019E6B000EE8ECCD
:1012700004F0C80E00019B6F090E9C6F000E9D6F5D
:10128000140EA66FA76B640EAE6FAF6BB06BCFEC96
:1012900000F000019E6B010EE8EC04F0C80E0001A6
:1012A0009B6F090E9C6F000E9D6F140EA66FA76BAF
:1012B000780EAE6FAF6BB06BCFEF00F0F2EC04F0D6
:1012C00000019E6B000EE8EC04F0C80E00019B6F5D
:1012D000090E9C6F000E9D6F070EA66FA76BA60EE2
:1012E000AE6F000EAF6F000E4009B06FCFEC00F094
:1012F000C80E00019B6F090E9C6F000E9D6F4F5032
:10130000C0EC01F0C80E00019B6F090E9C6F000E2F
:101310009D6F010EA66FA76BAE0EAE6F000EAF6F86
:10132000000E4009B06FCFEF00F05250D8A4F6EF96
:1013300009F000018CA5A1EF09F0BDEC05F000015A
:101340008C95A09181B6A0815D50976F5E50986F8B
:1013500046EC02F00001956F97515D6E98515E6EFC
:10136000020E955DD8A4B8EF09F0010E526E8C857F
:10137000A09181B8A0815F51976F6051986F46EC42
:1013800002F00001956F97515F6F9851606F020EE8
:10139000955DD8A4CFEF09F0020E526E8C85A09116
:1013A00081B4A0815B50976F5C50986F46EC02F05F
:1013B0000001956F97515B6E98515C6E020E955DC2
:1013C000D8A413EF0DF08CA1E9EF09F08C91EAEFAE
:1013D00009F08C818C858CA1F2EF09F035EC04F0DA
:1013E00013EF0DF061EC04F013EF0DF05204D8A4EC
:1013F00094EF0AF000018CA502EF0AF096EC08F0D9
:1014000000018C95A09181B4A0815B50976F5C50D6
:10141000986F46EC02F00001956F97515B6E985102
:101420005C6E020E955DD8A41BEF0AF0030E526E9F
:101430008C8513EF0DF0A09181B6A0815D50976F60
:101440005E50986F46EC02F00001956F97515D6E0B
:1014500098515E6E020E955DD8A468EF0AF0562A88
:101460003B0E565CD8B450EF0AF0D8A050EF0AF00B
:10147000566A572A3B0E575CD8B465EF0AF0D8A0DD
:1014800065EF0AF0576A582A010E585CD8B465EF28
:101490000AF0D8A065EF0AF0010E586E65EF0AF069
:1014A0003B0E575CD8B45CEF0AF0D8A05CEF0AF0B2
:1014B000576A582A65EF0AF0010E585CD8B465EFF8
:1014C0000AF0D8A065EF0AF0586A8C8513EF0DF08A
:1014D000A09181B8A0815F51976F6051986F46ECE1
:1014E00002F00001956F97515F6F9851606F020E87
:1014F000955DD8A492EF0AF05650D8B483EF0AF065
:10150000560691EF0AF03B0E566E5750D8B48CEF4A
:101510000AF0570691EF0AF03B0E576E5850D8A4C8
:1015200058068C8513EF0DF0020E525CD8A42EEFF6
:101530000BF000018CA5A1EF0AF05EEC09F00001B0
:101540008C95A09181B4A0815B50976F5C50986F8F
:1015500046EC02F00001956F97515B6E98515C6EFE
:10156000020E955DD8A4B9EF0AF0526A8C85FBEFA4
:101570000AF0A09181B6A0815D50976F5E50986F80
:1015800046EC02F00001956F97515D6E98515E6ECA
:10159000020E955DD8A4DFEF0AF04F2A640E4F5C6F
:1015A000D8B4D8EF0AF0D8A0D8EF0AF0640E4F6E86
:1015B0008CB135EC04F000018C85FBEF0AF0A091B2
:1015C00081B8A0815F51976F6051986F46EC02F02F
:1015D0000001956F97515F6F9851606F020E955D96
:1015E000D8A4FBEF0AF04F50D8A44F068CB135ECCD
:1015F00004F000018C85A09181B4A0815B50976FAD
:101600005C50986F46EC02F00001956F97515B6E4D
:1016100098515C6E020E955D9095D8B49085A0911E
:1016200081B6A0815D50976F5E50986F46EC02F0D6
:101630000001966F97515D6E98515E6E965190873E
:10164000D8A49097908990B590A7909990A913EFFE
:101650000DF0040E526E8C8513EF0DF0030E525CEC
:10166000D8A46EEF0BF000018CA53BEF0BF0F3EC70
:1016700008F000018C95A09181B6A0815D50976F14
:101680005E50986F46EC02F00001956F97515D6EC9
:1016900098515E6E020E955DD8A454EF0BF08C87C6
:1016A000526A8C85A0EC05F00001A09181B8A08160
:1016B0005F51976F6051986F46EC02F00001956F93
:1016C00097515F6F9851606F020E955DD8A413EF2C
:1016D0000DF08C97526A8C8513EF0DF0040E525C5E
:1016E000D8A4AAEF0BF000018CA57BEF0BF0D3EC94
:1016F00006F000018C95A09181B8A0815F51976F91
:101700006051986F46EC02F00001956F97515F6F42
:101710009851606F020E955DD8A491EF0BF0526A5C
:101720008C85A09181B6A0815D50976F5E50986FB7
:1017300046EC02F00001956F97515D6E98515E6E18
:10174000020E955DD8A413EF0DF0050E526E8C8538
:1017500013EF0DF0050E525CD8A413EF0DF000014D
:101760008CA5B7EF0BF042EC07F000018C958C894B
:101770006151D8A43DEF0CF0A09181B6A0815D50DD
:10178000976F5E50986F46EC02F00001956F97518D
:101790005D6E98515E6E020E955DD8A4FBEF0BF066
:1017A0008C85640E4B26000E4C22000E4D22000E3E
:1017B0004E22000E4A5CD8A4EAEF0BF0000E495C02
:1017C000D8A4EAEF0BF0C30E485CD8A4EAEF0BF004
:1017D000500E475CD8B4F0EF0BF0D8A0F6EF0BF04A
:1017E000500E476EC30E486E496A4A6A8CA1FBEFE1
:1017F0000BF035EC04F00001A09181B8A0815F519D
:10180000976F6051986F46EC02F00001956F975109
:101810005F6F9851606F020E955DD8A4BEEF0CF01B
:101820008C859C0E4B26FF0E4C22FF0E4D22FF0E88
:101830004E22000E4A5CD8A42AEF0CF0000E495C40
:10184000D8A42AEF0CF0270E485CD8A42AEF0CF09D
:10185000100E475CD8B430EF0CF0D8B036EF0CF077
:10186000100E476E270E486E496A4A6A8CA1BEEF79
:101870000CF035EC04F0BEEF0CF0020E615DD8A464
:1018800087EF0CF0A09181B6A0815D50976F5E50FC
:10189000986F46EC02F00001956F97515D6E98517C
:1018A0005E6E020E955DD8A467EF0CF08C854F2A12
:1018B000640E4F5CD8B462EF0CF0D8A062EF0CF06D
:1018C000640E4F6E8CA167EF0CF035EC04F0000154
:1018D000A09181B8A0815F51976F6051986F46ECDD
:1018E00002F00001956F97515F6F9851606F020E83
:1018F000955DD8A4BEEF0CF08C854F50D8A44F0650
:101900008CA1BEEF0CF035EC04F0BEEF0CF0030E32
:10191000615DD8A4BEEF0CF0A09181B6A0815D50AE
:10192000976F5E50986F46EC02F00001956F9751EB
:101930005D6E98515E6E020E955DD8A4A5EF0CF019
:1019400035EC04F000018C818C85A09181B8A081D8
:101950005F51976F6051986F46EC02F00001956FF0
:1019600097515F6F9851606F020E955DD8A4BEEFDE
:101970000CF08C9161EC04F000018C850001A091C9
:1019800081B4A0815B50976F5C50986F46EC02F079
:101990000001956F97515B6E98515C6E020E955DDC
:1019A000D8A4DEEF0CF0612B8C85040E615DD8B4F9
:1019B000DEEF0CF0D8A0DEEF0CF0616B040E615D81
:1019C000D8A413EF0DF0A09181B6A0815D50976F60
:1019D0005E50986F46EC02F00001956F97515D6E76
:1019E00098515E6E020E955DD8A4FBEF0CF0526A22
:1019F000616B8C998C85A09181B8A0815F51976FA4
:101A00006051986F46EC02F00001956F97515F6F3F
:101A10009851606F020E955DD8A413EF0DF0526AD5
:101A2000616B8C998C85AAEC05F095EF09F0F2A416
:101A300020EF0DF08C83B40ED66EB30ED76EF294F9
:101A4000F2A229EF0DF0CD80CE6ACF6AF298F0862F
:101A5000F292F0A033EF0DF0CE50506ECF50516E99
:101A6000F096F288F0901850086E1950096E1A50CE
:101A70000A6E1B500B6E1C500C6E1D500D6E1E50CE
:101A80000E6E1F500F6E2050106E2150116E22509E
:101A9000126E2350136E2450146E2550156E26506E
:101AA000166E2750176E3450F66E3550F76E36505E
:101AB000F86E3750F56E3250E96E3350EA6E3150A1
:0C1AC0002E6E2D502C6E2B502A6E110043
:020000040030CA
:0E000000240C391E008580000FC00FE00F4059
:00000001FF
