:020000040000FA
:04000000B7EF00F066
:0800080000012A502B6E0001DB
:100010002C502D6E00012E50316E0001E950326ED1
:10002000EA50336E0001F650346EF750356EF850DA
:10003000366EF550376E00010850186E0950196E73
:100040000A501A6E0B501B6E0C501C6E0D501D6E1C
:100050000E501E6E0F501F6E1050206E1150216EEC
:100060001250226E1350236E1450246E1550256EBC
:100070001650266E1750276EA3EF0CF02D3E202051
:100080002D3E3530250032352500506F7765723AA8
:100090002000467265713A205068693A2000647504
:1000A00074793A20506F7765722073746174757338
:1000B0003A202053616C6972203C2D00200E2A6E7C
:1000C0000C6A0D6A0E6A0F6AD89014361536163609
:1000D0001736D890083609360A360B360C360D36E8
:1000E0000E360F360F50135CD8A483EF00F00E507D
:1000F000125CD8A483EF00F00D50115CD8A483EFFC
:1001000000F00C50105CD8B489EF00F0D8B097EF35
:1001100000F0D8800C5010540C6E0D5011540D6E20
:100120000E5012540E6E0F5013540F6E14802A2E60
:1001300064EF00F0120030BEB1EF00F030BCA7EF6A
:1001400000F02F50EA6E2E50E96EEF5012002E5044
:10015000F66E2F50F76E30503F0BF86E0800F550DA
:1001600012001200FB6E2F50FA6E2E50F96ED190D5
:10017000C26A0F0EC16EC06A070EB46E5BEF02F06A
:10018000BB51C86FBC51C96FC851CD6FC951CE6F3B
:10019000CC6BE3EF00F0C351CC252E6E000E096E40
:1001A000C45109202F6EC5510920306E9BEC00F020
:1001B000086E0001AE512E6EAF512F6EB051B2ECF1
:1001C00000F00001CC2BCC51CD5D086ECE51081053
:1001D000D8A4CBEF00F01200D89043364436453611
:1001E0004636D8904334D96F4434DA6F4534DB6FE8
:1001F0004634DC6FD890D937DA37DB37DC37D95162
:100200004326DA514422DB514522DC5146221200BA
:10021000010E436E446A456A466AD16BD26B465002
:10022000D05DD8A420EF01F04550CF5DD8A420EFD9
:1002300001F04450CE5DD8A420EF01F04350CD5DD5
:10024000D491D8A4D8B0D481000ED25DD8A42BEF1D
:1002500001F00A0ED15DD493D8B431EF01F0D8A0EB
:10026000D483D485D4B1D4A3D495D4A540EF01F0E0
:10027000ECEC00F00001D12BD8B4D22B0FEF01F041
:10028000D151D211D8A448EF01F0010ED16FD26B39
:10029000D107D129D8B4D207010E436E446A456A0A
:1002A000466AD151D56FD251D66FD76BD86B5FEFFD
:1002B00001F0ECEC00F00001D72BD8B4D82BD751CB
:1002C000D55D086ED851D65D0810D8A459EF01F05D
:1002D000300ED36FD051465CD8A47BEF01F0CF51E4
:1002E000455CD8A47BEF01F0CE51445CD8A47BEFF1
:1002F00001F0CD51435CD8B481EF01F0D8B091EF5B
:1003000001F0D880CD514354CD6FCE514454CE6FBF
:10031000CF514554CF6FD0514654D06FD32B6AEF95
:1003200001F0D351086EC8512E6EC9512F6ECA51BB
:10033000B2EC00F00001D151D211D8A448EF01F085
:100340001200AE51C86FAF51C96FB051CA6FBB51E7
:10035000CD6FBC51CE6FBD51CF6FBE51D06F08EF86
:1003600001F0BB6FBF6FC06BC16BC26BAE51C86F8A
:10037000AF51C96FB051CA6FBF51CD6FC051CE6F71
:10038000C151CF6FC251D06F08EF01F0406E4050A5
:10039000D8B412004004D8A4D7EF01F000010A0E2F
:1003A000086E082ED1EF01F0000000001200400698
:1003B0000001070E086E082EDBEF01F00000405030
:1003C000416E426AEBEF01F000010E0E086E082E3E
:1003D000E7EF01F0422A4250415CD8A4E4EF01F07B
:1003E0001200AC51B16FAD51B26FBB6BBC6B08EF7B
:1003F00002F00001090E086EB70E096E092EFEEF1D
:1004000001F0082EFCEF01F00000BB2BD8B4BC2B90
:10041000BB51B15D086EBC51B25D0810D8A4F9EFB4
:1004200001F01200AC51B16FAD51B26FBB6BBC6B40
:100430002DEF02F00001110E086E570E096E6F0EBF
:100440000A6E0A2E21EF02F0092E1FEF02F0082E8D
:100450001DEF02F0BB2BD8B4BC2BBB51B15D086EB5
:10046000BC51B25D0810D8A41AEF02F01200AC9390
:10047000D884B5A141EF02F0ACA142EF02F043EF06
:1004800002F0ACB1D894D8A44BEF02F0030EAC113B
:10049000AD6F57EF02F0AD07AD51D8A457EF02F0A2
:1004A000AC91B5B1AC81030EAC11AD6FAC83030E52
:1004B000AC15B16F12009494959A8B948C9A93809A
:1004C0009382938893869384939E0A0EAC6FAD6B50
:1004D00012EC02F00F0E0001A21792800F0EA2156F
:1004E000E009A26FA239086E0F0E08160F0E08144D
:1004F000096EF00EC1140910C16EAA6BAA39086EFC
:10050000300E0816CF0EC1140810C16EF80EC014BC
:100510000509C06EC70EC016A80E476E610E486E64
:10052000496A4A6AA80E4B6E610E4C6E4D6A4E6A5D
:10053000020E516E526AA291536A0A0E546E556AA7
:10054000566A576AA283A295300EAA6F030EAA11AB
:10055000AB6FAA515B6EAB515C6E5B505D6E5C50D5
:100560005E6E300EAA6F030EAA11AB6FAA515B6EBE
:10057000AB515C6E5B505F6F5C50606F300EAA6F6A
:10058000030EAA11AB6FAA515B6EAB515C6E5B5050
:10059000616F5C50626F636BA297386A010E396EAF
:1005A00086EF03F0D8903834B16F3934B26FD890F9
:1005B000B137B237030EB125B36F000EB221B46F5D
:1005C000B351086EB451096E1200AC6F386A010E57
:1005D000396E3804CB6EAC05D8A4F3EF02F0FC0EF4
:1005E000CA16CA841200040EAC5DD8A4FEEF02F055
:1005F000FC0ECA140109CA6ECA841200100EAC5D4A
:10060000D8A409EF03F0FC0ECA140209CA6ECA840A
:100610001200CA941200B151106EB251116EB35152
:10062000126EB451136E086A2D0E096E310E0A6EE9
:10063000010E0B6E5EEC00F014500001C36F1550FC
:10064000C46FD890C431C76FC331C66FD890C73359
:10065000C633CA6AC651C711CB81D8B4CB91100E2C
:10066000C75DD8A436EF03F0000EC65DCB93D8A4C7
:10067000D8A0CB83CB85CBB1CBA3CB95CBA585EF36
:1006800003F0010EC75DD8A448EF03F0000EC65D6D
:10069000D8B44EEF03F0D8B056EF03F0C651386E21
:1006A000C751396EFC0ECA1682EF03F0040EC75D07
:1006B000D8A45DEF03F0000EC65DD8B463EF03F07D
:1006C000D8B071EF03F0D890C731396EC631386EAB
:1006D000D89039323832FC0ECA140109CA6E82EF42
:1006E00003F0D890C731396EC631386E030E086EEC
:1006F000D89039323832082E78EF03F0FC0ECA1445
:100700000209CA6E3804CB6ECA841200646B656B32
:100710001CEF04F0F00E000165150C09656F6451C3
:10072000BE6E6551BD6E1200F00E00016517655179
:10073000BD6E1200030EC95DD8A4A1EF03F0FF0E39
:10074000C85DD8B4ABEF03F0D8A0ABEF03F0FF0E59
:10075000C86F030EC96FD890C931096EC831086ED1
:10076000D890093208320850646F030EC815086E1D
:100770000838096E300E0916CF0E65150910656F21
:100780008AEF03F0B151C86FB251C96F9AEF03F00D
:100790000001AC6FAC51D8A4D2EF03F0AE6BAF6BDD
:1007A0000EEF04F0640EAC5DD8B4DAEF03F0D8A01D
:1007B000E3EF03F03950AF6F3804AE6FAE29D8B411
:1007C000AF070EEF04F0AC51B56FB66BD89039306F
:1007D000B86F3830B76FD890B833B733B551B70367
:1007E000F350B96FF450BA6FB551B803F350BA274C
:1007F000B651B703F350BA27190E106E116A126A78
:10080000136AB951086EBA51096E0A6A0B6A5EEC36
:1008100000F014500001AE6F1550AF6FD890AE3598
:10082000B56FAF35B66FD890B537B637B551C86F1D
:10083000B651C96F9AEF03F0010EE5EC02F0A80E75
:100840000001B16F610EB26FB36BB46B0BEC03F0D0
:10085000320EC8EC03F094EC03F075EF04F0A2A79D
:100860003CEF04F04B50476E4C50486E4D50496E73
:100870004E504A6E54EF04F0D2EC02F008500001E2
:10088000AC6F0950AD6F5150106E116A126A136A45
:10089000AC51086EAD51096E0A6A0B6A5EEC00F04D
:1008A00014504F6E1550506E47500001B16F4850B4
:1008B000B26F4950B36F4A50B46F0BEC03F04F5016
:1008C0000001B16F5050B26FC2EC03F08AEC03F03C
:1008D000F00EBD140C09BD6E3F0EBD148009BD6E37
:1008E000800EB7140F09B76E1200D59AD596F80E80
:1008F000D5140209D56ED58CF294959C959E959051
:10090000959295949596C1EF04F03F6E3FB08CEFB1
:1009100004F08C908DEF04F08C803FB293EF04F0E4
:100920008C9294EF04F08C823FB49AEF04F08C9494
:100930009BEF04F08C843FB6A1EF04F08C96A2EFFD
:1009400004F08C868C8E0000000000000000000087
:100950008C9E12003D6E3D380F0B3E6E85EC04F010
:100960003D5085EC04F0040EC6EF01F03C6E8C8C1B
:100970003C50AAEF04F00001BF6F8C9CBF51AAEF5E
:1009800004F03A6A26EF05F0BB6F040EBB5DD8B4E5
:10099000CDEF04F0D8A0CEEF04F0BB6BBB51D8B4C0
:1009A000000CBB05D8B4400C020EBB5DD8B4140CCF
:1009B000030EBB5DD8B4540C1200800E3A10BB6F0E
:1009C000BBEF04F008503B6EB6EF04F0AE6FC4EC22
:1009D00004F00001B56FB151B5253A6EDDEF04F0BA
:1009E000010EBBEC04F0B40EC6EF01F08C9C190EA6
:1009F0000001AC6FAD6BF1EC01F0030E85EC04F07F
:100A0000050E0001AC6FAD6BF1EC01F0030E85EC4F
:100A100004F00A0EC6EC01F0030E85EC04F0040E9F
:100A2000C6EC01F0020E85EC04F0040EC6EC01F0F9
:100A3000280EBBEC04F01C0EBBEC04F00C0EBBEC5F
:100A400004F0060EBBEC04F0F0EF04F0F6EC04F05A
:100A50004D0E0001666F690E676F200E686F430EC2
:100A6000696F6F0E6A6F630E6B6F690E6C6F6E0E3F
:100A70006D6F610E6E6F200E6F6F640E706F650E7E
:100A8000716F200E726F490E736F6E0E746F640E6D
:100A9000756F750E766F630E776F786F200E796FB6
:100AA000200E8E6F540E8F6F690E906F650E916FD2
:100AB0006D0E926F700E936F6F0E946F3A0E956F6E
:100AC000200E966F300E976F986F3A0E996F300E1A
:100AD0009A6F9B6F3A0E9C6F300E9D6F9E6F200E2B
:100AE0009F6FA06FA16FF0EC04F0C40E0001AE6F19
:100AF000090EAF6F000EB06F140EBB6FBC6B660EAD
:100B0000C36FC46BC56BC0EC00F00A0E0001AC6F84
:100B1000AD6B12EC02F0F0EC04F0F19CF19AF29261
:100B2000F090F288F086F28E3CEF09F0120012008D
:100B30000001A2A5F7EF05F057505A5CAE93D8B468
:100B4000AE835450595CAE95D8B4AE85AE87AEB383
:100B5000AEA5AE975350585CAE99D8B4AE89AE8B63
:100B6000AEB7AEA9AE9BAEBBA291030E565CD8A4A5
:100B7000BCEF05F0E80E555CD8B4C2EF05F0D8A084
:100B8000D8EF05F0E80E106E030E116E126A136AAC
:100B90005550086E5650096E0A6A0B6A5EEC00F0FA
:100BA00014500001AC6F53260C50556E0D50566E0C
:100BB0003B0E535CD8B4E3EF05F0D8A0E3EF05F0AB
:100BC000536A542A12003B0E545CD8B4EEEF05F081
:100BD000D8A0EEEF05F0546A572A1200020E575CB7
:100BE000D8B4F7EF05F0D8A0F7EF05F0576A120078
:100BF000A2A14BEF06F0200E666F410E676F500EFC
:100C0000686F410E696F470E6A6F410E6B6F520E2F
:100C10006C6F200E6D6F6E6F540E6F6F490E706F9C
:100C20004D0E716F450E726F520E736F200E746F02
:100C3000756F500E766F4F0E776F540E786F200ED3
:100C4000796F8E517A6F8F517B6F90517C6F91517C
:100C50007D6F92517E6F93517F6F9451806F95514C
:100C6000816F9651826F9751836F9851846F99511C
:100C7000856F9A51866F9B51876F9C51886F9D51EC
:100C8000896F9E518A6F9F518B6FA0518C6FA151BC
:100C90008D6F8CEF06F0200E666F410E676F430E6E
:100CA000686F540E696F490E6A6F560E6B6F410E76
:100CB0006C6F520E6D6F200E6E6F6F6F706F500EF7
:100CC000716F4F0E726F540E736F450E746F4E0E30
:100CD000756F430E766F490E776F410E786F200E59
:100CE000796F200E7A6F7B6F7C6F7D6F7E6F7F6F69
:100CF000806F540E816F490E826F4D0E836F450ECB
:100D0000846F520E856F200E866F876F886F896F94
:100D10008A6F8B6F8C6F8D6FF0EC04F0C40E000146
:100D2000AE6F090EAF6F000EB06F140EBB6FBC6BD1
:100D3000660EC36FC46BC56BC0EC00F00001B16BF5
:100D4000010EE6EC04F0C40E0001AE6F090EAF6FA9
:100D5000000EB06F140EBB6FBC6B7A0EC36FC46B0A
:100D6000C56BC0EF00F0450E666F6E0E676F740EB8
:100D7000686F720E696F610E6A6F720E6B6F200E74
:100D80006C6F650E6D6F6E0E6E6F200E6F6F6D0E59
:100D9000706F6F0E716F640E726F6F0E736F200E37
:100DA000746F640E756F650E766F620E776F750ED9
:100DB000786F670E796F200E7A6F7B6F7C6F7D6F17
:100DC0007E6F7F6F806F530E816F490E826F200E92
:100DD000836F846F856F866F876F886F4E0E896F04
:100DE0004F0E8A6F200E8B6F8C6F8D6FF0EC04F0BE
:100DF0000001B16B000EE6EC04F0C40E0001AE6F12
:100E0000090EAF6F000EB06F140EBB6FBC6B660E99
:100E1000C36FC46BC56BC0EC00F00001B16B010E79
:100E2000E6EC04F0C40E0001AE6F090EAF6F000EC9
:100E3000B06F140EBB6FBC6B7A0EC36FC46BC56B07
:100E4000C0EF00F0F0EC04F00001B16B000EE6EC36
:100E500004F0040E0001635DD8B402EF08F0D8B0CE
:100E600002EF08F0AC6BB16BAC51E6EC04F00001A2
:100E7000AC51635DD8A451EF07F0C40EAE6F090EFC
:100E8000AF6F000EB06F020EBB6FBC6B7C0EC36FFA
:100E9000000EC46F000E4009C56FC0EC00F063EF98
:100EA00007F0C40EAE6F090EAF6F000EB06F020EEA
:100EB000BB6FBC6B7E0EC36F000EC46F000E40098B
:100EC000C56FC0EC00F00001AC2B040EAC5DD8A4E3
:100ED00033EF07F0020EB16F000EE6EC04F0C40E23
:100EE0000001AE6F090EAF6F000EB06F060EBB6F44
:100EF000BC6B920EC36F000EC46F000E4009C56F2D
:100F0000C0EC00F0C40E0001AE6F090EAF6F000E12
:100F1000B06F4B50BB6F4C50BC6F4D50BD6F4E50BF
:100F2000BE6FA1EC01F0020E0001B16F010EE6EC04
:100F300004F0C40E0001AE6F090EAF6F000EB06F6B
:100F4000050EBB6FBC6B980EC36F000EC46F000E16
:100F50004009C56FC0EC00F0C40E0001AE6F090E71
:100F6000AF6F000EB06F6351B1EC01F0020E0001E3
:100F7000B16F020EE6EC04F0C40E0001AE6F090E74
:100F8000AF6F000EB06F060EBB6FBC6B9E0EC36FD3
:100F9000000EC46F000E4009C56FC0EC00F0C40E17
:100FA0000001AE6F090EAF6F000EB06F4F50BB6FF8
:100FB0005050BC6FBD6BBE6BA1EC01F0020E000186
:100FC000B16F030EE6EC04F0C40E0001AE6F090E23
:100FD000AF6F000EB06F0E0EBB6FBC6BA40EC36F75
:100FE000000EC46F000E4009C56FC0EC00F0C40EC7
:100FF0000001AE6F090EAF6F000EB06FA251010B72
:10100000B1EF01F0F0EC04F00001B16B000EE6EC82
:1010100004F0C40E0001AE6F090EAF6F000EB06F8A
:10102000020EBB6FBC6B800EC36F000EC46F000E50
:101030004009C56FC0EC00F0C40E0001AE6F090E90
:10104000AF6F000EB06F090EBB6FBC6BB20EC36FFB
:10105000000EC46F000E4009C56FC0EF00F0200EF7
:10106000666F540E676F490E686F4D0E696F450EBF
:101070006A6F520E6B6F200E6C6F6D6F6E6F6F6FBD
:10108000706F716F726F736F746F756F766F776F4C
:10109000786F796FF0EC04F00001B16B000EE6ECB4
:1010A00004F0C40E0001AE6F090EAF6F000EB06FFA
:1010B000140EBB6FBC6B660EC36FC46BC56BC0EC0C
:1010C00000F00001B16B010EE6EC04F0C40E00016B
:1010D000AE6F090EAF6F000EB06F5A50B1EC01F059
:1010E0003A0E086EE2EC04F0C40E0001AE6F090E79
:1010F000AF6F000EB06F5950B1EC01F03A0E086EB0
:10110000E2EC04F0C40E0001AE6F090EAF6F000EEA
:10111000B06F5850B1EF01F0200E666F676F686FC7
:10112000410E696F630E6A6F740E6B6F690E6C6FA0
:10113000760E6D6F610E6E6F720E6F6F200E706F98
:10114000540E716F690E726F6D0E736F650E746F52
:10115000720E756F3F0E766F200E776F786F796F16
:10116000200E7A6F7B6F7C6F7D6F7E6F7F6F806FDD
:10117000530E816F490E826F200E836F846F856FCF
:10118000866F876F886F4E0E896F4F0E8A6F200EA5
:101190008B6F8C6F8D6FF0EC04F00001B16B000E63
:1011A000E6EC04F0C40E0001AE6F090EAF6F000E46
:1011B000B06F140EBB6FBC6B660EC36FC46BC56B98
:1011C000C0EC00F00001B16B010EE6EC04F0C40EBF
:1011D0000001AE6F090EAF6F000EB06F140EBB6F43
:1011E000BC6B7A0EC36FC46BC56BC0EF00F0F0EC44
:1011F00004F00001B16B000EE6EC04F0C40E000137
:10120000AE6F090EAF6F000EB06F070EBB6FBC6BF9
:101210008A0EC36F000EC46F000E4009C56FC0EC8C
:1012200000F0020E515CD8A429EF09F0C40E0001B1
:10123000AE6F090EAF6F000EB06F030EBB6FBC6BCD
:10124000820EC36F000EC46F000E4009C56FC0EF61
:1012500000F0C40E0001AE6F090EAF6F000EB06F4C
:10126000030EBB6FBC6B860EC36F000EC46F000E07
:101270004009C56FC0EF00F05250D8A49FEF09F0AD
:101280000001A2A348EF09F0F8EC05F00001A293D9
:10129000B59181B6B5815F51AC6F6051AD6F37ECE0
:1012A00002F00001AA6FAC515F6FAD51606F020E8A
:1012B000AA5DD8A45FEF09F0010E526EA283B5912A
:1012C00081B8B5816151AC6F6251AD6F37EC02F0FE
:1012D0000001AA6FAC51616FAD51626F020EAA5D41
:1012E000D8A476EF09F0020E526EA283B59181B4B4
:1012F000B5815D50AC6F5E50AD6F37EC02F0000110
:10130000AA6FAC515D6EAD515E6E020EAA5DD8A49F
:101310009FEF0CF0A2A190EF09F0A29191EF09F0DC
:10132000A281A283A2A199EF09F02FEC04F09FEF14
:101330000CF094EC03F08B948C9A9FEF0CF0520419
:10134000D8A432EF0AF00001A2A3ABEF09F02FEC12
:1013500008F00001A293B59181B4B5815D50AC6FE6
:101360005E50AD6F37EC02F00001AA6FAC515D6EBC
:10137000AD515E6E020EAA5DD8A4C4EF09F0030E53
:10138000526EA2839FEF0CF0B59181B6B5815F518B
:10139000AC6F6051AD6F37EC02F00001AA6FAC5139
:1013A0005F6FAD51606FAA51D8A4FBEF09F0582AC6
:1013B0003C0E585CD8B4E0EF09F0D8A0E4EF09F097
:1013C000586A592A9FEF0CF03B0E595CD8B4ECEFE9
:1013D00009F0D8A0F0EF09F0596A5A2A9FEF0CF0F3
:1013E000010E5A5CD8B4F9EF09F0D8A0F9EF09F072
:1013F0005A6A9FEF0CF0B59181B8B5816151AC6F1D
:101400006251AD6F37EC02F00001AA6FAC51616F11
:10141000AD51626FAA51D8A49FEF0CF058063C0E54
:10142000585CD8B417EF0AF0D8A01BEF0AF0586A3E
:1014300059069FEF0CF03B0E595CD8B423EF0AF02D
:10144000D8A027EF0AF0596A5A069FEF0CF0010E58
:101450005A5CD8B430EF0AF0D8A030EF0AF05A6ADC
:101460009FEF0CF0020E525CD8A4C2EF0AF000010C
:10147000A2A33FEF0AF0F7EC08F00001A293B591A8
:1014800081B4B5815D50AC6F5E50AD6F37EC02F04A
:101490000001AA6FAC515D6EAD515E6E020EAA5D89
:1014A000D8A457EF0AF0526AA2838FEF0AF0B591E1
:1014B00081B6B5815F51AC6F6051AD6F37EC02F012
:1014C0000001AA6FAC515F6FAD51606F020EAA5D53
:1014D000D8A474EF0AF0020E516EA2B12FEC04F002
:1014E0000001A2838FEF0AF0B59181B8B5816151F7
:1014F000AC6F6251AD6F37EC02F00001AA6FAC51D6
:10150000616FAD51626F020EAA5DD8A48FEF0AF031
:10151000040E516EA2B12FEC04F00001A283B5912C
:1015200081B4B5815D50AC6F5E50AD6F37EC02F0A9
:101530000001AA6FAC515D6EAD515E6E020EAA5DE8
:10154000A59BD8B4A58BB59181B6B5815F51AC6F21
:101550006051AD6F37EC02F00001AB6FAC515F6FC3
:10156000AD51606FAB51A58DD8A4A59DA58FA5BB2E
:10157000A5ADA59FA5AF9FEF0CF0040E526EA28300
:101580009FEF0CF0030E525CD8A4FFEF0AF00001AD
:10159000A2A3CFEF0AF08CEC08F00001A293B59162
:1015A00081B6B5815F51AC6F6051AD6F37EC02F021
:1015B0000001AA6FAC515F6FAD51606F020EAA5D62
:1015C000D8A4E6EF0AF0A285526AA283B59181B849
:1015D000B5816151AC6F6251AD6F37EC02F0000123
:1015E000AA6FAC51616FAD51626F020EAA5DD8A4B3
:1015F0009FEF0CF0A295526AA2839FEF0CF0040EAD
:10160000525CD8A43BEF0BF00001A2A30CEF0BF04F
:10161000B3EC06F00001A293B59181B8B581615198
:10162000AC6F6251AD6F37EC02F00001AA6FAC51A4
:10163000616FAD51626F020EAA5DD8A422EF0BF06C
:10164000526AA283B59181B6B5815F51AC6F60518A
:10165000AD6F37EC02F00001AA6FAC515F6FAD5176
:10166000606F020EAA5DD8A49FEF0CF0050E526EBB
:10167000A2839FEF0CF0050E525CD8A49FEF0CF0F4
:101680000001A2A348EF0BF022EC07F00001A293A7
:10169000A2876351D8A4CEEF0BF0B59181B6B58186
:1016A0005F51AC6F6051AD6F37EC02F00001AA6F73
:1016B000AC515F6FAD51606F020EAA5DD8A48CEF84
:1016C0000BF0A283640E4B26000E4C22000E4D221E
:1016D000000E4E22000E4A5CD8A47BEF0BF0000EE9
:1016E000495CD8A47BEF0BF0C30E485CD8A47BEF19
:1016F0000BF0500E475CD8B481EF0BF0D8A087EF09
:101700000BF0500E476EC30E486E496A4A6AA2A19A
:101710008CEF0BF02FEC04F00001B59181B8B5818E
:101720006151AC6F6251AD6F37EC02F00001AA6FEE
:10173000AC51616FAD51626F020EAA5DD8A44AEF41
:101740000CF0A2839C0E4B26FF0E4C22FF0E4D2266
:10175000FF0E4E22000E4A5CD8A4BBEF0BF0000E29
:10176000495CD8A4BBEF0BF0270E485CD8A4BBEFB4
:101770000BF0100E475CD8B4C1EF0BF0D8B0C7EF38
:101780000BF0100E476E270E486E496A4A6AA2A1F6
:101790004AEF0CF02FEC04F04AEF0CF0020E635D00
:1017A000D8A411EF0CF0B59181B6B5815F51AC6F43
:1017B0006051AD6F37EC02F00001AA6FAC515F6F62
:1017C000AD51606F020EAA5DD8A4F0EF0BF0A283BA
:1017D0004F2AD8B4502AA2A1F0EF0BF02FEC04F05E
:1017E0000001B59181B8B5816151AC6F6251AD6FA7
:1017F00037EC02F00001AA6FAC51616FAD51626F1E
:10180000020EAA5DD8A44AEF0CF0A2834F064F281F
:10181000D8B45006A2A14AEF0CF02FEC04F04AEF26
:101820000CF0030E635DD8A44AEF0CF0B59181B6BD
:10183000B5815F51AC6F6051AD6F37EC02F00001C4
:10184000AA6FAC515F6FAD51606F020EAA5DD8A454
:101850002FEF0CF02FEC04F00001A281A283B591D0
:1018600081B8B5816151AC6F6251AD6F37EC02F058
:101870000001AA6FAC51616FAD51626F020EAA5D9B
:10188000D8A44AEF0CF0A29194EC03F08B948C9ABC
:101890000001A2830001B59181B4B5815D50AC6FA8
:1018A0005E50AD6F37EC02F00001AA6FAC515D6E77
:1018B000AD515E6E020EAA5DD8A46AEF0CF0632BE8
:1018C000A283040E635DD8B46AEF0CF0D8A06AEF6F
:1018D0000CF0636B040E635DD8A49FEF0CF0B59120
:1018E00081B6B5815F51AC6F6051AD6F37EC02F0DE
:1018F0000001AA6FAC515F6FAD51606F020EAA5D1F
:10190000D8A487EF0CF0526A636BA297A283B591BB
:1019100081B8B5816151AC6F6251AD6F37EC02F0A7
:101920000001AA6FAC51616FAD51626F020EAA5DEA
:10193000D8A49FEF0CF0526A636BA297A28398EC35
:1019400005F03CEF09F0F2A4AEEF0CF0A2A5ADEF6C
:101950000CF0330E5526030E5622F294F2A2B5EF88
:101960000CF0F29E8A8EF292F28EF0A0BCEF0CF098
:10197000F29E8A9EF090F28E1850086E1950096EF1
:101980001A500A6E1B500B6E1C500C6E1D500D6EC3
:101990001E500E6E1F500F6E2050106E2150116E93
:1019A0002250126E2350136E2450146E2550156E63
:1019B0002650166E2750176E3450F66E3550F76E5F
:1019C0003650F86E3750F56E3250E96E3350EA6E8D
:0E19D00031502E6E2D502C6E2B502A6E1100B1
:020000040030CA
:0E000000240C391E008580000FC00FE00F4059
:00000001FF
