:020000040000FA
:04000000C3EF00F05A
:0800080000012A502B6E0001DB
:100010002C502D6E00012E50316E0001E950326ED1
:10002000EA50336E0001F650346EF750356EF850DA
:10003000366EF550376E00010850186E0950196E73
:100040000A501A6E0B501B6E0C501C6E0D501D6E1C
:100050000E501E6E0F501F6E1050206E1150216EEC
:100060001250226E1350236E1450246E1550256EBC
:100070001650266E1750276ED9EF0CF02054696584
:100080006D706F3A20003A003A00205469656D7037
:100090006F3A206F66662D3E2020487A25002D3E5F
:1000A000506F7765723A20002500467265713A20DC
:1000B0005068693A2000647574793A20506F77650A
:1000C00072207374617475733A202053616C697285
:1000D000203C2D00200E2A6E0C6A0D6A0E6A0F6AF3
:1000E000D8901436153616361736D8900836093695
:1000F0000A360B360C360D360E360F360F50135CA3
:10010000D8A48FEF00F00E50125CD8A48FEF00F04F
:100110000D50115CD8A48FEF00F00C50105CD8B4D7
:1001200095EF00F0D8B0A3EF00F0D8800C50105439
:100130000C6E0D5011540D6E0E5012540E6E0F5069
:1001400013540F6E14802A2E70EF00F0120030BE90
:10015000BDEF00F030BCB3EF00F02F50EA6E2E5030
:10016000E96EEF5012002E50F66E2F50F76E3050A1
:100170003F0BF86E0800F55012001200FB6E2F5076
:10018000FA6E2E50F96ED190C26A0F0EC16EC06A1F
:10019000070EB46E67EF02F0A551B16FA651B26FB2
:1001A000B151B56FB251B66FB46BEFEF00F0AD5116
:1001B000B4252E6E000E096EAE5109202F6EAF5180
:1001C0000920306EA7EC00F0086E00019A512E6EE7
:1001D0009B512F6E9C51BEEC00F00001B42BB4512A
:1001E000B55D086EB6510810D8A4D7EF00F0120024
:1001F000D8904336443645364636D8904334C16F9E
:100200004434C26F4534C36F4634C46FD890C1378D
:10021000C237C337C437C1514326C2514422C351E8
:100220004522C45146221200010E436E446A456ABB
:10023000466AB96BBA6B4650B85DD8A42CEF01F092
:100240004550B75DD8A42CEF01F04450B65DD8A45A
:100250002CEF01F04350B55DBC91D8A4D8B0BC815F
:10026000000EBA5DD8A437EF01F00A0EB95DBC9359
:10027000D8B43DEF01F0D8A0BC83BC85BCB1BCA311
:10028000BC95BCA54CEF01F0F8EC00F00001B92BD7
:10029000D8B4BA2B1BEF01F0B951BA11D8A454EF5E
:1002A00001F0010EB96FBA6BB907B929D8B4BA0712
:1002B000010E436E446A456A466AB951BD6FBA5130
:1002C000BE6FBF6BC06B6BEF01F0F8EC00F000018C
:1002D000BF2BD8B4C02BBF51BD5D086EC051BE5DF1
:1002E0000810D8A465EF01F0300EBB6FB851465C22
:1002F000D8A487EF01F0B751455CD8A487EF01F08F
:10030000B651445CD8A487EF01F0B551435CD8B432
:100310008DEF01F0D8B09DEF01F0D880B551435476
:10032000B56FB6514454B66FB7514554B76FB85115
:100330004654B86FBB2B76EF01F0BB51086EB1513C
:100340002E6EB2512F6EB351BEEC00F00001B951C8
:10035000BA11D8A454EF01F012009A51B16F9B5119
:10036000B26F9C51B36FA551B56FA651B66FA7512F
:10037000B76FA851B86F14EF01F0A56FA96FAA6B02
:10038000AB6BAC6B9A51B16F9B51B26F9C51B36F19
:10039000A951B56FAA51B66FAB51B76FAC51B86FD9
:1003A00014EF01F0406E4050D8B412004004D8A4BD
:1003B000E3EF01F000010A0E086E082EDDEF01F0F8
:1003C00000000000120040060001070E086E082E13
:1003D000E7EF01F000004050416E426AF7EF01F094
:1003E00000010E0E086E082EF3EF01F0422A425073
:1003F000415CD8A4F0EF01F0120096519D6F975127
:100400009E6FA56BA66B14EF02F00001090E086E3B
:10041000B70E096E092E0AEF02F0082E08EF02F05F
:100420000000A52BD8B4A62BA5519D5D086EA65142
:100430009E5D0810D8A405EF02F0120096519D6F42
:1004400097519E6FA56BA66B39EF02F00001110E5C
:10045000086E570E096E6F0E0A6E0A2E2DEF02F00F
:10046000092E2BEF02F0082E29EF02F0A52BD8B4AD
:10047000A62BA5519D5D086EA6519E5D0810D8A4BF
:1004800026EF02F012009693D8849FA14DEF02F060
:1004900096A14EEF02F04FEF02F096B1D894D8A497
:1004A00057EF02F0030E9611976F63EF02F0970774
:1004B0009751D8A463EF02F096919FB19681030EF5
:1004C0009611976F9683030E96159D6F1200949464
:1004D000959A8B948C9A9380938293889386938435
:1004E000939E0A0E966F976B1EEC02F00F0E0001A2
:1004F0008C1792800F0E8C15E0098C6F8C39086E6A
:100500000F0E08160F0E0814096EF00EC114091014
:10051000C16E946B9439086E300E0816CF0EC1145C
:100520000810C16EF80EC0140509C06EC70EC016C3
:10053000A80E476E610E486E496A4A6AA80E4B6E55
:10054000610E4C6E4D6A4E6A320E4F6E506A8C913F
:10055000516A0A0E526E536A546A556A8C838C959E
:10056000300E946F030E9411956F9451596E9551FE
:100570005A6E59505B6E5A505C6E300E946F030E7B
:100580009411956F9451596E95515A6E59505D6EF4
:100590005A505E6E300E946F030E9411956F945105
:1005A000596E95515A6E59505F6F5A50606F616B1A
:1005B0008C97386A010E396E7FEF03F0966F386AB8
:1005C000010E396E3804CB6E9605D8A4ECEF02F01C
:1005D000FC0ECA16CA841200040E965DD8A4F7EF6A
:1005E00002F0FC0ECA140109CA6ECA841200100E71
:1005F000965DD8A402EF03F0FC0ECA140209CA6E7D
:10060000CA841200CA9412009651106E9751116E4E
:100610009851126E9951136E086A2D0E096E310EA3
:100620000A6E010E0B6E6AEC00F014500001A56F0B
:100630001550A66FD890A631AE6FA531AD6FD8908A
:10064000AE33AD33CA6AAD51AE11B081D8B4B091FA
:10065000100EAE5DD8A42FEF03F0000EAD5DB09389
:10066000D8A4D8A0B083B085B0B1B0A3B095B0A5E0
:100670007EEF03F0010EAE5DD8A441EF03F0000E53
:10068000AD5DD8B447EF03F0D8B04FEF03F0AD51F4
:10069000386EAE51396EFC0ECA167BEF03F0040EB5
:1006A000AE5DD8A456EF03F0000EAD5DD8B45CEF9C
:1006B00003F0D8B06AEF03F0D890AE31396EAD31A7
:1006C000386ED89039323832FC0ECA140109CA6E1D
:1006D0007BEF03F0D890AE31396EAD31386E030E3A
:1006E000086ED89039323832082E71EF03F0FC0EC4
:1006F000CA140209CA6E3804CB6ECA841200626B37
:10070000636B0FEF04F0F00E000163150C09636FCB
:100710006251BE6E6351BD6E1200F00E0001631790
:100720006351BD6E1200030EB25DD8A49AEF03F0C0
:10073000FF0EB15DD8B4A4EF03F0D8A0A4EF03F08E
:10074000FF0EB16F030EB26FD890B231096EB131A6
:10075000086ED890093208320850626F030EB11546
:10076000086E0838096E300E0916CF0E6315091091
:10077000636F83EF03F00001966F9651D8A4C5EF25
:1007800003F09A6B9B6B01EF04F0640E965DD8B496
:10079000CDEF03F0D8A0D6EF03F039509B6F3804AB
:1007A0009A6F9A29D8B49B0701EF04F096519F6F76
:1007B000A06BD8903930A26F3830A16FD890A23397
:1007C000A1339F51A103F350A36FF450A46F9F5125
:1007D000A203F350A427A051A103F350A427190E9C
:1007E000106E116A126A136AA351086EA451096E41
:1007F0000A6A0B6A6AEC00F0145000019A6F1550F7
:100800009B6FD8909A359F6F9B35A06FD8909F377C
:10081000A0379F51B16FA051B26F93EF03F0010E5B
:10082000DEEC02F0A80E0001966F610E976F986BD8
:10083000996B04EC03F0320EBBEC03F08DEC03F08B
:1008400049EF04F08CA72DEF04F04B50476E4C504D
:10085000486E4D50496E4E504A6E4750966F485004
:10086000976F4950986F4A50996F04EC03F04F50BE
:10087000BBEC03F083EC03F0F00EBD140C09BD6E6D
:100880003F0EBD148009BD6E800EB7143209B76EDD
:100890001200D59AD596F80ED5140209D56ED58CCE
:1008A000F294959C959E959095929594959695EF3A
:1008B00004F03F6E3FB060EF04F08C9061EF04F005
:1008C0008C803FB267EF04F08C9268EF04F08C826A
:1008D0003FB46EEF04F08C946FEF04F08C843FB65D
:1008E00075EF04F08C9676EF04F08C868C8E000009
:1008F00000000000000000008C9E12003D6E3D389C
:100900000F0B3E6E59EC04F03D5059EC04F0040E10
:10091000D2EF01F03C6E8C8C3C507EEF04F0000175
:10092000A96F8C9CA9517EEF04F03A6AFAEF04F0AB
:10093000A56F040EA55DD8B4A1EF04F0D8A0A2EF76
:1009400004F0A56BA551D8B4000CA505D8B4400C93
:10095000020EA55DD8B4140C030EA55DD8B4540CDA
:100960001200800E3A10A56F8FEF04F008503B6E16
:100970008AEF04F09A6F98EC04F000019F6F9D518C
:100980009F253A6EB1EF04F0010E8FEC04F0B40E27
:10099000D2EF01F08C9C190E0001966F976BFDEC65
:1009A00001F0030E59EC04F0050E0001966F976BF1
:1009B000FDEC01F0030E59EC04F00A0ED2EC01F04C
:1009C000030E59EC04F0040ED2EC01F0020E59ECC7
:1009D00004F0040ED2EC01F0280E8FEC04F01C0E93
:1009E0008FEC04F00C0E8FEC04F0060E8FEC04F08C
:1009F000C4EF04F0CAEC04F04D0E0001646F690E00
:100A0000656F200E666F430E676F6F0E686F630E23
:100A1000696F690E6A6F6E0E6B6F610E6C6F200EE0
:100A20006D6F640E6E6F650E6F6F200E706F490EE6
:100A3000716F6E0E726F640E736F750E746F630E4E
:100A4000756F766F200E776FC4EC04F06C0E0001AA
:100A50009A6F090E9B6F000E9C6F140EA56FA66B0C
:100A6000640EAD6FAE6BAF6BCCEC00F00A0E000104
:100A7000966F976B1EEC02F0C4EC04F0F19CF19AB7
:100A8000F292F090F288F086F28E5FEF09F0120099
:100A9000120000018CA5A8EF05F05550585C9A9300
:100AA000D8B49A835250575C9A95D8B49A859A874D
:100AB0009AB39AA59A975150565C9A99D8B49A8944
:100AC0009A8B9AB79AA99A9B9ABB8C91030E545C05
:100AD000D8A46DEF05F0E80E535CD8B473EF05F0C1
:100AE000D8A089EF05F0E80E106E030E116E126AA1
:100AF000136A5350086E5450096E0A6A0B6A6AEC06
:100B000000F014500001966F51260C50536E0D509A
:100B1000546E3B0E515CD8B494EF05F0D8A094EF1E
:100B200005F0516A522A12003B0E525CD8B49FEF76
:100B300005F0D8A09FEF05F0526A552A1200020E68
:100B4000555CD8B4A8EF05F0D8A0A8EF05F0556A19
:100B50001200C4EC04F000019D6B000EBAEC04F02E
:100B600000018CA15AEF06F0200E646F410E656FF4
:100B7000500E666F410E676F470E686F410E696FCA
:100B8000520E6A6F200E6B6F6C6F540E6D6F490EB4
:100B90006E6F4D0E6F6F450E706F520E716F200E9F
:100BA000726F736F500E746F4F0E756F540E766FB9
:100BB000200E776F6C0E9A6F090E9B6F000E9C6F64
:100BC000140EA56FA66B640EAD6FAE6BAF6BCCEC65
:100BD00000F000019D6B010EBAEC04F000018CA541
:100BE00048EF06F06C0E9A6F090E9B6F000E9C6F1B
:100BF000090EA56FA66B7C0EAD6F000EAE6F000EDA
:100C00004009AF6FCCEC00F06C0E00019A6F090E3A
:100C10009B6F000E9C6F5550BDEC01F06C0E0001F7
:100C20009A6F090E9B6F000E9C6F010EA56FA66B4D
:100C3000860EAD6F000EAE6F000E4009AF6FCCECAC
:100C400000F06C0E00019A6F090E9B6F000E9C6FF6
:100C50005250BDEC01F06C0E00019A6F090E9B6FB3
:100C6000000E9C6F010EA56FA66B880EAD6F000E77
:100C7000AE6F000E4009AF6FCCEC00F06C0E0001BF
:100C80009A6F090E9B6F000E9C6F5150BDEF01F0E3
:100C90006C0E9A6F090E9B6F000E9C6F0C0EA56F69
:100CA000A66B8A0EAD6F000EAE6F000E4009AF6FDF
:100CB000CCEF00F0200E646F410E656F430E666F3F
:100CC000540E676F490E686F560E696F410E6A6F5A
:100CD000520E6B6F200E6C6F6D6F6E6F500E6F6FDC
:100CE0004F0E706F540E716F450E726F4E0E736F14
:100CF000430E746F490E756F410E766F200E776F3D
:100D0000200E786F796F7A6F7B6F7C6F7D6F7E6F4F
:100D1000540E7F6F490E806F4D0E816F450E826FAE
:100D2000520E836F200E846F856F866F876F886F7A
:100D3000896F8A6F8B6F6C0E9A6F090E9B6F000E16
:100D40009C6F140EA56FA66B640EAD6FAE6BAF6B90
:100D5000CCEC00F000019D6B010EBAEC04F06C0EBF
:100D600000019A6F090E9B6F000E9C6F140EA56F09
:100D7000A66B780EAD6FAE6BAF6BCCEF00F0450E8F
:100D8000646F6E0E656F740E666F720E676F610E24
:100D9000686F720E696F200E6A6F650E6B6F6E0E54
:100DA0006C6F200E6D6F6D0E6E6F6F0E6F6F640E39
:100DB000706F6F0E716F200E726F640E736F650E21
:100DC000746F620E756F750E766F670E776F200EFB
:100DD000786F796F7A6F7B6F7C6F7D6F7E6F530E4C
:100DE0007F6F490E806F200E816F826F836F846FDB
:100DF000856F866F4E0E876F4F0E886F200E896F3E
:100E00008A6F8B6FC4EC04F000019D6B000EBAEC8E
:100E100004F06C0E00019A6F090E9B6F000E9C6F20
:100E2000140EA56FA66B640EAD6FAE6BAF6BCCEC02
:100E300000F000019D6B010EBAEC04F06C0E000195
:100E40009A6F090E9B6F000E9C6F140EA56FA66B18
:100E5000780EAD6FAE6BAF6BCCEF00F0C4EC04F06E
:100E600000019D6B000EBAEC04F0040E0001615D00
:100E7000D8B433EF08F0D8B033EF08F0966B9D6B21
:100E80009651BAEC04F000019651615DD8A45DEF73
:100E900007F06C0E9A6F090E9B6F000E9C6F020E8E
:100EA000A56FA66B960EAD6F000EAE6F000E4009DB
:100EB000AF6FCCEC00F06FEF07F06C0E9A6F090E7D
:100EC0009B6F000E9C6F020EA56FA66B980EAD6F08
:100ED000000EAE6F000E4009AF6FCCEC00F00001C9
:100EE000962B040E965DD8A43FEF07F0020E9D6F7F
:100EF000000EBAEC04F06C0E00019A6F090E9B6FA5
:100F0000000E9C6F060EA56FA66BAA0EAD6F000EAD
:100F1000AE6F000E4009AF6FCCEC00F06C0E00011C
:100F20009A6F090E9B6F000E9C6F4B50A56F4C5033
:100F3000A66F4D50A76F4E50A86FADEC01F06C0E30
:100F400000019A6F090E9B6F000E9C6F020EA56F39
:100F5000A66B9A0EAD6F000EAE6F000E4009AF6F1C
:100F6000CCEC00F0020E00019D6F010EBAEC04F013
:100F70006C0E00019A6F090E9B6F000E9C6F050EA0
:100F8000A56FA66BB00EAD6F000EAE6F000E4009E0
:100F9000AF6FCCEC00F06C0E00019A6F090E9B6FE6
:100FA000000E9C6F6151BDEC01F0020E00019D6FBF
:100FB000020EBAEC04F06C0E00019A6F090E9B6FE2
:100FC000000E9C6F060EA56FA66BB60EAD6F000EE1
:100FD000AE6F000E4009AF6FCCEC00F06C0E00015C
:100FE0009A6F090E9B6F000E9C6F4F50A56FA66BFA
:100FF000A76BA86BADEC01F06C0E00019A6F090EA7
:101000009B6F000E9C6F010EA56FA66B9C0EAD6FC3
:10101000000EAE6F000E4009AF6FCCEC00F0020E78
:1010200000019D6F030EBAEC04F06C0E00019A6F84
:10103000090E9B6F000E9C6F0E0EA56FA66BBC0E6B
:10104000AD6F000EAE6F000E4009AF6FCCEC00F03C
:101050006C0E00019A6F090E9B6F000E9C6F8C51F5
:10106000010BBDEF01F0C4EC04F000019D6B000E1C
:10107000BAEC04F06C0E00019A6F090E9B6F000E23
:101080009C6F020EA56FA66B9E0EAD6F000EAE6F2D
:10109000000E4009AF6FCCEC00F06C0E00019A6FAF
:1010A000090E9B6F000E9C6F090EA56FA66BCA0EF2
:1010B000AD6F000EAE6F000E4009AF6FCCEF00F0C9
:1010C000200E646F540E656F490E666F4D0E676F8C
:1010D000450E686F520E696F200E6A6F6B6F6C6FF2
:1010E0006D6F6E6F6F6F706F716F726F736F746F04
:1010F000756F766F776FC4EC04F000019D6B000E86
:10110000BAEC04F06C0E00019A6F090E9B6F000E92
:101110009C6F140EA56FA66B640EAD6FAE6BAF6BBC
:10112000CCEC00F000019D6B010EBAEC04F06C0EEB
:1011300000019A6F090E9B6F000E9C6F5850BDEC1A
:1011400001F03A0E086EB6EC04F06C0E00019A6FD6
:10115000090E9B6F000E9C6F5750BDEC01F03A0ECC
:10116000086EB6EC04F06C0E00019A6F090E9B6FCE
:10117000000E9C6F5650BDEF01F0200E646F656F3E
:10118000666F410E676F630E686F740E696F690E4C
:101190006A6F760E6B6F610E6C6F720E6D6F200E44
:1011A0006E6F540E6F6F690E706F6D0E716F650EFE
:1011B000726F720E736F3F0E746F200E756F766FC5
:1011C000776F200E786F796F7A6F7B6F7C6F7D6F92
:1011D0007E6F530E7F6F490E806F200E816F826F7E
:1011E000836F846F856F866F4E0E876F4F0E886F8B
:1011F000200E896F8A6F8B6FC4EC04F000019D6B29
:10120000000EBAEC04F06C0E00019A6F090E9B6F91
:10121000000E9C6F140EA56FA66B640EAD6FAE6BC7
:10122000AF6BCCEC00F000019D6B010EBAEC04F04A
:101230006C0E00019A6F090E9B6F000E9C6F140ECE
:10124000A56FA66B780EAD6FAE6BAF6BCCEF00F0F9
:10125000C4EC04F000019D6B000EBAEC04F06C0EBF
:1012600000019A6F090E9B6F000E9C6F070EA56F11
:10127000A66BA00EAD6F000EAE6F000E4009AF6FF3
:10128000CCEC00F06C0E00019A6F090E9B6F000E03
:101290009C6F4F50BDEC01F06C0E00019A6F090E6F
:1012A0009B6F000E9C6F010EA56FA66BA80EAD6F15
:1012B000000EAE6F000E4009AF6FCCEF00F0505043
:1012C000D8A4C2EF09F000018CA36BEF09F0A9ECE0
:1012D00005F000018C939F9181B69F815D50966FC0
:1012E0005E50976F43EC02F00001946F96515D6E73
:1012F00097515E6E020E945DD8A482EF09F0010E44
:10130000506E8C839F9181B89F815F51966F605121
:10131000976F43EC02F00001946F96515F6F975105
:10132000606F020E945DD8A499EF09F0020E506E22
:101330008C839F9181B49F815B50966F5C50976FB7
:1013400043EC02F00001946F96515B6E97515C6E16
:10135000020E945DD8A4D5EF0CF08CA1B3EF09F088
:101360008C91B4EF09F08C818C838CA1BCEF09F0D7
:1013700022EC04F0D5EF0CF08DEC03F08B948C9AFA
:10138000D5EF0CF05004D8A457EF0AF000018CA35D
:10139000CEEF09F060EC08F000018C939F9181B4CE
:1013A0009F815B50966F5C50976F43EC02F0000199
:1013B000946F96515B6E97515C6E020E945DD8A44B
:1013C000E7EF09F0030E506E8C83D5EF0CF09F9180
:1013D00081B69F815D50966F5E50976F43EC02F02F
:1013E0000001946F96515D6E97515E6E9451D8A432
:1013F0001FEF0AF0562A3C0E565CD8B403EF0AF0F1
:10140000D8A007EF0AF0566A572A1CEF0AF03B0EE5
:10141000575CD8B40FEF0AF0D8A013EF0AF0576A60
:10142000582A1CEF0AF0010E585CD8B41CEF0AF0E1
:10143000D8A01CEF0AF0586A8C83D5EF0CF09F916E
:1014400081B89F815F51966F6051976F43EC02F0B6
:101450000001946F96515F6F9751606F9451D8A4BB
:1014600055EF0AF056063C0E565CD8B43BEF0AF036
:10147000D8A03FEF0AF0566A570654EF0AF03B0E29
:10148000575CD8B447EF0AF0D8A04BEF0AF0576A80
:10149000580654EF0AF0010E585CD8B454EF0AF025
:1014A000D8A054EF0AF0586A8C83D5EF0CF0020EE6
:1014B000505CD8A4F1EF0AF000018CA364EF0AF0AD
:1014C00028EC09F000018C939F9181B49F815B50BF
:1014D000966F5C50976F43EC02F00001946F965149
:1014E0005B6E97515C6E020E945DD8A47CEF0AF09F
:1014F000506A8C83BEEF0AF09F9181B69F815D5048
:10150000966F5E50976F43EC02F00001946F965116
:101510005D6E97515E6E020E945DD8A4A2EF0AF044
:101520004F2A640E4F5CD8B49BEF0AF0D8A09BEF13
:101530000AF0640E4F6E8CB122EC04F000018C8333
:10154000BEEF0AF09F9181B89F815F51966F605105
:10155000976F43EC02F00001946F96515F6F9751C3
:10156000606F020E945DD8A4BEEF0AF04F50D8A46D
:101570004F068CB122EC04F000018C839F9181B462
:101580009F815B50966F5C50976F43EC02F00001B7
:10159000946F96515B6E97515C6E020E945D8F9FB7
:1015A000D8B48F8F9F9181B69F815D50966F5E50AA
:1015B000976F43EC02F00001956F96515D6E975165
:1015C0005E6E95519081D8A4909190838FBF90A129
:1015D000909390A3D5EF0CF0040E506E8C83D5EF52
:1015E0000CF0030E505CD8A42EEF0BF000018CA37E
:1015F000FEEF0AF0BDEC08F000018C939F9181B6DC
:101600009F815D50966F5E50976F43EC02F0000132
:10161000946F96515D6E97515E6E020E945DD8A4E4
:1016200015EF0BF08C85506A8C839F9181B89F8158
:101630005F51966F6051976F43EC02F00001946F19
:1016400096515F6F9751606F020E945DD8A4D5EFED
:101650000CF08C95506A8C83D5EF0CF0040E505C26
:10166000D8A46AEF0BF000018CA33BEF0BF0BFECAA
:1016700006F000018C939F9181B89F815F51966F16
:101680006051976F43EC02F00001946F96515F6FC9
:101690009751606F020E945DD8A451EF0BF0506A21
:1016A0008C839F9181B69F815D50966F5E50976F3E
:1016B00043EC02F00001946F96515D6E97515E6E9F
:1016C000020E945DD8A4D5EF0CF0050E506E8C83FD
:1016D000D5EF0CF0050E505CD8A4D5EF0CF000014E
:1016E0008CA377EF0BF02EEC07F000018C938C8726
:1016F0006151D8A4FDEF0BF09F9181B69F815D50A1
:10170000966F5E50976F43EC02F00001946F965114
:101710005D6E97515E6E020E945DD8A4BBEF0BF028
:101720008C83640E4B26000E4C22000E4D22000EC0
:101730004E22000E4A5CD8A4AAEF0BF0000E495CC2
:10174000D8A4AAEF0BF0C30E485CD8A4AAEF0BF004
:10175000500E475CD8B4B0EF0BF0D8A0B6EF0BF04A
:10176000500E476EC30E486E496A4A6A8CA1BBEFA1
:101770000BF022EC04F000019F9181B89F815F5132
:10178000966F6051976F43EC02F00001946F965191
:101790005F6F9751606F020E945DD8A480EF0CF0DC
:1017A0008C839C0E4B26FF0E4C22FF0E4D22FF0E0B
:1017B0004E22000E4A5CD8A4EAEF0BF0000E495C02
:1017C000D8A4EAEF0BF0270E485CD8A4EAEF0BF0A0
:1017D000100E475CD8B4F0EF0BF0D8B0F6EF0BF07A
:1017E000100E476E270E486E496A4A6A8CA180EF38
:1017F0000CF022EC04F080EF0CF0020E615DD8A436
:1018000047EF0CF09F9181B69F815D50966F5E50BF
:10181000976F43EC02F00001946F96515D6E975103
:101820005E6E020E945DD8A427EF0CF08C834F2AD5
:10183000640E4F5CD8B422EF0CF0D8A022EF0CF06D
:10184000640E4F6E8CA127EF0CF022EC04F0000127
:101850009F9181B89F815F51966F6051976F43EC64
:1018600002F00001946F96515F6F9751606F020E06
:10187000945DD8A480EF0CF08C834F50D8A44F0611
:101880008CA180EF0CF022EC04F080EF0CF0030E42
:10189000615DD8A480EF0CF09F9181B69F815D506F
:1018A000966F5E50976F43EC02F00001946F965173
:1018B0005D6E97515E6E020E945DD8A465EF0CF0DC
:1018C00022EC04F000018C818C839F9181B89F8170
:1018D0005F51966F6051976F43EC02F00001946F77
:1018E00096515F6F9751606F020E945DD8A480EFA0
:1018F0000CF08C918DEC03F08B948C9A00018C830E
:1019000000019F9181B49F815B50966F5C50976FEF
:1019100043EC02F00001946F96515B6E97515C6E40
:10192000020E945DD8A4A0EF0CF0612B8C83040E02
:10193000615DD8B4A0EF0CF0D8A0A0EF0CF0616B03
:10194000040E615DD8A4D5EF0CF09F9181B69F8104
:101950005D50966F5E50976F43EC02F00001946FFC
:1019600096515D6E97515E6E020E945DD8A4BDEFE8
:101970000CF0506A616B8C978C839F9181B89F812A
:101980005F51966F6051976F43EC02F00001946FC6
:1019900096515F6F9751606F020E945DD8A4D5EF9A
:1019A0000CF0506A616B8C978C8349EC05F05FEF0B
:1019B00009F0F2A4E4EF0CF08CA5E3EF0CF0330E89
:1019C0005326030E5422F294F2A2EBEF0CF0F29E97
:1019D0008A8EF292F28EF0A0F2EF0CF0F29E8A9EC6
:1019E000F090F28E1850086E1950096E1A500A6E57
:1019F0001B500B6E1C500C6E1D500D6E1E500E6E4B
:101A00001F500F6E2050106E2150116E2250126E1A
:101A10002350136E2450146E2550156E2650166EEA
:101A20002750176E3450F66E3550F76E3650F86EFC
:101A30003750F56E3250E96E3350EA6E31502E6EEB
:0A1A40002D502C6E2B502A6E110061
:020000040030CA
:0E000000240C391E008580000FC00FE00F4059
:00000001FF
