:020000040000FA
:04000000B1EF00F06C
:0800080000012A502B6E0001DB
:100010002C502D6E00012E50316E0001E950326ED1
:10002000EA50336E0001F650346EF750356EF850DA
:10003000366EF550376E00010850186E0950196E73
:100040000A501A6E0B501B6E0C501C6E0D501D6E1C
:100050000E501E6E0F501F6E1050206E1150216EEC
:100060001250226E1350236E1450246E1550256EBC
:100070001650266E1750276E17EF0CF020202D3EDD
:100080003530250032352500506F7765723A2000F3
:10009000467265713A205068693A20006475747937
:1000A0003A20506F776572207374617475733A20CB
:1000B000200E2A6E0C6A0D6A0E6A0F6AD8901436EA
:1000C000153616361736D890083609360A360B36E6
:1000D0000C360D360E360F360F50135CD8A47DEF5C
:1000E00000F00E50125CD8A47DEF00F00D50115CB2
:1000F000D8A47DEF00F00C50105CD8B483EF00F072
:10010000D8B091EF00F0D8800C5010540C6E0D5008
:1001100011540D6E0E5012540E6E0F5013540F6E7C
:1001200014802A2E5EEF00F0120030BEABEF00F01C
:1001300030BCA1EF00F02F50EA6E2E50E96EEF5068
:1001400012002E50F66E2F50F76E30503F0BF86EA7
:100150000800F55012001200FB6E2F50FA6E2E5060
:10016000F96ED190C26A0F0EC16EC06A070EB46EEE
:1001700055EF02F0B951C86FBA51C96FC851CC6F71
:10018000C951CD6FCB6BDDEF00F0C151CB252E6E89
:10019000000E096EC25109202F6EC3510920306E26
:1001A00095EC00F0086E0001AD512E6EAE512F6E31
:1001B000AF51ACEC00F00001CB2BCB51CC5D086E05
:1001C000CD510810D8A4C5EF00F01200D8904336E6
:1001D000443645364636D8904334D86F4434D96FC8
:1001E0004534DA6F4634DB6FD890D837D937DA37F1
:1001F000DB37D8514326D9514422DA514522DB510D
:1002000046221200010E436E446A456A466AD06B6C
:10021000D16B4650CF5DD8A41AEF01F04550CE5DAA
:10022000D8A41AEF01F04450CD5DD8A41AEF01F024
:100230004350CC5DD391D8A4D8B0D381000ED15D0A
:10024000D8A425EF01F00A0ED05DD393D8B42BEFDC
:1002500001F0D8A0D383D385D3B1D3A3D395D3A5AD
:100260003AEF01F0E6EC00F00001D02BD8B4D12B2E
:1002700009EF01F0D051D111D8A442EF01F0010EE5
:10028000D06FD16BD007D029D8B4D107010E436EFF
:10029000446A456A466AD051D46FD151D56FD66B46
:1002A000D76B59EF01F0E6EC00F00001D62BD8B483
:1002B000D72BD651D45D086ED751D55D0810D8A480
:1002C00053EF01F0300ED26FCF51465CD8A475EFDA
:1002D00001F0CE51455CD8A475EF01F0CD51445CDE
:1002E000D8A475EF01F0CC51435CD8B47BEF01F09A
:1002F000D8B08BEF01F0D880CC514354CC6FCD51A6
:100300004454CD6FCE514554CE6FCF514654CF6F2C
:10031000D22B64EF01F0D251086EC8512E6EC95134
:100320002F6ECA51ACEC00F00001D051D111D8A40D
:1003300042EF01F01200AD51C86FAE51C96FAF511D
:10034000CA6FB951CC6FBA51CD6FBB51CE6FBC5192
:10035000CF6F02EF01F0B96FBD6FBE6BBF6BC06BAB
:10036000AD51C86FAE51C96FAF51CA6FBD51CC6F9F
:10037000BE51CD6FBF51CE6FC051CF6F02EF01F0B4
:10038000406E4050D8B412004004D8A4D1EF01F020
:1003900000010A0E086E082ECBEF01F000000000ED
:1003A000120040060001070E086E082ED5EF01F07E
:1003B00000004050416E426AE5EF01F000010E0E70
:1003C000086E082EE1EF01F0422A4250415CD8A4A9
:1003D000DEEF01F01200A951AD6FAA51AE6FB76BFD
:1003E000B86B02EF02F00001090E086EB70E096E3D
:1003F000092EF8EF01F0082EF6EF01F00000B72B00
:10040000D8B4B82BB751AD5D086EB851AE5D0810C9
:10041000D8A4F3EF01F01200A951AD6FAA51AE6F4D
:10042000B76BB86B27EF02F00001110E086E570E84
:10043000096E6F0E0A6E0A2E1BEF02F0092E19EFDD
:1004400002F0082E17EF02F0B72BD8B4B82BB75133
:10045000AD5D086EB851AE5D0810D8A414EF02F07F
:100460001200A993D884B1A13BEF02F0A9A13CEFFF
:1004700002F03DEF02F0A9B1D894D8A445EF02F004
:10048000030EA911AA6F51EF02F0AA07AA51D8A42E
:1004900051EF02F0A991B1B1A981030EA911AA6F80
:1004A000A983030EA915AD6F12009494959A8B94AD
:1004B0008C9A93809382938893869384939E0A0E5A
:1004C000A96FAA6B0CEC02F00F0E00019F1792802F
:1004D0000F0E9F15E0099F6F9F39086E0F0E0816CB
:1004E0000F0E0814096EF00EC1140910C16EA76B2F
:1004F000A739086E300E0816CF0EC1140810C16E51
:10050000F80EC0140509C06EC70EC016500E476E17
:10051000C30E486E496A4A6A020E4D6E4E6A050E57
:100520004F6E9F919F839F95300EA76F030EA7116B
:10053000A86FA751586EA851596E58505A6E59500D
:100540005B6E300EA76F030EA711A86FA751586EF0
:10055000A851596E58505C6E59505D6E300EA76FA1
:10056000030EA711A86FA751586EA851596E585085
:100570005E6E59505F6E606B9F97386A010E396EE0
:1005800076EF03F0D8903834AD6F3934AE6FD89031
:10059000AD37AE37030EAD25AF6F000EAE21B06F95
:1005A000AF51086EB051096E1200A96F386A010E82
:1005B000396E3804CB6EA905D8A4E3EF02F0FC0E27
:1005C000CA16CA841200040EA95DD8A4EEEF02F088
:1005D000FC0ECA140109CA6ECA841200100EA95D6D
:1005E000D8A4F9EF02F0FC0ECA140209CA6ECA843C
:1005F0001200CA941200AD51106EAE51116EAF517F
:10060000126EB051136E086A2D0E096E310E0A6E0D
:10061000010E0B6E58EC00F014500001BD6F155028
:10062000BE6FD890BE31C56FBD31C46FD890C53391
:10063000C433CA6AC451C511C881D8B4C891100E58
:10064000C55DD8A426EF03F0000EC45DC893D8A4FE
:10065000D8A0C883C885C8B1C8A3C895C8A575EF78
:1006600003F0010EC55DD8A438EF03F0000EC45DA1
:10067000D8B43EEF03F0D8B046EF03F0C451386E63
:10068000C551396EFC0ECA1672EF03F0040EC55D3B
:10069000D8A44DEF03F0000EC45DD8B453EF03F0BF
:1006A000D8B061EF03F0D890C531396EC431386EDF
:1006B000D89039323832FC0ECA140109CA6E72EF72
:1006C00003F0D890C531396EC431386E030E086E10
:1006D000D89039323832082E68EF03F0FC0ECA1475
:1006E0000209CA6E3804CB6ECA841200616B626B59
:1006F0000CEF04F0F00E000162150C09626F6151FD
:10070000BE6E6251BD6E1200F00E000162176251A2
:10071000BD6E1200030EC75DD8A491EF03F0FF0E6B
:10072000C65DD8B49BEF03F0D8A09BEF03F0FF0E9B
:10073000C66F030EC76FD890C731096EC631086EF9
:10074000D890093208320850616F030EC615086E42
:100750000838096E300E0916CF0E62150910626F47
:100760007AEF03F0AD51C66FAE51C76F8AEF03F059
:100770000001A96FA951D8A4C2EF03F0AB6BAC6B19
:10078000FEEF03F0640EA95DD8B4CAEF03F0D8A061
:10079000D3EF03F03950AC6F3804AB6FAB29D8B44A
:1007A000AC07FEEF03F0A951B16FB26BD8903930AE
:1007B000B46F3830B36FD890B433B333B151B3039F
:1007C000F350B56FF450B66FB151B403F350B62780
:1007D000B251B303F350B627190E106E116A126AA4
:1007E000136AB551086EB651096E0A6A0B6A58EC65
:1007F00000F014500001AB6F1550AC6FD890AB35C2
:10080000B16FAC35B26FD890B137B237B151C66F56
:10081000B251C76F8AEF03F0010ED5EC02F0A80EBB
:100820000001AD6F610EAE6FAF6BB06BFBEC02F011
:10083000320EB8EC03F084EC03F058EF04F0C2EC95
:1008400002F008500001A96F0950AA6F4D50106EB8
:10085000116A126A136AA951086EAA51096E0A6ACE
:100860000B6A58EC00F014504B6E15504C6E47500C
:100870000001AD6F4850AE6F4950AF6F4A50B06F36
:10088000FBEC02F04B500001AD6F4C50AE6FB2EC80
:1008900003F07AEC03F0F00EBD140C09BD6E3F0EB0
:1008A000BD148009BD6E800EB7140F09B76E12001B
:1008B000D59AD596F80ED5140209D56ED58CF2943A
:1008C000959C959E9590959295949596A4EF04F09D
:1008D0003F6E3FB06FEF04F08C9070EF04F08C80AF
:1008E0003FB276EF04F08C9277EF04F08C823FB445
:1008F0007DEF04F08C947EEF04F08C843FB684EF9F
:1009000004F08C9685EF04F08C868C8E000000003D
:100910000000000000008C9E12003D6E3D380F0B61
:100920003E6E68EC04F03D5068EC04F0040EC0EF3D
:1009300001F03C6E8C8C3C508DEF04F00001BD6FDB
:100940008C9CBD518DEF04F03A6A09EF05F0B96F48
:10095000040EB95DD8B4B0EF04F0D8A0B1EF04F044
:10096000B96BB951D8B4000CB905D8B4400C020E1B
:10097000B95DD8B4140C030EB95DD8B4540C120090
:10098000800E3A10B96F9EEF04F008503B6E99EF5D
:1009900004F0AD6FA7EC04F00001B76FB151B725BB
:1009A0003A6EC0EF04F0010E9EEC04F0B40EC0EFFE
:1009B00001F08C9C190E0001A96FAA6BEBEC01F001
:1009C000030E68EC04F0050E0001A96FAA6BEBECB6
:1009D00001F0030E68EC04F00A0EC0EC01F0030E07
:1009E00068EC04F0040EC0EC01F0020E68EC04F0B8
:1009F000040EC0EC01F0280E9EEC04F01C0E9EECE0
:100A000004F00C0E9EEC04F0060E9EEC04F0D3EF06
:100A100004F0D9EC04F04D0E0001636F690E646FB1
:100A2000200E656F430E666F6F0E676F630E686F03
:100A3000690E696F6E0E6A6F610E6B6F200E6C6FC0
:100A4000640E6D6F650E6E6F200E6F6F490E706FC6
:100A50006E0E716F640E726F750E736F630E746F2E
:100A6000756F200E766F200E8B6F540E8C6F690E93
:100A70008D6F650E8E6F6D0E8F6F700E906F6F0E97
:100A8000916F3A0E926F200E936F300E946F956FA8
:100A90003A0E966F300E976F986F3A0E996F300E30
:100AA0009A6F9B6F200E9C6F9D6F9E6FD3EC04F02E
:100AB0008A0E0001AD6F090EAE6F000EAF6F140EFF
:100AC000B96FBA6B630EC16FC26BC36BBAEC00F047
:100AD0000A0E0001A96FAA6B0CEC02F0D3EC04F033
:100AE000F19CF19AF292F090F288F086F28EE2EFA9
:100AF00008F01200120000019FA5DAEF05F0545033
:100B0000575CAB93D8B4AB835150565CAB95D8B41B
:100B1000AB85AB87ABB3ABA5AB975050555CAB99EE
:100B2000D8B4AB89AB8BABB7ABA9AB9BABBB9F913D
:100B3000030E535CD8A49FEF05F0E80E525CD8B4C6
:100B4000A5EF05F0D8A0BBEF05F0E80E106E030E80
:100B5000116E126A136A5250086E5350096E0A6A77
:100B60000B6A58EC00F014500001A96F50260C508D
:100B7000526E0D50536E3B0E505CD8B4C6EF05F06C
:100B8000D8A0C6EF05F0506A512A12003B0E515C06
:100B9000D8B4D1EF05F0D8A0D1EF05F0516A542AAE
:100BA0001200020E545CD8B4DAEF05F0D8A0DAEFE8
:100BB00005F0546A12009FA12EEF06F0200E636F1D
:100BC000410E646F500E656F410E666F470E676F82
:100BD000410E686F520E696F200E6A6F6B6F540E74
:100BE0006C6F490E6D6F4D0E6E6F450E6F6F520E2E
:100BF000706F200E716F726F500E736F4F0E746FA7
:100C0000540E756F200E766F8B51776F8C51786F05
:100C10008D51796F8E517A6F8F517B6F90517C6FB0
:100C200091517D6F92517E6F93517F6F9451806F80
:100C30009551816F9651826F9751836F9851846F50
:100C40009951856F9A51866F9B51876F9C51886F20
:100C50009D51896F9E518A6F6FEF06F0200E636F72
:100C6000410E646F430E656F540E666F490E676FD9
:100C7000560E686F410E696F520E6A6F200E6B6FD1
:100C80006C6F6D6F500E6E6F4F0E6F6F540E706FF6
:100C9000450E716F4E0E726F430E736F490E746F77
:100CA000410E756F200E766F200E776F786F796F1B
:100CB0007A6F7B6F7C6F7D6F540E7E6F490E7F6FF6
:100CC0004D0E806F450E816F520E826F200E836F26
:100CD000846F856F866F876F886F896F8A6FD3EC9B
:100CE00004F08A0E0001AD6F090EAE6F000EAF6FFB
:100CF000140EB96FBA6B630EC16FC26BC36BBAECE3
:100D000000F00001B16B010EC9EC04F08A0E000185
:100D1000AD6F090EAE6F000EAF6F140EB96FBA6BE8
:100D2000770EC16FC26BC36BBAEF00F0450E636FF5
:100D30006E0E646F740E656F720E666F610E676F74
:100D4000720E686F200E696F650E6A6F6E0E6B6FA4
:100D5000200E6C6F6D0E6D6F6F0E6E6F640E6F6F89
:100D60006F0E706F200E716F640E726F650E736F71
:100D7000620E746F750E756F670E766F200E776F4B
:100D8000786F796F7A6F7B6F7C6F7D6F530E7E6F9C
:100D9000490E7F6F200E806F816F826F836F846F2B
:100DA000856F4E0E866F4F0E876F200E886F896F8E
:100DB0008A6FD3EC04F00001B16B000EC9EC04F0B3
:100DC0008A0E0001AD6F090EAE6F000EAF6F140EEC
:100DD000B96FBA6B630EC16FC26BC36BBAEC00F034
:100DE0000001B16B010EC9EC04F08A0E0001AD6F79
:100DF000090EAE6F000EAF6F140EB96FBA6B770E9F
:100E0000C16FC26BC36BBAEF00F0D3EC04F000010A
:100E1000B16B000EC9EC04F000016051AB6FA96B1F
:100E20002BEF07F0B16BA951C9EC04F08A0E000159
:100E3000AD6F090EAE6F000EAF6F020EB96FBA6BD9
:100E40007C0EC16F000EC26F000E4009C36FBAEC7A
:100E500000F00001A92BA951AB5DD8A412EF07F057
:100E60008A0EAD6F090EAE6F000EAF6F020EB96F36
:100E7000BA6B7E0EC16F000EC26F000E4009C36FC9
:100E8000BAEC00F08A0E0001AD6F090EAE6F000ED5
:100E9000AF6F060EB96FBA6B900EC16F000EC26FC6
:100EA000000E4009C36FBAEC00F08A0E0001AD6F6E
:100EB000090EAE6F000EAF6F4750B96F4850BA6F52
:100EC0004950BB6F4A50BC6F9BEC01F0020E000111
:100ED000B16F010EC9EC04F08A0E0001AD6F090E6E
:100EE000AE6F000EAF6F050EB96FBA6B960EC16F85
:100EF000000EC26F000E4009C36FBAEC00F08A0EFC
:100F00000001AD6F090EAE6F000EAF6F4E50ABEC2F
:100F100001F0020E0001B16F020EC9EC04F08A0E5E
:100F20000001AD6F090EAE6F000EAF6F060EB96F08
:100F3000BA6B9C0EC16F000EC26F000E4009C36FEA
:100F4000BAEC00F08A0E0001AD6F090EAE6F000E14
:100F5000AF6F4B50B96F4C50BA6FBB6BBC6B9BEC17
:100F600001F0020E0001B16F030EC9EC04F08A0E0D
:100F70000001AD6F090EAE6F000EAF6F0E0EB96FB0
:100F8000BA6BA20EC16F000EC26F000E4009C36F94
:100F9000BAEC00F08A0E0001AD6F090EAE6F000EC4
:100FA000AF6F9F51010BABEF01F0200E636F540E3A
:100FB000646F490E656F4D0E666F450E676F520E7A
:100FC000686F200E696F6A6F6B6F6C6F6D6F6E6FFD
:100FD0006F6F706F716F726F736F746F756F766F05
:100FE000D3EC04F00001B16B000EC9EC04F08A0EE2
:100FF0000001AD6F090EAE6F000EAF6F140EB96F2A
:10100000BA6B630EC16FC26BC36BBAEC00F0000128
:10101000B16B010EC9EC04F08A0E0001AD6F090E30
:10102000AE6F000EAF6F5750ABEC01F03A0E086E8A
:10103000C5EC04F08A0E0001AD6F090EAE6F000E14
:10104000AF6F5650ABEC01F03A0E086EC5EC04F0F1
:101050008A0E0001AD6F090EAE6F000EAF6F5550D6
:10106000ABEF01F0200E636F646F656F410E666F2A
:10107000630E676F740E686F690E696F760E6A6F24
:10108000610E6B6F720E6C6F200E6D6F540E6E6F73
:10109000690E6F6F6D0E706F650E716F720E726FED
:1010A0003F0E736F200E746F756F766F200E776F23
:1010B000786F796F7A6F7B6F7C6F7D6F530E7E6F69
:1010C000490E7F6F200E806F816F826F836F846FF8
:1010D000856F4E0E866F4F0E876F200E886F896F5B
:1010E0008A6FD3EC04F00001B16B000EC9EC04F080
:1010F0008A0E0001AD6F090EAE6F000EAF6F140EB9
:10110000B96FBA6B630EC16FC26BC36BBAEC00F000
:101110000001B16B010EC9EC04F08A0E0001AD6F45
:10112000090EAE6F000EAF6F140EB96FBA6B770E6B
:10113000C16FC26BC36BBAEF00F0D3EC04F00001D7
:10114000B16B000EC9EC04F08A0E0001AD6F090E00
:10115000AE6F000EAF6F070EB96FBA6B880EC16F1E
:10116000000EC26F000E4009C36FBAEC00F0020E11
:101170004D5CD8A4CFEF08F08A0E0001AD6F090EC8
:10118000AE6F000EAF6F030EB96FBA6B800EC16FFA
:10119000000EC26F000E4009C36FBAEF00F08A0E56
:1011A0000001AD6F090EAE6F000EAF6F030EB96F89
:1011B000BA6B840EC16F000EC26F000E4009C36F80
:1011C000BAEF00F04F50D8A445EF09F000019FA3FB
:1011D000EEEF08F0DBEC05F000019F93B19181B6D2
:1011E000B1815C50A96F5D50AA6F31EC02F0000133
:1011F000A76FA9515C6EAA515D6E020EA75DD8A4BF
:1012000005EF09F0010E4F6E9F83B19181B8B18156
:101210005E50A96F5F50AA6F31EC02F00001A76F1A
:10122000A9515E6EAA515F6E020EA75DD8A41CEF95
:1012300009F0020E4F6E9F83B19181B4B1815A5073
:10124000A96F5B50AA6F31EC02F00001A76FA951A2
:101250005A6EAA515B6E020EA75DD8A413EF0CF074
:101260009FA136EF09F09F9137EF09F09F819F838F
:101270009FA13FEF09F01FEC04F013EF0CF084EC9A
:1012800003F08B948C9A13EF0CF04F04D8A4D8EF92
:1012900009F000019FA351EF09F0D5EC07F0000120
:1012A0009F93B19181B4B1815A50A96F5B50AA6FDD
:1012B00031EC02F00001A76FA9515A6EAA515B6E82
:1012C000020EA75DD8A46AEF09F0030E4F6E9F834C
:1012D00013EF0CF0B19181B6B1815C50A96F5D50F4
:1012E000AA6F31EC02F00001A76FA9515C6EAA5100
:1012F0005D6EA751D8A4A1EF09F0552A3C0E555CAC
:10130000D8B486EF09F0D8A08AEF09F0556A562ABA
:1013100013EF0CF03B0E565CD8B492EF09F0D8A056
:1013200096EF09F0566A572A13EF0CF0010E575C3E
:10133000D8B49FEF09F0D8A09FEF09F0576A13EFD8
:101340000CF0B19181B8B1815E50A96F5F50AA6F66
:1013500031EC02F00001A76FA9515E6EAA515F6ED9
:10136000A751D8A413EF0CF055063C0E555CD8B429
:10137000BDEF09F0D8A0C1EF09F0556A560613EF8A
:101380000CF03B0E565CD8B4C9EF09F0D8A0CDEFF5
:1013900009F0566A570613EF0CF0010E575CD8B4EB
:1013A000D6EF09F0D8A0D6EF09F0576A13EF0CF08A
:1013B000020E4F5CD8A468EF0AF000019FA3E5EF8E
:1013C00009F09DEC08F000019F93B19181B4B181C7
:1013D0005A50A96F5B50AA6F31EC02F00001A76F61
:1013E000A9515A6EAA515B6E020EA75DD8A4FDEFFB
:1013F00009F04F6A9F8335EF0AF0B19181B6B18150
:101400005C50A96F5D50AA6F31EC02F00001A76F2C
:10141000A9515C6EAA515D6E020EA75DD8A41AEFA9
:101420000AF0020E4D6E9FB11FEC04F000019F8385
:1014300035EF0AF0B19181B8B1815E50A96F5F506C
:10144000AA6F31EC02F00001A76FA9515E6EAA519C
:101450005F6E020EA75DD8A435EF0AF0040E4D6E44
:101460009FB11FEC04F000019F83B19181B4B18161
:101470005A50A96F5B50AA6F31EC02F00001A76FC0
:10148000A9515A6EAA515B6E020EA75DA29BD8B4F9
:10149000A28BB19181B6B1815C50A96F5D50AA6FEA
:1014A00031EC02F00001A86FA9515C6EAA515D6E8B
:1014B000A851A28DD8A4A29DA28FA2BBA2ADA29F2B
:1014C000A2AF13EF0CF0040E4F6E9F8313EF0CF0DE
:1014D000030E4F5CD8A4A5EF0AF000019FA375EF9F
:1014E0000AF032EC08F000019F93B19181B6B1810E
:1014F0005C50A96F5D50AA6F31EC02F00001A76F3C
:10150000A9515C6EAA515D6E020EA75DD8A48CEF46
:101510000AF09F854F6A9F83B19181B8B1815E5077
:10152000A96F5F50AA6F31EC02F00001A76FA951BB
:101530005E6EAA515F6E020EA75DD8A413EF0CF089
:101540009F954F6A9F8313EF0CF0040E4F5CD8A455
:10155000E1EF0AF000019FA3B2EF0AF096EC06F06B
:1015600000019F93B19181B8B1815E50A96F5F5026
:10157000AA6F31EC02F00001A76FA9515E6EAA516B
:101580005F6E020EA75DD8A4C8EF0AF04F6A9F8372
:10159000B19181B6B1815C50A96F5D50AA6F31ECF9
:1015A00002F00001A76FA9515C6EAA515D6E020E98
:1015B000A75DD8A413EF0CF0050E4F6E9F8313EFB9
:1015C0000CF0050E4F5CD8A413EF0CF000019FA3A4
:1015D000EEEF0AF005EC07F000019F936051D8A4EC
:1015E00068EF0BF0B19181B6B1815C50A96F5D508D
:1015F000AA6F31EC02F00001A76FA9515C6EAA51ED
:101600005D6E020EA75DD8A42CEF0BF09F83F40E45
:101610004726010E4822000E4922000E4A22000EE3
:101620004A5CD8A420EF0BF0000E495CD8A420EF50
:101630000BF0C30E485CD8A420EF0BF0500E475CB3
:10164000D8B426EF0BF0D8A02CEF0BF0500E476E5D
:10165000C30E486E496A4A6AB19181B6B1815C5045
:10166000A96F5D50AA6F31EC02F00001A76FA9517C
:101670005C6EAA515D6E020EA75DD8A4D2EF0BF08E
:101680009F830C0E4726FE0E4822FF0E4922FF0EB6
:101690004A22000E4A5CD8A45AEF0BF0000E495CB7
:1016A000D8A45AEF0BF0270E485CD8A45AEF0BF0E1
:1016B000100E475CD8B460EF0BF0D8B0D2EF0BF04F
:1016C000100E476E270E486E496A4A6AD2EF0BF039
:1016D000020E605DD8A4A0EF0BF0B19181B6B1818C
:1016E0005C50A96F5D50AA6F31EC02F00001A76F4A
:1016F000A9515C6EAA515D6E020EA75DD8A485EF5C
:101700000BF09F834B2AD8B44C2AB19181B6B1819A
:101710005C50A96F5D50AA6F31EC02F00001A76F19
:10172000A9515C6EAA515D6E020EA75DD8A4D2EFDE
:101730000BF09F834B064B28D8B44C06D2EF0BF02E
:10174000030E605DD8A4D2EF0BF0B19181B6B181E8
:101750005C50A96F5D50AA6F31EC02F00001A76FD9
:10176000A9515C6EAA515D6E020EA75DD8B41FEC44
:1017700004F00001B19181B6B1815C50A96F5D5058
:10178000AA6F31EC02F00001A76FA9515C6EAA515B
:101790005D6E020EA75DD8A4D2EF0BF084EC03F0CF
:1017A0008B948C9A0001B19181B4B1815A50A96F88
:1017B0005B50AA6F31EC02F00001A76FA9515A6E7D
:1017C000AA515B6EA751D8A4F2EF0BF0602B9F8358
:1017D0009F87030E605DD8B4F1EF0BF0D8A0F2EF55
:1017E0000BF0606BB19181B4B1815A50A96F5B501D
:1017F000AA6F31EC02F00001A76FA9515A6EAA51ED
:101800005B6E030EA75DA59FD8B4A58FA6919FB769
:10181000A681A683A5BFA6A1A693A6A313EF0CF04D
:101820004F6A9F839F977BEC05F0E2EF08F0F2A4EC
:1018300022EF0CF09FA521EF0CF0330E5226030E81
:101840005322F294F2A229EF0CF0F29E8A8EF292C9
:10185000F28EF0A030EF0CF0F29E8A9EF090F28EA5
:101860001850086E1950096E1A500A6E1B500B6EF4
:101870001C500C6E1D500D6E1E500E6E1F500F6EC4
:101880002050106E2150116E2250126E2350136E94
:101890002450146E2550156E2650166E2750176E64
:1018A0003450F66E3550F76E3650F86E3750F56E90
:1018B0003250E96E3350EA6E31502E6E2D502C6E40
:0618C0002B502A6E1100FE
:020000040030CA
:0E000000240C391E008580000FC00FE00F4059
:00000001FF
