:020000040000FA
:040000009FEF00F07E
:0800080000012A502B6E0001DB
:100010002C502D6E00012E50316E0001E950326ED1
:10002000EA50336E0001F650346EF750356EF850DA
:10003000366EF550376E00010850186E0950196E73
:100040000A501A6E0B501B6E0C501C6E0D501D6E1C
:100050000E501E6E0F501F6E1050206E1150216EEC
:100060001250226E1350236E1450246E1550256EBC
:100070001650266E1750276E79EF08F035302500A0
:1000800032352500506F7765723A2000200E2A6EB7
:100090000C6A0D6A0E6A0F6AD89014361536163639
:1000A0001736D890083609360A360B360C360D3618
:1000B0000E360F360F50135CD8A46BEF00F00E50C5
:1000C000125CD8A46BEF00F00D50115CD8A46BEF5C
:1000D00000F00C50105CD8B471EF00F0D8B07FEF96
:1000E00000F0D8800C5010540C6E0D5011540D6E51
:1000F0000E5012540E6E0F5013540F6E14802A2E91
:100100004CEF00F0120030BE99EF00F030BC8FEFE2
:1001100000F02F50EA6E2E50E96EEF5012002E5074
:10012000F66E2F50F76E30503F0BF86E0800F5500A
:1001300012001200FB6E2F50FA6E2E50F96ED19005
:10014000C26A0F0EC16EC06A070EB46E2FEF02F0C6
:100150008951986F8A51996F98519E6F99519F6FED
:100160009D6BCBEF00F093519D252E6E000E096E16
:10017000945109202F6E95510920306E83EC00F0C8
:10018000086E000180512E6E81512F6E82519AECC3
:1001900000F000019D2B9D519E5D086E9F5108103F
:1001A000D8A4B3EF00F01200D89043364436453659
:1001B0004636D8904334AA6F4434AB6F4534AC6FA5
:1001C0004634AD6FD890AA37AB37AC37AD37AA51AC
:1001D0004326AB514422AC514522AD514622120078
:1001E000010E436E446A456A466AA26BA36B465091
:1001F000A15DD8A408EF01F04550A05DD8A408EF98
:1002000001F044509F5DD8A408EF01F043509E5D7B
:10021000A591D8A4D8B0A581000EA35DD8A413EFF2
:1002200001F00A0EA25DA593D8B419EF01F0D8A091
:10023000A583A585A5B1A5A3A595A5A528EF01F042
:10024000D4EC00F00001A22BD8B4A32BF7EF00F000
:10025000A251A311D8A430EF01F0010EA26FA36B3D
:10026000A207A229D8B4A307010E436E446A456AC7
:10027000466AA251A66FA351A76FA86BA96B47EF5F
:1002800001F0D4EC00F00001A82BD8B4A92BA851A0
:10029000A65D086EA951A75D0810D8A441EF01F032
:1002A000300EA46FA151465CD8A463EF01F0A051B9
:1002B000455CD8A463EF01F09F51445CD8A463EF80
:1002C00001F09E51435CD8B469EF01F0D8B079EFEA
:1002D00001F0D8809E5143549E6F9F5144549F6FAC
:1002E000A0514554A06FA1514654A16FA42B52EFC9
:1002F00001F0A451086E98512E6E99512F6E9A51AB
:100300009AEC00F00001A251A311D8A430EF01F043
:100310001200896F8F6F906B916B926B8051986F09
:100320008151996F82519A6F8F519E6F90519F6F3B
:100330009151A06F9251A16FF0EF00F0406E4050CC
:10034000D8B412004004D8A4AEEF01F00001020EB0
:10035000086E082EA9EF01F0000012004006000010
:10036000000000004050416E426AC0EF01F0000101
:10037000050E086E082EBAEF01F000000000422AB8
:100380004250415CD8A4B7EF01F012008051856F54
:100390008151866F8F6B906BDCEF01F00001470E8F
:1003A000086E0A0E096E092ED3EF01F0082ED1EF68
:1003B00001F08F2BD8B4902B8F51855D086E905132
:1003C000865D0810D8A4CEEF01F012008051856F31
:1003D0008151866F8F6B906B01EF02F00001AD0EC3
:1003E000086EB40E096E010E0A6E0A2EF5EF01F0CA
:1003F000092EF3EF01F0082EF1EF01F08F2BD8B4A6
:10040000902B8F51855D086E9051865D0810D8A4A1
:10041000EEEF01F012008093D88489A115EF02F06D
:1004200080A116EF02F017EF02F080B1D894D8A4A3
:100430001FEF02F0030E8011816F2BEF02F0810796
:100440008151D8A42BEF02F0809189B18081030EF5
:100450008011816F8083030E8015856F1200949444
:10046000959A8B948C9A938093829388938A938C99
:10047000939E020E496E4A6A7D917D837D95300E72
:100480007E6F030E7E117F6F7E51536E7F51546ECF
:100490005350556E5450566E300E7E6F030E7E11C3
:1004A0007F6F7E51536E7F51546E5350576E545030
:1004B000586E300E7E6F030E7E117F6F7E51536E2D
:1004C0007F51546E5350596E54505A6E386A010E13
:1004D000396E1FEF03F0D8903834856F3934866F4A
:1004E000D89085378637030E8525876F000E8621C5
:1004F000886F8751086E8851096E1200806F386AC4
:10050000010E396E3804CB6E8005D8A48CEF02F052
:10051000FC0ECA16CA841200040E805DD8A497EFA0
:1005200002F0FC0ECA140109CA6ECA841200100E31
:10053000805DD8A4A2EF02F0FC0ECA140209CA6EB4
:10054000CA841200CA9412008551106E8651116E31
:100550008751126E8851136E800E086E960E096ECA
:10056000980E0A6E0B6A46EC00F014500001966F6C
:100570001550976FD8909731996F9631986FD890A2
:1005800099339833CA6A985199119D81D8B49D9135
:10059000100E995DD8A4CFEF02F0000E985D9D93E8
:1005A000D8A4D8A09D839D859DB19DA39D959DA513
:1005B0001EEF03F0010E995DD8A4E1EF02F0000EEA
:1005C000985DD8B4E7EF02F0D8B0EFEF02F09851A1
:1005D000386E9951396EFC0ECA161BEF03F0040EEB
:1005E000995DD8A4F6EF02F0000E985DD8B4FCEF48
:1005F00002F0D8B00AEF03F0D8909931396E9831F3
:10060000386ED89039323832FC0ECA140109CA6EDD
:100610001BEF03F0D8909931396E9831386E030E84
:10062000086ED89039323832082E11EF03F0FC0EE4
:10063000CA140209CA6E3804CB6ECA8412005B6AFF
:100640005C6AB3EF03F0F00E5C140C095C6E5B5057
:10065000BE6E5C50BD6E1200F00E5C165C50BD6E3E
:100660001200030E9C5DD8A438EF03F0FF0E9B5DD3
:10067000D8B442EF03F0D8A042EF03F0FF0E9B6F17
:10068000030E9C6FD8909C31096E9B31086ED890F8
:100690000932083208505B6E030E9B15086E08384D
:1006A000096E300E0916CF0E5C1409105C6E23EF34
:1006B00003F085519B6F86519C6F31EF03F0000171
:1006C000806F8051D8A469EF03F0836B846BA5EF32
:1006D00003F0640E805DD8B471EF03F0D8A07AEF18
:1006E00003F03950846F3804836F8329D8B48407AA
:1006F000A5EF03F08051896F8A6BD89039308C6FE9
:1007000038308B6FD8908C338B3389518B03F350F7
:100710008D6FF4508E6F89518C03F3508E278A5160
:100720008B03F3508E27190E106E116A126A136A2A
:100730008D51086E8E51096E0A6A0B6A46EC00F004
:1007400014500001836F1550846FD8908335896FE2
:1007500084358A6FD89089378A3789519B6F8A513F
:100760009C6F31EF03F0010E7EEC02F0A80E000149
:10077000856F610E866F876B886BA4EC02F0320E7A
:100780005FEC03F02CEC03F0FDEF03F06BEC02F0F8
:1007900008500001806F0950816F4950106E116A36
:1007A000126A136A8051086E8151096E0A6A0B6AD7
:1007B00046EC00F01450476E1550486E500E000184
:1007C000856FC30E866F876B886BA4EC02F0475071
:1007D0000001856F4850866F59EC03F023EC03F05D
:1007E000F00EBD140C09BD6E3F0EBD148009BD6E28
:1007F000800EB7140F09B76E1200D59AD596F80E71
:10080000D5140209D56ED58CF294959C959E959041
:1008100095929594959647EF04F03F6E3FB014EF94
:1008200004F08C9015EF04F08C803FB21BEF04F0C5
:100830008C921CEF04F08C823FB422EF04F08C9475
:1008400023EF04F08C843FB629EF04F08C962AEF56
:1008500004F08C868C8E0000000000008C9E12003C
:100860003D6E3D380F0B3E6E0DEC04F03D500DEC2F
:1008700004F0040E9EEF01F03C6E8C8C3C5030EF87
:1008800004F000018F6F8C9C8F5130EF04F03A6AB6
:10089000ACEF04F0896F020E895DD8B453EF04F019
:1008A000D8A054EF04F0896B8951D8B4000C8905A5
:1008B000D8B4400C020E895DD8B4100C030E895DCB
:1008C000D8B4500C1200800E3A10896F41EF04F03A
:1008D00008503B6E3CEF04F0806F4AEC04F00001DE
:1008E000856F835185253A6E63EF04F0010E41EC6C
:1008F00004F0B40E9EEF01F08C9C190E0001806F85
:10090000816BC6EC01F0030E0DEC04F0050E000146
:10091000806F816BC6EC01F0030E0DEC04F00A0E43
:100920009EEC01F0030E0DEC04F0040E9EEC01F0C1
:10093000020E0DEC04F0040E9EEC01F0280E41ECCA
:1009400004F01C0E41EC04F00C0E41EC04F0060E19
:1009500041EC04F076EF04F07CEC04F04D0E000165
:100960005D6F690E5E6F200E5F6F430E606F6F0EDE
:10097000616F630E626F690E636F6E0E646F610E5E
:10098000656F200E666F640E676F650E686F200ED0
:10099000696F490E6A6F6E0E6B6F640E6C6F76EC4A
:1009A00004F0D00E0001806F080E816F000E826F80
:1009B000100E896F8A6B5D0E936F946B956BA8EC2C
:1009C00000F00A0E0001806F816BE6EC01F076EC1E
:1009D00004F0F19CF19AF292F090F288F086F28E97
:1009E000E5EF06F01200120000017DA553EF05F0BF
:1009F0004F50525C8393D8B483834C50515C8395A1
:100A0000D8B48385838783B383A583974B50505C89
:100A10008399D8B48389838B83B783A9839B83BB52
:100A20007D91030E4E5CD8A418EF05F0E80E4D5CE6
:100A3000D8B41EEF05F0D8A034EF05F0E80E106E24
:100A4000030E116E126A136A4D50086E4E50096EF5
:100A50000A6A0B6A46EC00F014500001806F4B26C6
:100A60000C504D6E0D504E6E3B0E4B5CD8B43FEFAC
:100A700005F0D8A03FEF05F04B6A4C2A12003B0E60
:100A80004C5CD8B44AEF05F0D8A04AEF05F04C6AA8
:100A90004F2A1200020E4F5CD8B453EF05F0D8A0D5
:100AA00053EF05F04F6A12007DA187EF05F0410E6C
:100AB0006D6F500E6E6F410E6F6F470E706F410E6F
:100AC000716F520E726F200E736F746F540E756FCC
:100AD000490E766F4D0E776F200E786F796F500E3E
:100AE0007A6F4F0E7B6F540E7C6F5D6B5E6B5F6B2E
:100AF000606B616B626B636B646B656B666B676B82
:100B0000686B696B6A6B6B6B6C6BBEEF05F0410ECB
:100B10005D6F430E5E6F540E5F6F490E606F560E31
:100B2000616F410E626F520E636F200E646F500E44
:100B3000656F4F0E666F540E676F450E686F4E0EF1
:100B4000696F430E6A6F490E6B6F410E6C6F200E1A
:100B50006D6F6E6F6F6F706F716F540E726F490EA5
:100B6000736F4D0E746F450E756F520E766F200EBB
:100B7000776F786F796F7A6F7B6F7C6F76EC04F0AC
:100B8000D00E0001806F080E816F000E826F100E74
:100B9000896F8A6B5D0E936F946B956BA8EC00F078
:100BA0000001836B010E6CEC04F0D00E0001806F2D
:100BB000080E816F000E826F100E896F8A6B6D0EAA
:100BC000936F946B956BA8EF00F0540E5D6F490E18
:100BD0005E6F4D0E5F6F450E606F520E616F200E9F
:100BE000626F636F646F656F666F676F686F696F61
:100BF0006A6F6B6F6C6F76EC04F00001836B000E14
:100C00006CEC04F0D00E0001806F080E816F000EB6
:100C1000826F100E896F8A6B5D0E936F946B956B6C
:100C2000A8EC00F00001836B010E6CEC04F0D00E18
:100C30000001806F080E816F000E826F525089ECA8
:100C400001F03A0E086E68EC04F0D00E0001806FDF
:100C5000080E816F000E826F515089EC01F03A0E40
:100C6000086E68EC04F0D00E0001806F080E816FF2
:100C7000000E826F505089EF01F0200E5D6F410E23
:100C80005E6F630E5F6F740E606F690E616F760E3C
:100C9000626F610E636F720E646F200E656F540E8B
:100CA000666F690E676F6D0E686F650E696F720E05
:100CB0006A6F3F0E6B6F200E6C6F200E6D6F6E6F44
:100CC0006F6F706F716F726F530E736F490E746F29
:100CD000200E756F766F776F786F4E0E796F4F0EAF
:100CE0007A6F200E7B6F7C6F76EC04F00001836BD3
:100CF000000E6CEC04F0D00E0001806F080E816FC6
:100D0000000E826F100E896F8A6B5D0E936F946B6D
:100D1000956BA8EC00F00001836B010E6CEC04F005
:100D2000D00E0001806F080E816F000E826F100ED2
:100D3000896F8A6B6D0E936F946B956BA8EF00F0C3
:100D400076EC04F00001836B000E6CEC04F0D00E26
:100D50000001806F080E816F000E826F070E896F91
:100D60008A6B840E936F000E946F000E4009956F8E
:100D7000A8EC00F0020E495CD8A4D2EF06F0D00E29
:100D80000001806F080E816F000E826F030E896F65
:100D90008A6B7C0E936F000E946F000E4009956F66
:100DA000A8EF00F0D00E0001806F080E816F000EDA
:100DB000826F030E896F8A6B800E936F000E946FA3
:100DC000000E4009956FA8EF00F04A50D8A448EFF4
:100DD00007F000017DA3F1EF06F054EC05F00001EF
:100DE0007D93899181BA89815750806F5850816F66
:100DF0000BEC02F000017E6F8051576E8151586EEE
:100E0000020E7E5DD8A408EF07F0010E4A6E7D83C6
:100E1000899181BC89815950806F5A50816F0BEC48
:100E200002F000017E6F8051596E81515A6E020EA0
:100E30007E5DD8A41FEF07F0020E4A6E7D83899174
:100E400081B889815550806F5650816F0BEC02F04C
:100E500000017E6F8051556E8151566E020E7E5D8F
:100E6000D8A475EF08F07DA139EF07F07D913AEF36
:100E700007F07D817D837DA142EF07F0C6EC03F092
:100E800075EF08F02CEC03F08B948C9A75EF08F05A
:100E90004A04D8A4DBEF07F000017DA354EF07F06C
:100EA000E5EC05F000017D93899181B88981555069
:100EB000806F5650816F0BEC02F000017E6F805105
:100EC000556E8151566E020E7E5DD8A46DEF07F00F
:100ED000030E4A6E7D8375EF08F0899181BA89818E
:100EE0005750806F5850816F0BEC02F000017E6FFD
:100EF0008051576E8151586E7E51D8A4A4EF07F0EF
:100F0000502A3C0E505CD8B489EF07F0D8A08DEF82
:100F100007F0506A512A75EF08F03B0E515CD8B4C7
:100F200095EF07F0D8A099EF07F0516A522A75EFB4
:100F300008F0010E525CD8B4A2EF07F0D8A0A2EFDF
:100F400007F0526A75EF08F0899181BC8981595088
:100F5000806F5A50816F0BEC02F000017E6F805160
:100F6000596E81515A6E7E51D8A475EF08F0500623
:100F70003C0E505CD8B4C0EF07F0D8A0C4EF07F027
:100F8000506A510675EF08F03B0E515CD8B4CCEFB7
:100F900007F0D8A0D0EF07F0516A520675EF08F0BD
:100FA000010E525CD8B4D9EF07F0D8A0D9EF07F002
:100FB000526A75EF08F0020E4A5CD8A43AEF08F0C6
:100FC00000017DA3E8EF07F0A0EC06F000017D939F
:100FD000899181B889815550806F5650816F0BEC93
:100FE00002F000017E6F8051556E8151566E020EE7
:100FF0007E5DD8A400EF08F04A6A7D8375EF08F0A3
:10100000899181BA89815750806F5850816F0BEC5C
:1010100002F000017E6F8051576E8151586E020EB2
:101020007E5DD8A41DEF08F0020E496E7DB1C6ECBE
:1010300003F000017D8375EF08F0899181BC8981FF
:101040005950806F5A50816F0BEC02F000017E6F97
:101050008051596E81515A6E020E7E5DD8A438EFD0
:1010600008F0040E496E7DB1C6EC03F000017D83EB
:1010700075EF08F0030E4A5CD8A475EF08F0000184
:101080007DA347EF08F03DEC06F000017D938991C8
:1010900081BA89815750806F5850816F0BEC02F0F4
:1010A00000017E6F8051576E8151586E020E7E5D39
:1010B000D8A45EEF08F07D854A6A7D83899181BC62
:1010C00089815950806F5A50816F0BEC02F00001FA
:1010D0007E6F8051596E81515A6E020E7E5DD8A48A
:1010E00075EF08F07D954A6A7D83F4EC04F0E5EF36
:1010F00006F0F2A484EF08F07DA583EF08F0330E2C
:101100004D26030E4E22F294F2A28BEF08F0F29ECF
:101110008A8EF292F28EF0A092EF08F0F29E8A9EF2
:10112000F090F28E1850086E1950096E1A500A6E1F
:101130001B500B6E1C500C6E1D500D6E1E500E6E13
:101140001F500F6E2050106E2150116E2250126EE3
:101150002350136E2450146E2550156E2650166EB3
:101160002750176E3450F66E3550F76E3650F86EC5
:101170003750F56E3250E96E3350EA6E31502E6EB4
:0A1180002D502C6E2B502A6E11002A
:020000040030CA
:0E000000240C391E008580000FC00FE00F4059
:00000001FF
