:020000040000FA
:040000009FEF00F07E
:0800080000012A502B6E0001DB
:100010002C502D6E00012E50316E0001E950326ED1
:10002000EA50336E0001F650346EF750356EF850DA
:10003000366EF550376E00010850186E0950196E73
:100040000A501A6E0B501B6E0C501C6E0D501D6E1C
:100050000E501E6E0F501F6E1050206E1150216EEC
:100060001250226E1350236E1450246E1550256EBC
:100070001650266E1750276E09EF09F0353025000F
:1000800032352500506F7765723A2000200E2A6EB7
:100090000C6A0D6A0E6A0F6AD89014361536163639
:1000A0001736D890083609360A360B360C360D3618
:1000B0000E360F360F50135CD8A46BEF00F00E50C5
:1000C000125CD8A46BEF00F00D50115CD8A46BEF5C
:1000D00000F00C50105CD8B471EF00F0D8B07FEF96
:1000E00000F0D8800C5010540C6E0D5011540D6E51
:1000F0000E5012540E6E0F5013540F6E14802A2E91
:100100004CEF00F0120030BE99EF00F030BC8FEFE2
:1001100000F02F50EA6E2E50E96EEF5012002E5074
:10012000F66E2F50F76E30503F0BF86E0800F5500A
:1001300012001200FB6E2F50FA6E2E50F96ED19005
:10014000C26A0F0EC16EC06A070EB46E33EF02F0C2
:10015000A551B46FA651B56FB451BA6FB551BB6F0D
:10016000B96BCBEF00F0AF51B9252E6E000E096EC2
:10017000B05109202F6EB1510920306E83EC00F090
:10018000086E00019C512E6E9D512F6E9E519AEC6F
:1001900000F00001B92BB951BA5D086EBB510810CF
:1001A000D8A4B3EF00F01200D89043364436453659
:1001B0004636D8904334C66F4434C76F4534C86F51
:1001C0004634C96FD890C637C737C837C937C65104
:1001D0004326C7514422C8514522C9514622120024
:1001E000010E436E446A456A466ABE6BBF6B465059
:1001F000BD5DD8A408EF01F04550BC5DD8A408EF60
:1002000001F04450BB5DD8A408EF01F04350BA5D43
:10021000C191D8A4D8B0C181000EBF5DD8A413EF9E
:1002200001F00A0EBE5DC193D8B419EF01F0D8A059
:10023000C183C185C1B1C1A3C195C1A528EF01F09A
:10024000D4EC00F00001BE2BD8B4BF2BF7EF00F0C8
:10025000BE51BF11D8A430EF01F0010EBE6FBF6BCD
:10026000BE07BE29D8B4BF07010E436E446A456A73
:10027000466ABE51C26FBF51C36FC46BC56B47EFB7
:1002800001F0D4EC00F00001C42BD8B4C52BC4514C
:10029000C25D086EC551C35D0810D8A441EF01F0DE
:1002A000300EC06FBD51465CD8A463EF01F0BC5165
:1002B000455CD8A463EF01F0BB51445CD8A463EF64
:1002C00001F0BA51435CD8B469EF01F0D8B079EFCE
:1002D00001F0D880BA514354BA6FBB514454BB6F3C
:1002E000BC514554BC6FBD514654BD6FC02B52EF3D
:1002F00001F0C051086EB4512E6EB5512F6EB6513B
:100300009AEC00F00001BE51BF11D8A430EF01F00B
:100310001200A56FAB6FAC6BAD6BAE6B9C51B46F45
:100320009D51B56F9E51B66FAB51BA6FAC51BB6F5B
:10033000AD51BC6FAE51BD6FF0EF00F0406E40505C
:10034000D8B412004004D8A4AFEF01F000010A0EA7
:10035000086E082EA9EF01F0000000001200400610
:100360000001070E086E082EB3EF01F000004050A8
:10037000416E426AC3EF01F000010E0E086E082EB6
:10038000BFEF01F0422A4250415CD8A4BCEF01F01B
:1003900012009C51A16F9D51A26FAB6BAC6BE0EF53
:1003A00001F00001090E086EB70E096E092ED6EF96
:1003B00001F0082ED4EF01F00000AB2BD8B4AC2B29
:1003C000AB51A15D086EAC51A25D0810D8A4D1EF6D
:1003D00001F012009C51A16F9D51A26FAB6BAC6BF1
:1003E00005EF02F00001110E086E570E096E6F0E38
:1003F0000A6E0A2EF9EF01F0092EF7EF01F0082E30
:10040000F5EF01F0AB2BD8B4AC2BAB51A15D086E6E
:10041000AC51A25D0810D8A4F2EF01F012009C9339
:10042000D884A5A119EF02F09CA11AEF02F01BEFEE
:1004300002F09CB1D894D8A423EF02F0030E9C11D3
:100440009D6F2FEF02F09D079D51D8A42FEF02F072
:100450009C91A5B19C81030E9C119D6F9C83030E02
:100460009C15A16F12009494959A8B948C9A93800A
:100470009382938893869384939E0A0E9C6F9D6BC0
:10048000EAEC01F0870E000199179280870E99150A
:100490007009996F9931086E083208320F0E0816EC
:1004A0000F0E0814096EF00EC1140910C16E9A6B7C
:1004B0009A39086E300E0816CF0EC1140810C16E9E
:1004C000F80EC0140509C06EC70EC016020E496EA4
:1004D0004A6A999199839995300E9A6F030E9A11F1
:1004E0009B6F9A51536E9B51546E5350556E54509E
:1004F000566E300E9A6F030E9A119B6F9A51536E7F
:100500009B51546E5350576E5450586E300E9A6F24
:10051000030E9A119B6F9A51536E9B51546E535018
:10052000596E54505A6E386A010E396E4CEF03F012
:10053000D8903834A16F3934A26FD890A137A23740
:10054000030EA125A36F000EA221A46FA351086E74
:10055000A451096E12009C6F386A010E396E38047E
:10056000CB6E9C05D8A4B9EF02F0FC0ECA16CA8463
:100570001200040E9C5DD8A4C4EF02F0FC0ECA1455
:100580000109CA6ECA841200100E9C5DD8A4CFEF78
:1005900002F0FC0ECA140209CA6ECA841200CA9480
:1005A0001200A151106EA251116EA351126EA451EE
:1005B000136E086A2D0E096E310E0A6E010E0B6E57
:1005C00046EC00F014500001B26F1550B36FD89094
:1005D000B331B56FB231B46FD890B533B433CA6AA2
:1005E000B451B511B981D8B4B991100EB55DD8A484
:1005F000FCEF02F0000EB45DB993D8A4D8A0B98383
:10060000B985B9B1B9A3B995B9A54BEF03F0010EFE
:10061000B55DD8A40EEF03F0000EB45DD8B414EFAE
:1006200003F0D8B01CEF03F0B451386EB551396EF9
:10063000FC0ECA1648EF03F0040EB55DD8A423EFF4
:1006400003F0000EB45DD8B429EF03F0D8B037EF53
:1006500003F0D890B531396EB431386ED890393254
:100660003832FC0ECA140109CA6E48EF03F0D89064
:10067000B531396EB431386E030E086ED890393208
:100680003832082E3EEF03F0FC0ECA140209CA6E7F
:100690003804CB6ECA8412005B6A5C6AE0EF03F038
:1006A000F00E5C140C095C6E5B50BE6E5C50BD6E4F
:1006B0001200F00E5C165C50BD6E1200030EB85DA9
:1006C000D8A465EF03F0FF0EB75DD8B46FEF03F069
:1006D000D8A06FEF03F0FF0EB76F030EB86FD8907E
:1006E000B831096EB731086ED89009320832085017
:1006F0005B6E030EB715086E0838096E300E0916CA
:10070000CF0E5C1409105C6E50EF03F0A151B76F6F
:10071000A251B86F5EEF03F000019C6F9C51D8A40A
:1007200096EF03F09F6BA06BD2EF03F0640E9C5D1D
:10073000D8B49EEF03F0D8A0A7EF03F03950A06F14
:1007400038049F6F9F29D8B4A007D2EF03F09C51C3
:10075000A56FA66BD8903930A86F3830A76FD890A6
:10076000A833A733A551A703F350A96FF450AA6F7C
:10077000A551A803F350AA27A651A703F350AA270F
:10078000190E106E116A126A136AA951086EAA51E5
:10079000096E0A6A0B6A46EC00F0145000019F6F64
:1007A0001550A06FD8909F35A56FA035A66FD89033
:1007B000A537A637A551B76FA651B86F5EEF03F006
:1007C000010EABEC02F0A80E0001A16F610EA26F4A
:1007D000A36BA46BD1EC02F0320E8CEC03F059EC5D
:1007E00003F02AEF04F098EC02F0085000019C6F2F
:1007F00009509D6F4950106E116A126A136A9C511C
:10080000086E9D51096E0A6A0B6A46EC00F014509E
:10081000476E1550486E500E0001A16FC30EA26FB7
:10082000A36BA46BD1EC02F047500001A16F4850BC
:10083000A26F86EC03F050EC03F0F00EBD140C092F
:10084000BD6E3F0EBD148009BD6E800EB7140F093A
:10085000B76E1200D59AD596F80ED5140209D56E4A
:10086000D58CF294959C959E95909592959495969D
:1008700076EF04F03F6E3FB041EF04F08C9042EF12
:1008800004F08C803FB248EF04F08C9249EF04F002
:100890008C823FB44FEF04F08C9450EF04F08C84C2
:1008A0003FB656EF04F08C9657EF04F08C868C8E92
:1008B000000000000000000000008C9E12003D6E51
:1008C0003D380F0B3E6E3AEC04F03D503AEC04F02C
:1008D000040E9EEF01F03C6E8C8C3C505FEF04F0F8
:1008E0000001AB6F8C9CAB515FEF04F03A6ADBEF19
:1008F00004F0A56F040EA55DD8B482EF04F0D8A073
:1009000083EF04F0A56BA551D8B4000CA505D8B4AD
:10091000400C020EA55DD8B4140C030EA55DD8B42E
:10092000540C1200800E3A10A56F70EF04F00850BE
:100930003B6E6BEF04F09C6F79EC04F00001A16F4B
:100940009F51A1253A6E92EF04F0010E70EC04F075
:10095000B40E9EEF01F08C9C190E00019C6F9D6BF4
:10096000C9EC01F0030E3AEC04F0050E00019C6F97
:100970009D6BC9EC01F0030E3AEC04F00A0E9EECFC
:1009800001F0030E3AEC04F0040E9EEC01F0020EAE
:100990003AEC04F0040E9EEC01F0280E70EC04F02A
:1009A0001C0E70EC04F00C0E70EC04F0060E70ECF3
:1009B00004F0A5EF04F0ABEC04F04D0E00015D6F08
:1009C000690E5E6F200E5F6F430E606F6F0E616F7A
:1009D000630E626F690E636F6E0E646F610E656FFA
:1009E000200E666F640E676F650E686F200E696F6C
:1009F000490E6A6F6E0E6B6F640E6C6F750E6D6FC5
:100A0000630E6E6F6F6F200E706F200E856F540E29
:100A1000866F690E876F650E886F6D0E896F700E19
:100A20008A6F6F0E8B6F3A0E8C6F200E8D6F300EAB
:100A30008E6F8F6F3A0E906F300E916F926F3A0EED
:100A4000936F300E946F956F200E966F976F986F1F
:100A5000A5EC04F02E0E00019C6F090E9D6F000E98
:100A60009E6F140EA56FA66B5D0EAF6FB06BB16B72
:100A7000A8EC00F00A0E00019C6F9D6BEAEC01F0FF
:100A8000A5EC04F0F19CF19AF292F090F288F086D5
:100A9000F28E75EF07F012001200000199A5ACEF7D
:100AA00005F04F50525C9F93D8B49F834C50515CDB
:100AB0009F95D8B49F859F879FB39FA59F974B50C5
:100AC000505C9F99D8B49F899F8B9FB79FA99F9B8C
:100AD0009FBB9991030E4E5CD8A471EF05F0E80E10
:100AE0004D5CD8B477EF05F0D8A08DEF05F0E80E97
:100AF000106E030E116E126A136A4D50086E4E503E
:100B0000096E0A6A0B6A46EC00F0145000019C6FF3
:100B10004B260C504D6E0D504E6E3B0E4B5CD8B4B8
:100B200098EF05F0D8A098EF05F04B6A4C2A120018
:100B30003B0E4C5CD8B4A3EF05F0D8A0A3EF05F0B2
:100B40004C6A4F2A1200020E4F5CD8B4ACEF05F08D
:100B5000D8A0ACEF05F04F6A120099A100EF06F0A3
:100B6000200E5D6F410E5E6F500E5F6F410E606F25
:100B7000470E616F410E626F520E636F200E646FFD
:100B8000656F540E666F490E676F4D0E686F450EA8
:100B9000696F520E6A6F200E6B6F6C6F500E6D6F27
:100BA0004F0E6E6F540E6F6F200E706F8551716F08
:100BB0008651726F8751736F8851746F8951756F49
:100BC0008A51766F8B51776F8C51786F8D51796F19
:100BD0008E517A6F8F517B6F90517C6F91517D6FE9
:100BE00092517E6F93517F6F9451806F9551816FB9
:100BF0009651826F9751836F9851846F41EF06F041
:100C0000200E5D6F410E5E6F430E5F6F540E606F7E
:100C1000490E616F560E626F410E636F520E646F24
:100C2000200E656F666F676F500E686F4F0E696FAD
:100C3000540E6A6F450E6B6F4E0E6C6F430E6D6FE8
:100C4000490E6E6F410E6F6F200E706F200E716F28
:100C5000726F736F746F756F766F776F540E786FF6
:100C6000490E796F4D0E7A6F450E7B6F520E7C6F79
:100C7000200E7D6F7E6F7F6F806F816F826F836FBD
:100C8000846FA5EC04F02E0E00019C6F090E9D6F81
:100C9000000E9E6F140EA56FA66B5D0EAF6FB06B4E
:100CA000B16BA8EC00F000019F6B010E9BEC04F00F
:100CB0002E0E00019C6F090E9D6F000E9E6F140E8C
:100CC000A56FA66B710EAF6FB06BB16BA8EF00F0A4
:100CD000200E5D6F540E5E6F490E5F6F4D0E606F9C
:100CE000450E616F520E626F200E636F646F656F09
:100CF000666F676F686F696F6A6F6B6F6C6F6D6F30
:100D00006E6F6F6F706FA5EC04F000019F6B000EAB
:100D10009BEC04F02E0E00019C6F090E9D6F000EDF
:100D20009E6F140EA56FA66B5D0EAF6FB06BB16BAF
:100D3000A8EC00F000019F6B010E9BEC04F02E0E5E
:100D400000019C6F090E9D6F000E9E6F525089EC42
:100D500001F03A0E086E97EC04F02E0E00019C6F25
:100D6000090E9D6F000E9E6F515089EC01F03A0EF6
:100D7000086E97EC04F02E0E00019C6F090E9D6F1B
:100D8000000E9E6F505089EF01F0200E5D6F5E6F78
:100D90005F6F410E606F630E616F740E626F690E5C
:100DA000636F760E646F610E656F720E666F200E54
:100DB000676F540E686F690E696F6D0E6A6F650E0E
:100DC0006B6F720E6C6F3F0E6D6F200E6E6F6F6FDC
:100DD000706F200E716F726F736F746F756F766FB7
:100DE000776F530E786F490E796F200E7A6F7B6F95
:100DF0007C6F7D6F7E6F7F6F4E0E806F4F0E816FA9
:100E0000200E826F836F846FA5EC04F000019F6B4E
:100E1000000E9BEC04F02E0E00019C6F090E9D6FDE
:100E2000000E9E6F140EA56FA66B5D0EAF6FB06BBC
:100E3000B16BA8EC00F000019F6B010E9BEC04F07D
:100E40002E0E00019C6F090E9D6F000E9E6F140EFA
:100E5000A56FA66B710EAF6FB06BB16BA8EF00F012
:100E6000A5EC04F000019F6B000E9BEC04F02E0E2D
:100E700000019C6F090E9D6F000E9E6F070EA56FFF
:100E8000A66B840EAF6F000EB06F000E4009B16FFD
:100E9000A8EC00F0020E495CD8A462EF07F02E0E19
:100EA00000019C6F090E9D6F000E9E6F030EA56FD3
:100EB000A66B7C0EAF6F000EB06F000E4009B16FD5
:100EC000A8EF00F02E0E00019C6F090E9D6F000E22
:100ED0009E6F030EA56FA66B800EAF6F000EB06FF6
:100EE000000E4009B16FA8EF00F04A50D8A4D8EF27
:100EF00007F0000199A381EF07F0ADEC05F00001C8
:100F00009993A59181B6A58157509C6F58509D6FBC
:100F10000FEC02F000019A6F9C51576E9D51586E74
:100F2000020E9A5DD8A498EF07F0010E4A6E9983DD
:100F3000A59181B4A58159509C6F5A509D6F0FECBB
:100F400002F000019A6F9C51596E9D515A6E020E2B
:100F50009A5DD8A4AFEF07F0020E4A6E9983A5916F
:100F600081B8A58155509C6F56509D6F0FEC02F0D3
:100F700000019A6F9C51556E9D51566E020E9A5DFE
:100F8000D8A405EF09F099A1C9EF07F09991CAEF2C
:100F900007F09981998399A1D2EF07F0F3EC03F060
:100FA00005EF09F059EC03F08B948C9A05EF09F0EA
:100FB0004A04D8A46BEF08F0000199A3E4EF07F00E
:100FC00068EC06F000019993A59181B8A581555070
:100FD0009C6F56509D6F0FEC02F000019A6F9C5170
:100FE000556E9D51566E020E9A5DD8A4FDEF07F026
:100FF000030E4A6E998305EF09F0A59181B6A5818C
:1010000057509C6F58509D6F0FEC02F000019A6F83
:101010009C51576E9D51586E9A51D8A434EF08F0E8
:10102000502A3C0E505CD8B419EF08F0D8A01DEF40
:1010300008F0506A512A05EF09F03B0E515CD8B414
:1010400025EF08F0D8A029EF08F0516A522A05EFE1
:1010500009F0010E525CD8B432EF08F0D8A032EF9C
:1010600008F0526A05EF09F0A59181B4A5815950A5
:101070009C6F5A509D6F0FEC02F000019A6F9C51CB
:10108000596E9D515A6E9A51D8A405EF09F0500639
:101090003C0E505CD8B450EF08F0D8A054EF08F0E4
:1010A000506A510605EF09F03B0E515CD8B45CEF75
:1010B00008F0D8A060EF08F0516A520605EF09F079
:1010C000010E525CD8B469EF08F0D8A069EF08F0BF
:1010D000526A05EF09F0020E4A5CD8A4CAEF08F084
:1010E000000199A378EF08F030EC07F00001999324
:1010F000A59181B8A58155509C6F56509D6F0FECFE
:1011000002F000019A6F9C51556E9D51566E020E71
:101110009A5DD8A490EF08F04A6A998305EF09F028
:10112000A59181B6A58157509C6F58509D6F0FECCB
:1011300002F000019A6F9C51576E9D51586E020E3D
:101140009A5DD8A4ADEF08F0020E496E99B1F3ECA8
:1011500003F00001998305EF09F0A59181B4A58101
:1011600059509C6F5A509D6F0FEC02F000019A6F1E
:101170009C51596E9D515A6E020E9A5DD8A4C8EFCB
:1011800008F0040E496E99B1F3EC03F00001998365
:1011900005EF09F0030E4A5CD8A405EF09F0000141
:1011A00099A3D7EF08F0C5EC06F000019993A5913B
:1011B00081B6A58157509C6F58509D6F0FEC02F07F
:1011C00000019A6F9C51576E9D51586E020E9A5DA8
:1011D000D8A4EEEF08F099854A6A9983A59181B465
:1011E000A58159509C6F5A509D6F0FEC02F0000181
:1011F0009A6F9C51596E9D515A6E020E9A5DD8A4F9
:1012000005EF09F099954A6A99834DEC05F075EF61
:1012100007F0F2A414EF09F099A513EF09F0330ECB
:101220004D26030E4E22F294F2A21BEF09F0F29E1D
:101230008A8EF292F28EF0A022EF09F0F29E8A9E40
:10124000F090F28E1850086E1950096E1A500A6EFE
:101250001B500B6E1C500C6E1D500D6E1E500E6EF2
:101260001F500F6E2050106E2150116E2250126EC2
:101270002350136E2450146E2550156E2650166E92
:101280002750176E3450F66E3550F76E3650F86EA4
:101290003750F56E3250E96E3350EA6E31502E6E93
:0A12A0002D502C6E2B502A6E110009
:020000040030CA
:0E000000240C391E008580000FC00FE00F4059
:00000001FF
