:020000040000FA
:0400000077EF00F0A6
:0800080000012A502B6E0001DB
:100010002C502D6E00012E50316E0001E950326ED1
:10002000EA50336E00010850186E0950196E0A50DC
:100030001A6E0B501B6E0C501C6E0D501D6E0E5028
:100040001E6E0F501F6E1050206E1150216E1250F8
:10005000226E1350236E1450246E1550256E1650C8
:10006000266E1750276E8FEF04F0200E2A6E0C6A52
:100070000D6A0E6A0F6AD890143615361636173682
:10008000D890083609360A360B360C360D360E3641
:100090000F360F50135CD8A45AEF00F00E50125CCC
:1000A000D8A45AEF00F00D50115CD8A45AEF00F01C
:1000B0000C50105CD8B460EF00F0D8B06EEF00F0D8
:1000C000D8800C5010540C6E0D5011540D6E0E5003
:1000D00012540E6E0F5013540F6E14802A2E3BEFE5
:1000E00000F01200FB6E2F50FA6E2E50F96ED19078
:1000F000FC0ED3169B9CC26A0F0EC16EC06A070E1F
:10010000B46E15EF01F0725000017F6F7350806F75
:100110007F51846F8051856F836B9FEF00F07A5021
:100120008325E96E7B50EA6EEF50086E6A502E6EA2
:100130006B502F6E6C5072EC00F00001832B8351DA
:10014000845D086E85510810D8A48FEF00F012006E
:100150003C6E3C50D8B412003C04D8A4B8EF00F078
:100160000001020E086E082EB3EF00F0000012002E
:100170003C060000000000003C503D6E3E6ACAEFA5
:1001800000F00001050E086E082EC4EF00F000001C
:1001900000003E2A3E503D5CD8A4C1EF00F01200A2
:1001A0006A50706E6B50716E786A796AE6EF00F093
:1001B0000001470E086E0A0E096E092EDDEF00F0F1
:1001C000082EDBEF00F0782AD8B4792A7850705CDA
:1001D000086E7950715C0810D8A4D8EF00F01200B6
:1001E0006A50706E6B50716E786A796A0BEF01F02D
:1001F0000001AD0E086EB40E096E010E0A6E0A2ED5
:10020000FFEF00F0092EFDEF00F0082EFBEF00F0ED
:10021000782AD8B4792A7850705C086E7950715C6D
:100220000810D8A4F8EF00F012009494959A346A5C
:10023000010E356ECFEF01F0D89034346A6E35344C
:100240006B6ED8906A366B36030E6A246C6E000EA5
:100250006B206D6E6C50086E6D50096E12006A6EE8
:10026000346A010E356E3404CB6E6A04D8A43DEFB7
:1002700001F0FC0ECA16CA841200040E6A5CD8A4EF
:1002800048EF01F0FC0ECA140109CA6ECA841200BC
:10029000100E6A5CD8A453EF01F0FC0ECA140209D8
:1002A000CA6ECA841200CA9412006A50106E6B5053
:1002B000116E6C50126E6D50136E800E086E960E9D
:1002C000096E980E0A6E0B6A35EC00F01450786EC9
:1002D0001550796ED89079307E6E78307D6ED890DA
:1002E0007E327D32CA6A7D507E107F80D8B47F9086
:1002F000100E7E5CD8A47FEF01F0000E7D5C7F9233
:10030000D8A4D8A07F827F847FB07FA27F947FA46F
:10031000CEEF01F0010E7E5CD8A491EF01F0000E4B
:100320007D5CD8B497EF01F0D8B09FEF01F07D501D
:10033000346E7E50356EFC0ECA16CBEF01F0040E03
:100340007E5CD8A4A6EF01F0000E7D5CD8B4ACEFC3
:1003500001F0D8B0BAEF01F0D8907E30356E7D3024
:10036000346ED89035323432FC0ECA140109CA6E8C
:10037000CBEF01F0D8907E30356E7D30346E030EB9
:10038000086ED89035323432082EC1EF01F0FC0EE1
:10039000CA140209CA6E3404CB6ECA8412003F6AC2
:1003A000406A63EF02F0F00E40140C09406E3F50BB
:1003B000BE6E4050BD6E1200F00E40164050BD6E35
:1003C0001200030E825DD8A4E8EF01F0FF0E815DFC
:1003D000D8B4F2EF01F0D8A0F2EF01F0FF0E816F78
:1003E000030E826FD8908231096E8131086ED890E9
:1003F0000932083208503F6E030E8115086E083826
:10040000096E300E0916CF0E40140910406ED3EF5E
:1004100001F06A500001816F6B50826FE1EF01F0D3
:100420006A6E6A50D8A419EF02F06E6A6F6A54EFD0
:1004300002F0640E6A5CD8B421EF02F0D8A02AEF73
:1004400002F035506F6E34046E6E6E28D8B46F06AD
:1004500054EF02F06A50726E736AD8903530756E40
:100460003430746ED8907532743272507402F35016
:10047000766EF450776E72507502F3507726735093
:100480007402F3507726190E106E116A126A136AFD
:100490007650086E7750096E0A6A0B6A35EC00F0E8
:1004A00014506E6E15506F6ED8906E34726E6F343D
:1004B000736ED8907236733672500001816F73502C
:1004C000826FE1EF01F0010E2FEC01F0A80E6A6ED1
:1004D000610E6B6E6C6A6D6A55EC01F0320E10ECB9
:1004E00002F0DCEC01F0D59AD596F80ED516D59C25
:1004F000959C959E9590959295949596B9EF02F05E
:100500003B6E3BB087EF02F08C9088EF02F08C805E
:100510003BB28EEF02F08C928FEF02F08C823BB4F4
:1005200095EF02F08C9496EF02F08C843BB69CEF32
:1005300002F08C969DEF02F08C868C8E00000000FD
:1005400000008C9E1200396E39380F0B3A6E80EC29
:1005500002F0395080EC02F0040EA8EF00F0386E83
:100560008C8C3850A3EF02F0786E8C9C7850A3EFFF
:1005700002F0366A1BEF03F0726E020E725CD8B4A2
:10058000C5EF02F0D8A0C6EF02F0726A7250D8B47C
:10059000000C7204D8B4400C020E725CD8B4100C7B
:1005A000030E725CD8B4500C1200800E3610726EBE
:1005B000B4EF02F00850376EAFEF02F06A6EBCEC99
:1005C00002F0706E6E507024366ED5EF02F0010EA0
:1005D000B4EC02F0B40EA8EF00F08C9C190E6A6E19
:1005E0006B6AD0EC00F0030E80EC02F0050E6A6E30
:1005F0006B6AD0EC00F0030E80EC02F00A0EA8EC5F
:1006000000F0030E80EC02F0040EA8EC00F0020EE5
:1006100080EC02F0040EA8EC00F0280EB4EC02F01E
:100620001C0EB4EC02F00C0EB4EC02F0060EB4ECAE
:1006300002F0E7EF02F0EDEC02F0200E416E590EF1
:10064000426E4F0E436E200E446E430E456E4F0EAB
:10065000466E430E476E490E486E4E0E496E4F0E63
:100660004A6E200E4B6E520E4C6E490E4D6E430E6E
:100670004E6E4F0E4F6E210E506EE7EC02F0B40E30
:100680006A6E050E6B6E000E6C6E100E726E736AE3
:10069000410E7A6E7B6A7C6A83EC00F00A0E6A6E09
:1006A0006B6AF0EC00F0E7EC02F0938093829388A1
:1006B000938A938C939EF19CF19AF292F090F28837
:1006C000F086F28E636A669066820A0E676EFC0E92
:1006D0006714686E030E6810696E6850646E695026
:1006E000656E24EF04F0410E416E430E426E540ECF
:1006F000436E490E446E560E456E410E466E520EC6
:10070000476E200E486E500E496E4F0E4A6E540EC4
:100710004B6E450E4C6E4E0E4D6E430E4E6E490E98
:100720004F6E410E506E200E516E526E536E546ECF
:10073000556E540E566E490E576E4D0E586E450E40
:10074000596E520E5A6E200E5B6E5C6E5D6E5E6E62
:100750005F6E606EE7EC02F0B40E6A6E050E6B6EB3
:10076000000E6C6E100E726E736A410E7A6E7B6AAA
:100770007C6A83EC00F06E6A010EDEEC02F0B40ECF
:100780006A6E050E6B6E000E6C6E100E726E736AE2
:10079000510E7A6E7B6A7C6A83EF00F0540E416ED4
:1007A000490E426E4D0E436E450E446E520E456E1E
:1007B000200E466E476E486E496E4A6E4B6E4C6E0A
:1007C0004D6E4E6E4F6E506EE7EC02F06E6A000E8C
:1007D000DEEC02F0B40E6A6E050E6B6E000E6C6EEF
:1007E000100E726E736A410E7A6E7B6A7C6A83EFBA
:1007F00000F0500E416E6F0E426E770E436E650E26
:10080000446E720E456E200E466E476E486E496EFF
:100810004A6E4B6E4C6E4D6E4E6E4F6E506EE7ECE8
:1008200002F06E6A000EDEEC02F0B40E6A6E050E87
:100830006B6E000E6C6E100E726E736A410E7A6EE5
:100840007B6A7C6A83EF00F06350D8A44AEF04F01F
:1008500066A22EEF04F073EC03F0669281BA36EFD5
:1008600004F0010E636E66826BEF04F081BC3EEF14
:1008700004F0020E636E66826BEF04F081B848EFFD
:1008800004F066A047EF04F066906BEF04F066801A
:100890006BEF04F06304D8A45BEF04F066A254EF9E
:1008A00004F0CEEC03F0669281B86BEF04F0636A5B
:1008B00066826BEF04F0020E635CD8A46BEF04F069
:1008C00066A266EF04F0F9EC03F0669281B86BEF74
:1008D00004F0636A668266A08BEF04F01CEC01F002
:1008E0000850646E0950656ED8906530626E643051
:1008F000616E500E6A6EC30E6B6E6C6A6D6A55EC5B
:1009000001F061506A6E62506B6E09EC02F0D3EC3C
:1009100001F024EF04F0DCEC01F024EF04F0F2A28B
:1009200094EF04F08A8EF292F0A099EF04F08A9E80
:10093000F0901850086E1950096E1A500A6E1B502C
:100940000B6E1C500C6E1D500D6E1E500E6E1F5007
:100950000F6E2050106E2150116E2250126E2350D7
:10096000136E2450146E2550156E2650166E2750A7
:10097000176E3250E96E3350EA6E31502E6E2D50A4
:080980002C6E2B502A6E1100B1
:020000040030CA
:0E0000000002191E008381000FC00FE00F40A8
:00000001FF
