:020000040000FA
:04000000B3EF00F06A
:080008007EEF00F020202D3EE8
:100010002D3E3530250032352500506F7765723A18
:100020002000467265713A205068693A2000647574
:1000300074793A20506F77657220737461747573A8
:100040003A2053616C6972203C2D200E2A6E0C6A96
:100050000D6A0E6A0F6AD8901436153616361736A2
:10006000D890083609360A360B360C360D360E3661
:100070000F360F50135CD8A44AEF00F00E50125CFC
:10008000D8A44AEF00F00D50115CD8A44AEF00F05C
:100090000C50105CD8B450EF00F0D8B05EEF00F018
:1000A000D8800C5010540C6E0D5011540D6E0E5023
:1000B00012540E6E0F5013540F6E14802A2E2BEF15
:1000C00000F0120030BE78EF00F030BC6EEF00F0B0
:1000D0002F50EA6E2E50E96EEF5012002E50F66E41
:1000E0002F50F76E30503F0BF86E0800F55012009D
:1000F0001200FB6E2F50FA6E2E50F96E00012A503E
:100100002B6E2C502D6E2E50316EE950326EEA500F
:10011000336EF650346EF750356EF850366EF5503B
:10012000376E0850186E0950196E0A501A6E0B502F
:100130001B6E0C501C6E0D501D6E0E501E6E0F501F
:100140001F6E1050206E1150216E1250226E1350EF
:10015000236E1450246E1550256E1650266E1750BF
:10016000276E72EF0CF0D190C26A0F0EC16EC06A9A
:10017000070EB46E6EEF02F01151166F1251176F29
:100180001651196F17511A6F186BDFEF00F01351EA
:1001900018252E6E000E096E145109202F6E155170
:1001A0000920306E62EC00F0086E01010E512E6ED7
:1001B0000F512F6E105179EC00F00101182B1851DE
:1001C000195D086E1A510810D8A4C7EF00F012008C
:1001D000D8904336443645364636D89043340A6F75
:1001E00044340B6F45340C6F46340D6FD8900A378A
:1001F0000B370C370D370A5143260B5144220C5153
:1002000045220D5146221200010E436E446A456A92
:10021000466A0001FE6BFF6B46500101035DD8A4E6
:100220001EEF01F04550025DD8A41EEF01F04450CE
:10023000015DD8A41EEF01F04350005D0591D8A4E4
:10024000D8B00581000E0001FF5DD8A42AEF01F0AF
:100250000A0EFE5D01010593D8B431EF01F0D8A07C
:100260000583058505B105A3059505A540EF01F0BA
:10027000E8EC00F00001FE2BD8B4FF2B0CEF01F0EE
:100280000001FE51FF11D8A449EF01F0010EFE6FED
:10029000FF6BFE07FE29D8B4FF07010E436E446AC8
:1002A000456A466AFE510101066F0001FF510101D6
:1002B000076F086B096B63EF01F0E8EC00F00101D8
:1002C000082BD8B4092B0851065D086E0951075D4B
:1002D0000810D8A45DEF01F0300E046F0351465CA6
:1002E000D8A47FEF01F00251455CD8A47FEF01F064
:1002F0000151445CD8A47FEF01F00051435CD8B4B5
:1003000085EF01F0D8B095EF01F0D880005143544B
:10031000006F01514454016F02514554026F035163
:100320004654036F042B6EEF01F00451086E000178
:10033000FB512E6EFC512F6EFD5179EC00F0000147
:10034000FE51FF11D8A449EF01F01200F451FB6FE8
:10035000F551FC6FF651FD6FF7510101006F00017F
:10036000F8510101016F0001F9510101026F000113
:10037000FA510101036F04EF01F0EF6FF06FF16BC1
:10038000F26BF36BEC51FB6FED51FC6FEE51FD6FB7
:10039000F0510101006F0001F1510101016F0001F5
:1003A000F2510101026F0001F3510101036F04EFEB
:1003B00001F03F6E3F50D8B412003F04D8A4EAEFDA
:1003C00001F000010A0E086E082EE4EF01F00000B3
:1003D000000012003F060001070E086E082EEEEF27
:1003E00001F000003F50406E416AFEEF01F0000155
:1003F0000E0E086E082EFAEF01F0412A4150405CC3
:10040000D8A4F7EF01F01200E651E86FE751E96F69
:10041000EA6BEB6B1BEF02F00001090E086EB70EE2
:10042000096E092E11EF02F0082E0FEF02F0000006
:10043000EA2BD8B4EB2BEA51E85D086EEB51E95D8D
:100440000810D8A40CEF02F01200E051E26FE15165
:10045000E36FE46BE56B40EF02F00001110E086EF4
:10046000570E096E6F0E0A6E0A2E34EF02F0092E37
:1004700032EF02F0082E30EF02F0E42BD8B4E52B77
:10048000E451E25D086EE551E35D0810D8A42DEF5C
:1004900002F01200DC93D884DFA154EF02F0DCA15B
:1004A00055EF02F056EF02F0DCB1D894D8A45EEF1D
:1004B00002F0030EDC11DD6F6AEF02F0DD07DD51A3
:1004C000D8A46AEF02F0DC91DFB1DC81030EDC110D
:1004D000DD6FDC83030EDC15DE6F12009494959AB9
:1004E0008B948C9A93809382938893869384939E23
:1004F0000A0EE06FE16B25EC02F0870E00019F17FA
:100500009280870E9F1570099F6F9F31086E083289
:1005100008320F0E08160F0E0814096EF00EC114E3
:100520000910C16EA76BA739086E300E0816CF0EE2
:10053000C1140810C16EF80EC0140509C06EC70EB4
:10054000C016500E476EC30E486E496A4A6A020EC4
:100550004D6E4E6A050E4F6E9F919F839F95300E94
:10056000A86F030EA811A96FA851586EA951596E12
:1005700058505A6E59505B6E300EAA6F030EAA1176
:10058000AB6FAA51586EAB51596E58505C6E5950B2
:100590005D6E300EAC6F030EAC11AD6FAC51586E8A
:1005A000AD51596E58505E6E59505F6E606B386A2F
:1005B000010E396E90EF03F0D8903834D46F39348F
:1005C000D56FD890D437D537030ED425D66F000E0B
:1005D000D521D76FD651086ED751096E1200D36F4F
:1005E000386A010E396E3804CB6ED305D8A4FDEFFE
:1005F00002F0FC0ECA16CA841200040ED35DD8A401
:1006000008EF03F0FC0ECA140109CA6ECA84120076
:10061000100ED35DD8A413EF03F0FC0ECA14020928
:10062000CA6ECA841200CA941200CA51106ECB510D
:10063000116ECC51126ECD51136E086A2D0E096EDB
:10064000310E0A6E010E0B6E25EC00F01450000105
:10065000CE6F1550CF6FD890CF31D16FCE31D06FD4
:10066000D890D133D033CA6AD051D111D281D8B405
:10067000D291100ED15DD8A440EF03F0000ED05DF2
:10068000D293D8A4D8A0D283D285D2B1D2A3D29506
:10069000D2A58FEF03F0010ED15DD8A452EF03F085
:1006A000000ED05DD8B458EF03F0D8B060EF03F07F
:1006B000D051386ED151396EFC0ECA168CEF03F052
:1006C000040ED15DD8A467EF03F0000ED05DD8B45E
:1006D0006DEF03F0D8B07BEF03F0D890D131396ED5
:1006E000D031386ED89039323832FC0ECA14010934
:1006F000CA6E8CEF03F0D890D131396ED031386E9C
:10070000030E086ED89039323832082E82EF03F08B
:10071000FC0ECA140209CA6E3804CB6ECA841200D9
:10072000616B626B26EF04F0F00E000162150C099C
:10073000626F6151BE6E6251BD6E1200F00E00011B
:1007400062176251BD6E1200030EC95DD8A4ABEFF3
:1007500003F0FF0EC85DD8B4B5EF03F0D8A0B5EF35
:1007600003F0FF0EC86F030EC96FD890C931096E30
:10077000C831086ED890093208320850616F030EF4
:10078000C815086E0838096E300E0916CF0E6215AE
:100790000910626F94EF03F0C651C86FC751C96F5B
:1007A000A4EF03F00001BD6FBD51D8A4DCEF03F04E
:1007B000BE6BBF6B18EF04F0640EBD5DD8B4E4EF00
:1007C00003F0D8A0EDEF03F03950BF6F3804BE6FCF
:1007D000BE29D8B4BF0718EF04F0BD51C06FC16B7C
:1007E000D8903930C36F3830C26FD890C333C2331A
:1007F000C051C203F350C46FF450C56FC051C3035E
:10080000F350C527C151C203F350C527190E106E0E
:10081000116A126A136AC451086EC551096E0A6AD8
:100820000B6A25EC00F014500001BE6F1550BF6F2D
:10083000D890BE35C06FBF35C16FD890C037C137B3
:10084000C051C86FC151C96FA4EF03F0010EEFECA6
:1008500002F0A80E0001CA6F610ECB6FCC6BCD6B9E
:1008600015EC03F0320ED2EC03F09EEC03F072EFC5
:1008700004F0DCEC02F008500001BB6F0950BC6FC3
:100880004D50106E116A126A136ABB51086EBC514A
:10089000096E0A6A0B6A25EC00F014504B6E155075
:1008A0004C6E47500001CA6F4850CB6F4950CC6F17
:1008B0004A50CD6F15EC03F04B500001C66F4C5001
:1008C000C76FCCEC03F094EC03F0F00EBD140C09F0
:1008D000BD6E3F0EBD148009BD6E800EB7140F09AA
:1008E000B76E1200D59AD596F80ED5140209D56EBA
:1008F000D58CF294959C959E95909592959495960D
:10090000BEEF04F0426E42B089EF04F08C908AEFA3
:1009100004F08C8042B290EF04F08C9291EF04F0DE
:100920008C8242B497EF04F08C9498EF04F08C849E
:1009300042B69EEF04F08C969FEF04F08C868C8E6E
:10094000000000000000000000008C9E12003D6EC0
:100950003D380F0B3E6E82EC04F03D5082EC04F00B
:10096000040ED9EF01F03C6E8C8C3C50A7EF04F0E4
:100970000001BA6F8C9CBA51A7EF04F03A6A23EFDA
:1009800005F0B96F040EB95DD8B4CAEF04F0D8A071
:10099000CBEF04F0B96BB951D8B4000CB905D8B499
:1009A000400C020EB95DD8B4140C030EB95DD8B476
:1009B000540C1200800E3A10B86FB8EF04F00850D3
:1009C0003B6EB3EF04F0B56FC1EC04F00001B76FFC
:1009D000B651B7253A6EDAEF04F0010EB8EC04F028
:1009E000B40ED9EF01F08C9C190E0001E66FE76B95
:1009F00004EC02F0030E82EC04F0050E0001E66F39
:100A0000E76B04EC02F0030E82EC04F00A0ED9EC62
:100A100001F0030E82EC04F0040ED9EC01F0020E9A
:100A200082EC04F0040ED9EC01F0280EB8EC04F0CE
:100A30001C0EB8EC04F00C0EB8EC04F0060EB8EC8A
:100A400004F0EDEF04F0F3EC04F04D0E0001636FE1
:100A5000690E646F200E656F430E666F6F0E676FD1
:100A6000630E686F690E696F6E0E6A6F610E6B6F51
:100A7000200E6C6F640E6D6F650E6E6F200E6F6FC3
:100A8000490E706F6E0E716F640E726F750E736F1C
:100A9000630E746F756F200E766F200E8B6F540E81
:100AA0008C6F690E8D6F650E8E6F6D0E8F6F700E71
:100AB000906F6F0E916F3A0E926F200E936F300E03
:100AC000946F956F3A0E966F300E976F986F3A0E3F
:100AD000996F300E9A6F9B6F200E9C6F9D6F9E6F6B
:100AE000EDEC04F0BE0E01010E6F090E0F6F000E4B
:100AF000106F140E116F126B630E136F146B156B66
:100B0000BCEC00F00A0E0001E06FE16B25EC02F096
:100B1000EDEC04F0F19CF19AF292F090F288F086FC
:100B2000F28E2BEF09F01200120000019FA5F4EFE6
:100B300005F05450575CB393D8B4B3835150565C0E
:100B4000B395D8B4B385B387B3B3B3A5B3975050B7
:100B5000555CB399D8B4B389B38BB3B7B3A9B39B7E
:100B6000B3BB9F91030E535CD8A4B9EF05F0E80E18
:100B7000525CD8B4BFEF05F0D8A0D5EF05F0E80E71
:100B8000106E030E116E126A136A5250086E5350A3
:100B9000096E0A6A0B6A25EC00F014500001B26F6E
:100BA00050260C50526E0D50536E3B0E505CD8B414
:100BB000E0EF05F0D8A0E0EF05F0506A512A1200EE
:100BC0003B0E515CD8B4EBEF05F0D8A0EBEF05F08D
:100BD000516A542A1200020E545CD8B4F4EF05F0A6
:100BE000D8A0F4EF05F0546A12009FA148EF06F078
:100BF000200E636F410E646F500E656F410E666F7D
:100C0000470E676F410E686F520E696F200E6A6F54
:100C10006B6F540E6C6F490E6D6F4D0E6E6F450EFF
:100C20006F6F520E706F200E716F726F500E736F78
:100C30004F0E746F540E756F200E766F8B51776F59
:100C40008C51786F8D51796F8E517A6F8F517B6F88
:100C500090517C6F91517D6F92517E6F93517F6F58
:100C60009451806F9551816F9651826F9751836F28
:100C70009851846F9951856F9A51866F9B51876FF8
:100C80009C51886F9D51896F9E518A6F89EF06F044
:100C9000200E636F410E646F430E656F540E666FD6
:100CA000490E676F560E686F410E696F520E6A6F7C
:100CB000200E6B6F6C6F6D6F500E6E6F4F0E6F6FFF
:100CC000540E706F450E716F4E0E726F430E736F40
:100CD000490E746F410E756F200E766F200E776F80
:100CE000786F796F7A6F7B6F7C6F7D6F540E7E6F3C
:100CF000490E7F6F4D0E806F450E816F520E826FD1
:100D0000200E836F846F856F866F876F886F896F02
:100D10008A6FEDEC04F0BE0E01010E6F090E0F6F2D
:100D2000000E106F140E116F126B630E136F146BA5
:100D3000156BBCEC00F00001B66B010EE3EC04F0A7
:100D4000BE0E01010E6F090E0F6F000E106F140E14
:100D5000116F126B770E136F146B156BBCEF00F0F5
:100D6000450E636F6E0E646F740E656F720E666F64
:100D7000610E676F720E686F200E696F650E6A6F85
:100D80006E0E6B6F200E6C6F6D0E6D6F6F0E6E6F53
:100D9000640E6F6F6F0E706F200E716F640E726F46
:100DA000650E736F620E746F750E756F670E766FDA
:100DB000200E776F786F796F7A6F7B6F7C6F7D6FA6
:100DC000530E7E6F490E7F6F200E806F816F826F92
:100DD000836F846F856F4E0E866F4F0E876F200E68
:100DE000886F896F8A6FEDEC04F00001B66B000E1E
:100DF000E3EC04F0BE0E01010E6F090E0F6F000E42
:100E0000106F140E116F126B630E136F146B156B52
:100E1000BCEC00F00001B66B010EE3EC04F0BE0E7A
:100E200001010E6F090E0F6F000E106F140E116F7F
:100E3000126B770E136F146B156BBCEF00F0EDECBB
:100E400004F00001B66B000EE3EC04F0040E0001A8
:100E5000605DD8B4F8EF07F0D8B0F8EF07F0605154
:100E6000B16FB06B4DEF07F0B66BB051E3EC04F02F
:100E7000BE0E01010E6F090E0F6F000E106F020EF5
:100E8000116F126B0C0E136F000E146F000E4009E1
:100E9000156FBCEC00F00001B02BB051B15DD8A4CF
:100EA00034EF07F0BE0E01010E6F090E0F6F000E3A
:100EB000106F020E116F126B0E0E136F000E146F77
:100EC000000E4009156FBCEC00F0BE0E01010E6F64
:100ED000090E0F6F000E106F060E116F126B220EAF
:100EE000136F000E146F000E4009156FBCEC00F07C
:100EF000BE0E0001F46F090EF56F000EF66F47503D
:100F0000F76F4850F86F4950F96F4A50FA6FA6ECE6
:100F100001F0020E0001B66F010EE3EC04F0BE0E0C
:100F200001010E6F090E0F6F000E106F050E116F8D
:100F3000126B280E136F000E146F000E4009156F10
:100F4000BCEC00F0BE0E0001EC6F090EED6F000E60
:100F5000EE6F4E50BDEC01F0020E0001B66F020EB6
:100F6000E3EC04F0BE0E01010E6F090E0F6F000ED0
:100F7000106F060E116F126B2E0E136F000E146F92
:100F8000000E4009156FBCEC00F0BE0E0001F46FBE
:100F9000090EF56F000EF66F4B50F76F4C50F86F5F
:100FA000F96BFA6BA6EC01F0020E0001B66F030EAE
:100FB000E3EC04F0BE0E01010E6F090E0F6F000E80
:100FC000106F0E0E116F126B340E136F000E146F34
:100FD000000E4009156FBCEC00F0BE0E0001EC6F76
:100FE000090EED6F000EEE6F9F51010BBDEF01F08A
:100FF000BE0E01010E6F090E0F6F000E106F020E74
:10100000116F126B100E136F000E146F000E40095B
:10101000156FBCEC00F0BE0E01010E6F090E0F6FD4
:10102000000E106F080E116F126B420E136F000E40
:10103000146F000E4009156FBCEF00F0200E636FB7
:10104000540E646F490E656F4D0E666F450E676FE7
:10105000520E686F200E696F6A6F6B6F6C6F6D6FE9
:101060006E6F6F6F706F716F726F736F746F756F7C
:10107000766FEDEC04F00001B66B000EE3EC04F0CB
:10108000BE0E01010E6F090E0F6F000E106F140ED1
:10109000116F126B630E136F146B156BBCEC00F0C9
:1010A0000001B66B010EE3EC04F0BE0E0001EC6F24
:1010B000090EED6F000EEE6F5750BDEC01F03A0EC9
:1010C000086EDFEC04F0BE0E0001EC6F090EED6F50
:1010D000000EEE6F5650BDEC01F03A0E086EDFECDC
:1010E00004F0BE0E0001EC6F090EED6F000EEE6F06
:1010F0005550BDEF01F0200E636F646F656F410EB8
:10110000666F630E676F740E686F690E696F760E97
:101110006A6F610E6B6F720E6C6F200E6D6F540EE6
:101120006E6F690E6F6F6D0E706F650E716F720E60
:10113000726F3F0E736F200E746F756F766F200E97
:10114000776F786F796F7A6F7B6F7C6F7D6F530EDF
:101150007E6F490E7F6F200E806F816F826F836F6D
:10116000846F856F4E0E866F4F0E876F200E886FCF
:10117000896F8A6FEDEC04F00001B66B000EE3ECB2
:1011800004F0BE0E01010E6F090E0F6F000E106FFE
:10119000140E116F126B630E136F146B156BBCEC96
:1011A00000F00001B66B010EE3EC04F0BE0E01018D
:1011B0000E6F090E0F6F000E106F140E116F126B71
:1011C000770E136F146B156BBCEF00F0EDEC04F0B1
:1011D0000001B66B000EE3EC04F0BE0E01010E6FD1
:1011E000090E0F6F000E106F070E116F126B1A0EA3
:1011F000136F000E146F000E4009156FBCEC00F069
:10120000020E4D5CD8A418EF09F0BE0E01010E6F5E
:10121000090E0F6F000E106F030E116F126B120E7E
:10122000136F000E146F000E4009156FBCEF00F035
:10123000BE0E01010E6F090E0F6F000E106F030E30
:10124000116F126B160E136F000E146F000E400913
:10125000156FBCEF00F04F50D8A48EEF09F00001DD
:101260009FA337EF09F0F5EC05F000019F93DF91A4
:1012700081B6DF815C50DC6F5D50DD6F4AEC02F0BF
:101280000001AE6FDC515C6EDD515D6E020EAE5D35
:10129000D8A44EEF09F0010E4F6E9F83DF9181B805
:1012A000DF815E50DC6F5F50DD6F4AEC02F00001C1
:1012B000AE6FDC515E6EDD515F6E020EAE5DD8A486
:1012C00065EF09F0020E4F6E9F83DF9181B4DF81DD
:1012D0005A50DC6F5B50DD6F4AEC02F00001AE6FDC
:1012E000DC515A6EDD515B6E020EAE5DD8A46EEF1E
:1012F0000CF09FA17FEF09F09F9180EF09F09F8193
:101300009F839FA188EF09F039EC04F06EEF0CF099
:101310009EEC03F08B948C9A6EEF0CF04F04D8A4E3
:1013200021EF0AF000019FA39AEF09F01EEC08F0EC
:1013300000019F93DF9181B4DF815A50DC6F5B50D5
:10134000DD6F4AEC02F00001AE6FDC515A6EDD51E8
:101350005B6E020EAE5DD8A4B3EF09F0030E4F6EC4
:101360009F836EEF0CF0DF9181B6DF815C50DC6F04
:101370005D50DD6F4AEC02F00001AE6FDC515C6E37
:10138000DD515D6EAE51D8A4EAEF09F0552A3C0E4E
:10139000555CD8B4CFEF09F0D8A0D3EF09F0556A67
:1013A000562A6EEF0CF03B0E565CD8B4DBEF09F01A
:1013B000D8A0DFEF09F0566A572A6EEF0CF0010E45
:1013C000575CD8B4E8EF09F0D8A0E8EF09F0576A05
:1013D0006EEF0CF0DF9181B8DF815E50DC6F5F5003
:1013E000DD6F4AEC02F00001AE6FDC515E6EDD5144
:1013F0005F6EAE51D8A46EEF0CF055063C0E555CF6
:10140000D8B406EF0AF0D8A00AEF0AF0556A5606DB
:101410006EEF0CF03B0E565CD8B412EF0AF0D8A079
:1014200016EF0AF0566A57066EEF0CF0010E575C85
:10143000D8B41FEF0AF0D8A01FEF0AF0576A6EEF7A
:101440000CF0020E4F5CD8A4B1EF0AF000019FA38C
:101450002EEF0AF0E6EC08F000019F93DF9181B4D3
:10146000DF815A50DC6F5B50DD6F4AEC02F0000107
:10147000AE6FDC515A6EDD515B6E020EAE5DD8A4CC
:1014800046EF0AF04F6A9F837EEF0AF0DF9181B644
:10149000DF815C50DC6F5D50DD6F4AEC02F00001D3
:1014A000AE6FDC515C6EDD515D6E020EAE5DD8A498
:1014B00063EF0AF0020E4D6E9FB139EC04F00001AB
:1014C0009F837EEF0AF0DF9181B8DF815E50DC6F91
:1014D0005F50DD6F4AEC02F00001AE6FDC515E6ED2
:1014E000DD515F6E020EAE5DD8A47EEF0AF0040EF1
:1014F0004D6E9FB139EC04F000019F83DF9181B400
:10150000DF815A50DC6F5B50DD6F4AEC02F0000166
:10151000AE6FDC515A6EDD515B6E020EAE5DA2996C
:10152000D8B4A289DF9181B6DF815C50DC6F5D5059
:10153000DD6F4AEC02F00001AF6FDC515C6EDD51F3
:101540005D6EAF51A28BD8A4A29BA28DA2B9A2AB13
:10155000A29DA2AD6EEF0CF0040E4F6E9F836EEF56
:101560000CF0030E4F5CD8A4EEEF0AF000019FA32D
:10157000BEEF0AF07BEC08F000019F93DF9181B68B
:10158000DF815C50DC6F5D50DD6F4AEC02F00001E2
:10159000AE6FDC515C6EDD515D6E020EAE5DD8A4A7
:1015A000D5EF0AF09F854F6A9F83DF9181B8DF8175
:1015B0005E50DC6F5F50DD6F4AEC02F00001AE6FF1
:1015C000DC515E6EDD515F6E020EAE5DD8A46EEF33
:1015D0000CF09F954F6A9F836EEF0CF0040E4F5CEA
:1015E000D8A42AEF0BF000019FA3FBEF0AF0B0ECA8
:1015F00006F000019F93DF9181B8DF815E50DC6FC0
:101600005F50DD6F4AEC02F00001AE6FDC515E6EA0
:10161000DD515F6E020EAE5DD8A411EF0BF04F6A84
:101620009F83DF9181B6DF815C50DC6F5D50DD6FA1
:101630004AEC02F00001AE6FDC515C6EDD515D6E74
:10164000020EAE5DD8A46EEF0CF0050E4F6E9F83B8
:101650006EEF0CF0050E4F5CD8A46EEF0CF000019D
:101660009FA337EF0BF01FEC07F000019F93605131
:10167000D8A4B1EF0BF0DF9181B6DF815C50DC6F55
:101680005D50DD6F4AEC02F00001AE6FDC515C6E24
:10169000DD515D6E020EAE5DD8A475EF0BF09F8339
:1016A000F40E4726010E4822000E4922000E4A225F
:1016B000000E4A5CD8A469EF0BF0000E495CD8A478
:1016C00069EF0BF0C30E485CD8A469EF0BF0500E25
:1016D000475CD8B46FEF0BF0D8A075EF0BF0500E4D
:1016E000476EC30E486E496A4A6ADF9181B6DF8150
:1016F0005C50DC6F5D50DD6F4AEC02F00001AE6FB4
:10170000DC515C6EDD515D6E020EAE5DD8A41BEF48
:101710000CF09F830C0E4726FE0E4822FF0E492236
:10172000FF0E4A22000E4A5CD8A4A3EF0BF0000E75
:10173000495CD8A4A3EF0BF0270E485CD8A4A3EF14
:101740000BF0100E475CD8B4A9EF0BF0D8B01BEF2C
:101750000CF0100E476E270E486E496A4A6A1BEF5E
:101760000CF0020E605DD8A4E9EF0BF0DF9181B6BA
:10177000DF815C50DC6F5D50DD6F4AEC02F00001F0
:10178000AE6FDC515C6EDD515D6E020EAE5DD8A4B5
:10179000CEEF0BF09F834B2AD8B44C2ADF9181B651
:1017A000DF815C50DC6F5D50DD6F4AEC02F00001C0
:1017B000AE6FDC515C6EDD515D6E020EAE5DD8A485
:1017C0001BEF0CF09F834B064B28D8B44C061BEF45
:1017D0000CF0030E605DD8A41BEF0CF0DF9181B616
:1017E000DF815C50DC6F5D50DD6F4AEC02F0000180
:1017F000AE6FDC515C6EDD515D6E020EAE5DD8B435
:1018000039EC04F00001DF9181B6DF815C50DC6FC0
:101810005D50DD6F4AEC02F00001AE6FDC515C6E92
:10182000DD515D6E020EAE5DD8A41BEF0CF09EEC98
:1018300003F08B948C9A0001DF9181B4DF815A50C0
:10184000DC6F5B50DD6F4AEC02F00001AE6FDC51E3
:101850005A6EDD515B6E020EAE5DD8A43BEF0CF00C
:10186000602B9F83040E605DD8B43AEF0CF0D8A0D3
:101870003BEF0CF0606B040E605DD8A46EEF0CF0D3
:10188000DF9181B6DF815C50DC6F5D50DD6F4AEC2B
:1018900002F00001AE6FDC515C6EDD515D6E020E38
:1018A000AE5DD8A457EF0CF04F6A606B9F83DF9159
:1018B00081B8DF815E50DC6F5F50DD6F4AEC02F073
:1018C0000001AE6FDC515E6EDD515F6E020EAE5DEB
:1018D000D8A46EEF0CF04F6A606B9F8395EC05F017
:1018E0002BEF09F0F2A47DEF0CF09FA57CEF0CF03C
:1018F000330E5226030E5322F294F2A284EF0CF020
:10190000F29E8A8EF292F28EF0A08BEF0CF0F29E95
:101910008A9EF090F28E1850086E1950096E1A5077
:101920000A6E1B500B6E1C500C6E1D500D6E1E501F
:101930000E6E1F500F6E2050106E2150116E2250EF
:10194000126E2350136E2450146E2550156E2650BF
:10195000166E2750176E3450F66E3550F76E3650AF
:10196000F86E3750F56E3250E96E3350EA6E3150F2
:0C1970002E6E2D502C6E2B502A6E110094
:020000040030CA
:0E000000240C391E008580000FC00FE00F4059
:00000001FF
