:020000040000FA
:040000009CEF00F081
:0800080067EF00F03530250020
:1000100032352500506F7765723A2000200E2A6E27
:100020000C6A0D6A0E6A0F6AD890143615361636A9
:100030001736D890083609360A360B360C360D3688
:100040000E360F360F50135CD8A433EF00F00E506D
:10005000125CD8A433EF00F00D50115CD8A433EF3C
:1000600000F00C50105CD8B439EF00F0D8B047EF76
:1000700000F0D8800C5010540C6E0D5011540D6EC1
:100080000E5012540E6E0F5013540F6E14802A2E01
:1000900014EF00F0120030BE61EF00F030BC57EFFB
:1000A00000F02F50EA6E2E50E96EEF5012002E50E5
:1000B000F66E2F50F76E30503F0BF86E0800F5507B
:1000C00012001200FB6E2F50FA6E2E50F96E0001D6
:1000D0002A502B6E2C502D6E2E50316EE950326E00
:1000E000EA50336EF650346EF750356EF850366E77
:1000F000F550376E0850186E0950196E0A501A6E76
:100100000B501B6E0C501C6E0D501D6E0E501E6E53
:100110000F501F6E1050206E1150216E1250226E23
:100120001350236E1450246E1550256E1650266EF3
:100130001750276EACEF08F0D190C26A0F0EC16E57
:10014000C06A070EB46E30EF02F0E151E66FE25183
:10015000E76FE651E96FE751EA6FE86BC8EF00F02F
:10016000E351E8252E6E000E096EE45109202F6E32
:10017000E5510920306E4BEC00F0086E0001DE51B5
:100180002E6EDF512F6EE05162EC00F00001E82B83
:10019000E851E95D086EEA510810D8A4B0EF00F00C
:1001A0001200D8904336443645364636D89043340C
:1001B000DA6F4434DB6F4534DC6F4634DD6FD89042
:1001C000DA37DB37DC37DD37DA514326DB514422BF
:1001D000DC514522DD5146221200010E436E446A75
:1001E000456A466AD26BD36B4650D15DD8A405EF01
:1001F00001F04550D05DD8A405EF01F04450CF5D2B
:10020000D8A405EF01F04350CE5DD591D8A4D8B065
:10021000D581000ED35DD8A410EF01F00A0ED25D97
:10022000D593D8B416EF01F0D8A0D583D585D5B134
:10023000D5A3D595D5A525EF01F0D1EC00F00001AF
:10024000D22BD8B4D32BF4EF00F0D251D311D8A4D1
:100250002DEF01F0010ED26FD36BD207D229D8B4A3
:10026000D307010E436E446A456A466AD251D66F7F
:10027000D351D76FD86BD96B44EF01F0D1EC00F0BC
:100280000001D82BD8B4D92BD851D65D086ED951DE
:10029000D75D0810D8A43EEF01F0300ED46FD151D5
:1002A000465CD8A460EF01F0D051455CD8A460EF63
:1002B00001F0CF51445CD8A460EF01F0CE51435C13
:1002C000D8B466EF01F0D8B076EF01F0D880CE5107
:1002D0004354CE6FCF514454CF6FD0514554D06F5B
:1002E000D1514654D16FD42B4FEF01F0D451086E49
:1002F000CB512E6ECC512F6ECD5162EC00F000012F
:10030000D251D311D8A42DEF01F01200C66FC76FE0
:10031000C86BC96BCA6BC351CB6FC451CC6FC5518D
:10032000CD6FC751CE6FC851CF6FC951D06FCA5171
:10033000D16FEDEF00F03F6E3F50D8B412003F0494
:10034000D8A4ACEF01F000010A0E086E082EA6EF4B
:1003500001F00000000012003F060001070E086EC9
:10036000082EB0EF01F000003F50406E416AC0EF30
:1003700001F000010E0E086E082EBCEF01F0412ABC
:100380004150405CD8A4B9EF01F01200BD51BF6FDD
:10039000BE51C06FC16BC26BDDEF01F00001090EF1
:1003A000086EB70E096E092ED3EF01F0082ED1EFBB
:1003B00001F00000C12BD8B4C22BC151BF5D086E43
:1003C000C251C05D0810D8A4CEEF01F01200B751A1
:1003D000B96FB851BA6FBB6BBC6B02EF02F0000192
:1003E000110E086E570E096E6F0E0A6E0A2EF6EF8A
:1003F00001F0092EF4EF01F0082EF2EF01F0BB2B13
:10040000D8B4BC2BBB51B95D086EBC51BA5D0810A5
:10041000D8A4EFEF01F01200B393D884B6A116EF81
:1004200002F0B3A117EF02F018EF02F0B3B1D894C5
:10043000D8A420EF02F0030EB311B46F2CEF02F03A
:10044000B407B451D8A42CEF02F0B391B6B1B38184
:10045000030EB311B46FB383030EB315B56F12005F
:100460009494959A8B948C9A938093829388938694
:100470009384939E0A0EB76FB86BE7EC01F0020EFF
:10048000496E4A6A0001859185838595300E866F95
:10049000030E8611876F8651536E8751546E5350E9
:1004A000556E5450566E300E886F030E8811896F4A
:1004B0008851536E8951546E5350576E5450586E34
:1004C000300E8A6F030E8A118B6F8A51536E8B51D7
:1004D000546E5350596E54505A6E386A010E396E2C
:1004E00026EF03F0D8903834AF6F3934B06FD8901E
:1004F000AF37B037030EAF25B16F000EB021B26F2A
:10050000B151086EB251096E1200AE6F386A010E19
:10051000396E3804CB6EAE05D8A493EF02F0FC0E12
:10052000CA16CA841200040EAE5DD8A49EEF02F073
:10053000FC0ECA140109CA6ECA841200100EAE5D08
:10054000D8A4A9EF02F0FC0ECA140209CA6ECA842C
:100550001200CA941200A551106EA651116EA75137
:10056000126EA851136E086A2D0E096E310E0A6EB6
:10057000010E0B6E0EEC00F014500001A96F155027
:10058000AA6FD890AA31AC6FA931AB6FD890AC33B9
:10059000AB33CA6AAB51AC11AD81D8B4AD91100E7A
:1005A000AC5DD8A4D6EF02F0000EAB5DAD93D8A43D
:1005B000D8A0AD83AD85ADB1ADA3AD95ADA525EF0B
:1005C00003F0010EAC5DD8A4E8EF02F0000EAB5DC5
:1005D000D8B4EEEF02F0D8B0F6EF02F0AB51386EBF
:1005E000AC51396EFC0ECA1622EF03F0040EAC5D5E
:1005F000D8A4FDEF02F0000EAB5DD8B403EF03F01A
:10060000D8B011EF03F0D890AC31396EAB31386E01
:10061000D89039323832FC0ECA140109CA6E22EF62
:1006200003F0D890AC31396EAB31386E030E086EE2
:10063000D89039323832082E18EF03F0FC0ECA1465
:100640000209CA6E3804CB6ECA8412005B6A5C6A07
:10065000BAEF03F0F00E5C140C095C6E5B50BE6EDA
:100660005C50BD6E1200F00E5C165C50BD6E120048
:10067000030EA45DD8A43FEF03F0FF0EA35DD8B432
:1006800049EF03F0D8A049EF03F0FF0EA36F030E6C
:10069000A46FD890A431096EA331086ED8900932A6
:1006A000083208505B6E030EA315086E0838096EF9
:1006B000300E0916CF0E5C1409105C6E2AEF03F0A1
:1006C000A151A36FA251A46F38EF03F00001986FFE
:1006D0009851D8A470EF03F0996B9A6BACEF03F0CC
:1006E000640E985DD8B478EF03F0D8A081EF03F0E2
:1006F00039509A6F3804996F9929D8B49A07ACEF9A
:1007000003F098519B6F9C6BD89039309E6F3830B6
:100710009D6FD8909E339D339B519D03F3509F6FE7
:10072000F450A06F9B519E03F350A0279C519D0352
:10073000F350A027190E106E116A126A136A9F51A6
:10074000086EA051096E0A6A0B6A0EEC00F0145094
:100750000001996F15509A6FD89099359B6F9A3513
:100760009C6FD8909B379C379B51A36F9C51A46F73
:1007700038EF03F0010E85EC02F0A80E0001A56F22
:10078000610EA66FA76BA86BABEC02F0320E66ECA5
:1007900003F033EC03F004EF04F072EC02F00850C5
:1007A0000001966F0950976F4950106E116A126AD6
:1007B000136A9651086E9751096E0A6A0B6A0EEC1D
:1007C00000F01450476E1550486E500E0001A56F92
:1007D000C30EA66FA76BA86BABEC02F047500001ED
:1007E000A16F4850A26F60EC03F02AEC03F0F00E0A
:1007F000BD140C09BD6E3F0EBD148009BD6E800E88
:10080000B7140F09B76E1200D59AD596F80ED51405
:100810000209D56ED58CF294959C959E95909592F3
:100820009594959650EF04F0426E42B01BEF04F0A1
:100830008C901CEF04F08C8042B222EF04F08C927A
:1008400023EF04F08C8242B429EF04F08C942AEF59
:1008500004F08C8442B630EF04F08C9631EF04F053
:100860008C868C8E000000000000000000008C9E32
:1008700012003D6E3D380F0B3E6E14EC04F03D50FF
:1008800014EC04F0040E9BEF01F03C6E8C8C3C5099
:1008900039EF04F00001956F8C9C955139EF04F00D
:1008A0003A6AB5EF04F0946F040E945DD8B45CEF2F
:1008B00004F0D8A05DEF04F0946B9451D8B4000C10
:1008C0009405D8B4400C020E945DD8B4140C030EF9
:1008D000945DD8B4540C1200800E3A10936F4AEF16
:1008E00004F008503B6E45EF04F0906F53EC04F0B9
:1008F0000001926F915192253A6E6CEF04F0010E57
:100900004AEC04F0B40E9BEF01F08C9C190E000130
:10091000BD6FBE6BC6EC01F0030E14EC04F0050EC7
:100920000001BD6FBE6BC6EC01F0030E14EC04F0C9
:100930000A0E9BEC01F0030E14EC04F0040E9BEC89
:1009400001F0020E14EC04F0040E9BEC01F0280EF2
:100950004AEC04F01C0E4AEC04F00C0E4AEC04F0D5
:10096000060E4AEC04F07FEF04F085EC04F04D0E27
:1009700000015D6F690E5E6F200E5F6F430E606F4A
:100980006F0E616F630E626F690E636F6E0E646F40
:10099000610E656F200E666F640E676F650E686F7F
:1009A000200E696F490E6A6F6E0E6B6F640E6C6F6E
:1009B000750E6D6F630E6E6F6F6F200E706F7FEC34
:1009C00004F0E20E0001DE6F080EDF6F000EE06F34
:1009D000140EE16FE26B5D0EE36FE46BE56BA5EC6B
:1009E00000F00A0E0001B76FB86BE7EC01F07FEC86
:1009F00004F0F19CF19AF292F090F288F086F28E77
:100A000018EF07F012001200000185A563EF05F052
:100A10004F50525C8E93D8B48E834C50515C8E955F
:100A2000D8B48E858E878EB38EA58E974B50505C32
:100A30008E99D8B48E898E8B8EB78EA98E9B8EBBE5
:100A40008591030E4E5CD8A428EF05F0E80E4D5CAE
:100A5000D8B42EEF05F0D8A044EF05F0E80E106EE4
:100A6000030E116E126A136A4D50086E4E50096ED5
:100A70000A6A0B6A0EEC00F0145000018D6F4B26D1
:100A80000C504D6E0D504E6E3B0E4B5CD8B44FEF7C
:100A900005F0D8A04FEF05F04B6A4C2A12003B0E30
:100AA0004C5CD8B45AEF05F0D8A05AEF05F04C6A68
:100AB0004F2A1200020E4F5CD8B463EF05F0D8A0A5
:100AC00063EF05F04F6A120085A1A3EF05F0200E39
:100AD000716F410E726F500E736F410E746F470E3F
:100AE000756F410E766F520E776F200E786F796FAB
:100AF000540E7A6F490E7B6F4D0E7C6F450E7D6FE5
:100B0000520E7E6F200E7F6F806F500E816F4F0EE2
:100B1000826F540E836F200E846F5D6B5E6B5F6B14
:100B2000606B616B626B636B646B656B666B676B51
:100B3000686B696B6A6B6B6B6C6B6D6B6E6B6F6B01
:100B4000706BE4EF05F0200E5D6F410E5E6F430E9B
:100B50005F6F540E606F490E616F560E626F410EEB
:100B6000636F520E646F200E656F666F676F500E75
:100B7000686F4F0E696F540E6A6F450E6B6F4E0EA5
:100B80006C6F430E6D6F490E6E6F410E6F6F200ECE
:100B9000706F200E716F726F736F746F756F766FF9
:100BA000776F540E786F490E796F4D0E7A6F450E40
:100BB0007B6F520E7C6F200E7D6F7E6F7F6F806F1C
:100BC000816F826F836F846F7FEC04F0E20E00010F
:100BD000DE6F080EDF6F000EE06F140EE16FE26B48
:100BE0005D0EE36FE46BE56BA5EC00F00001916B2B
:100BF000010E75EC04F0E20E0001DE6F080EDF6FEF
:100C0000000EE06F140EE16FE26B710EE36FE46BA8
:100C1000E56BA5EF00F0200E5D6F540E5E6F490E80
:100C20005F6F4D0E606F450E616F520E626F200E4A
:100C3000636F646F656F666F676F686F696F6A6F08
:100C40006B6F6C6F6D6F6E6F6F6F706F7FEC04F01A
:100C50000001916B000E75EC04F0E20E0001DE6FF6
:100C6000080EDF6F000EE06F140EE16FE26B5D0E99
:100C7000E36FE46BE56BA5EC00F00001916B010EF6
:100C800075EC04F0E20E0001C36F080EC46F000E95
:100C9000C56F525086EC01F03A0E086E71EC04F00C
:100CA000E20E0001C36F080EC46F000EC56F5150F5
:100CB00086EC01F03A0E086E71EC04F0E20E0001D1
:100CC000C36F080EC46F000EC56F505086EF01F061
:100CD000200E5D6F5E6F5F6F410E606F630E616F20
:100CE000740E626F690E636F760E646F610E656FCE
:100CF000720E666F200E676F540E686F690E696F13
:100D00006D0E6A6F650E6B6F720E6C6F3F0E6D6FBE
:100D1000200E6E6F6F6F706F200E716F726F736F3A
:100D2000746F756F766F776F530E786F490E796FAA
:100D3000200E7A6F7B6F7C6F7D6F7E6F7F6F4E0EA4
:100D4000806F4F0E816F200E826F836F846F7FECF8
:100D500004F00001916B000E75EC04F0E20E00014E
:100D6000DE6F080EDF6F000EE06F140EE16FE26BB6
:100D70005D0EE36FE46BE56BA5EC00F00001916B99
:100D8000010E75EC04F0E20E0001DE6F080EDF6F5D
:100D9000000EE06F140EE16FE26B710EE36FE46B17
:100DA000E56BA5EF00F07FEC04F00001916B000E05
:100DB00075EC04F0E20E0001DE6F080EDF6F000E2E
:100DC000E06F070EE16FE26B140EE36F000EE46F4D
:100DD000000E4009E56FA5EC00F0020E495CD8A4B6
:100DE00005EF07F0E20E0001DE6F080EDF6F000E68
:100DF000E06F030EE16FE26B0C0EE36F000EE46F29
:100E0000000E4009E56FA5EF00F0E20E0001DE6F75
:100E1000080EDF6F000EE06F030EE16FE26B100E45
:100E2000E36F000EE46F000E4009E56FA5EF00F0E0
:100E30004A50D8A47BEF07F0000185A324EF07F008
:100E400064EC05F000018593B69181B6B6815750E8
:100E5000B36F5850B46F0CEC02F000018C6FB351BB
:100E6000576EB451586E020E8C5DD8A43BEF07F05C
:100E7000010E4A6E8583B69181B4B6815950B36F25
:100E80005A50B46F0CEC02F000018C6FB351596EE4
:100E9000B4515A6E020E8C5DD8A452EF07F0020EC8
:100EA0004A6E8583B69181B8B6815550B36F56505E
:100EB000B46F0CEC02F000018C6FB351556EB4515D
:100EC000566E020E8C5DD8A4A8EF08F085A16CEFD9
:100ED00007F085916DEF07F08581858385A175EF1A
:100EE00007F0CDEC03F0A8EF08F033EC03F08B949F
:100EF0008C9AA8EF08F04A04D8A40EEF08F000017D
:100F000085A387EF07F00BEC06F000018593B691FF
:100F100081B8B6815550B36F5650B46F0CEC02F0E7
:100F200000018C6FB351556EB451566E020E8C5D3C
:100F3000D8A4A0EF07F0030E4A6E8583A8EF08F04F
:100F4000B69181B6B6815750B36F5850B46F0CEC60
:100F500002F000018C6FB351576EB451586E8C5132
:100F6000D8A4D7EF07F0502A3C0E505CD8B4BCEFA1
:100F700007F0D8A0C0EF07F0506A512AA8EF08F098
:100F80003B0E515CD8B4C8EF07F0D8A0CCEF07F007
:100F9000516A522AA8EF08F0010E525CD8B4D5EF7E
:100FA00007F0D8A0D5EF07F0526AA8EF08F0B69185
:100FB00081B4B6815950B36F5A50B46F0CEC02F043
:100FC00000018C6FB351596EB4515A6E8C51D8A434
:100FD000A8EF08F050063C0E505CD8B4F3EF07F0D1
:100FE000D8A0F7EF07F0506A5106A8EF08F03B0EC3
:100FF000515CD8B4FFEF07F0D8A003EF08F0516AB6
:101000005206A8EF08F0010E525CD8B40CEF08F0BD
:10101000D8A00CEF08F0526AA8EF08F0020E4A5C64
:10102000D8A46DEF08F0000185A31BEF08F0D3EC06
:1010300006F000018593B69181B8B6815550B36F23
:101040005650B46F0CEC02F000018C6FB351556E2A
:10105000B451566E020E8C5DD8A433EF08F04A6A84
:101060008583A8EF08F0B69181B6B6815750B36F6B
:101070005850B46F0CEC02F000018C6FB351576EF6
:10108000B451586E020E8C5DD8A450EF08F0020ED9
:10109000496E85B1CDEC03F000018583A8EF08F01F
:1010A000B69181B4B6815950B36F5A50B46F0CECFD
:1010B00002F000018C6FB351596EB4515A6E020E9A
:1010C0008C5DD8A46BEF08F0040E496E85B1CDECB1
:1010D00003F000018583A8EF08F0030E4A5CD8A452
:1010E000A8EF08F0000185A37AEF08F068EC06F09D
:1010F00000018593B69181B6B6815750B36F5850B1
:10110000B46F0CEC02F000018C6FB351576EB45108
:10111000586E020E8C5DD8A491EF08F085854A6A5E
:101120008583B69181B4B6815950B36F5A50B46F6C
:101130000CEC02F000018C6FB351596EB4515A6E31
:10114000020E8C5DD8A4A8EF08F085954A6A8583C5
:1011500004EC05F018EF07F0F2A4B7EF08F085A54E
:10116000B6EF08F0330E4D26030E4E22F294F2A293
:10117000BEEF08F0F29E8A8EF292F28EF0A0C5EFDA
:1011800008F0F29E8A9EF090F28E1850086E195068
:10119000096E1A500A6E1B500B6E1C500C6E1D50BF
:1011A0000D6E1E500E6E1F500F6E2050106E21508F
:1011B000116E2250126E2350136E2450146E25505F
:1011C000156E2650166E2750176E3450F66E355039
:1011D000F76E3650F86E3750F56E3250E96E335078
:1011E000EA6E31502E6E2D502C6E2B502A6E11004F
:020000040030CA
:0E000000240C391E008580000FC00FE00F4059
:00000001FF
