:020000040000FA
:04000000AEEF00F06F
:0800080079EF00F020202D3EED
:100010003530250032352500506F7765723A200063
:10002000467265713A205068693A200064757479A7
:100030003A20506F776572207374617475733A203B
:10004000200E2A6E0C6A0D6A0E6A0F6AD89014365A
:10005000153616361736D890083609360A360B3656
:100060000C360D360E360F360F50135CD8A445EF04
:1000700000F00E50125CD8A445EF00F00D50115C5A
:10008000D8A445EF00F00C50105CD8B44BEF00F052
:10009000D8B059EF00F0D8800C5010540C6E0D50B1
:1000A00011540D6E0E5012540E6E0F5013540F6EED
:1000B00014802A2E26EF00F0120030BE73EF00F0FD
:1000C00030BC69EF00F02F50EA6E2E50E96EEF5011
:1000D00012002E50F66E2F50F76E30503F0BF86E18
:1000E0000800F55012001200FB6E2F50FA6E2E50D1
:1000F000F96E00012A502B6E2C502D6E2E50316E51
:10010000E950326EEA50336EF650346EF750356E69
:10011000F850366EF550376E0850186E0950196E4B
:100120000A501A6E0B501B6E0C501C6E0D501D6E3B
:100130000E501E6E0F501F6E1050206E1150216E0B
:100140001250226E1350236E1450246E1550256EDB
:100150001650266E1750276E27EF0CF0D190C26A0A
:100160000F0EC16EC06A070EB46E69EF02F0115136
:10017000166F1251176F1651196F17511A6F186BAE
:10018000DAEF00F0135118252E6E000E096E14518F
:1001900009202F6E15510920306E5DEC00F0086EBD
:1001A00001010E512E6E0F512F6E105174EC00F0A4
:1001B0000101182B1851195D086E1A510810D8A4A6
:1001C000C2EF00F01200D89043364436453646362A
:1001D000D89043340A6F44340B6F45340C6F463467
:1001E0000D6FD8900A370B370C370D370A5143265D
:1001F0000B5144220C5145220D5146221200010E92
:10020000436E446A456A466A0001FE6BFF6B4650C6
:100210000101035DD8A419EF01F04550025DD8A497
:1002200019EF01F04450015DD8A419EF01F04350DB
:10023000005D0591D8A4D8B00581000E0001FF5DD6
:10024000D8A425EF01F00A0EFE5D01010593D8B494
:100250002CEF01F0D8A00583058505B105A3059510
:1002600005A53BEF01F0E3EC00F00001FE2BD8B454
:10027000FF2B07EF01F00001FE51FF11D8A444EF5E
:1002800001F0010EFE6FFF6BFE07FE29D8B4FF07D9
:10029000010E436E446A456A466AFE510101066FCB
:1002A0000001FF510101076F086B096B5EEF01F060
:1002B000E3EC00F00101082BD8B4092B0851065DCE
:1002C000086E0951075D0810D8A458EF01F0300EF0
:1002D000046F0351465CD8A47AEF01F00251455CEB
:1002E000D8A47AEF01F00151445CD8A47AEF01F070
:1002F0000051435CD8B480EF01F0D8B090EF01F02A
:10030000D88000514354006F01514454016F025191
:100310004554026F03514654036F042B69EF01F0FB
:100320000451086E0001FB512E6EFC512F6EFD51E1
:1003300074EC00F00001FE51FF11D8A444EF01F06D
:100340001200F451FB6FF551FC6FF651FD6FF75140
:100350000101006F0001F8510101016F0001F95125
:100360000101026F0001FA510101036FFFEF00F07C
:10037000EF6FF06FF16BF26BF36BEC51FB6FED51C4
:10038000FC6FEE51FD6FF0510101006F0001F15162
:100390000101016F0001F2510101026F0001F351EF
:1003A0000101036FFFEF00F03F6E3F50D8B4120021
:1003B0003F04D8A4E5EF01F000010A0E086E082EF4
:1003C000DFEF01F00000000012003F060001070E01
:1003D000086E082EE9EF01F000003F50406E416AC0
:1003E000F9EF01F000010E0E086E082EF5EF01F096
:1003F000412A4150405CD8A4F2EF01F01200E651CE
:10040000E86FE751E96FEA6BEB6B16EF02F0000162
:10041000090E086EB70E096E092E0CEF02F0082EB9
:100420000AEF02F00000EA2BD8B4EB2BEA51E85DAA
:10043000086EEB51E95D0810D8A407EF02F0120036
:10044000E051E26FE151E36FE46BE56B3BEF02F0EB
:100450000001110E086E570E096E6F0E0A6E0A2EFD
:100460002FEF02F0092E2DEF02F0082E2BEF02F0F5
:10047000E42BD8B4E52BE451E25D086EE551E35D71
:100480000810D8A428EF02F01200DC93D884DFA172
:100490004FEF02F0DCA150EF02F051EF02F0DCB1BF
:1004A000D894D8A459EF02F0030EDC11DD6F65EF8C
:1004B00002F0DD07DD51D8A465EF02F0DC91DFB179
:1004C000DC81030EDC11DD6FDC83030EDC15DE6FD7
:1004D00012009494959A8B948C9A9380938293882B
:1004E00093869384939E0A0EE06FE16B20EC02F0FA
:1004F0000F0E00019F1792800F0E9F15E0099F6F4E
:100500009F39086E0F0E08160F0E0814096EF00EB4
:10051000C1140910C16EA76BA739086E300E0816FA
:10052000CF0EC1140810C16EF80EC0140509C06EBC
:10053000C70EC016500E476EC30E486E496A4A6A0F
:10054000020E4D6E4E6A4F6A9F919F839F95300EAB
:10055000A86F030EA811A96FA851586EA951596E22
:1005600058505A6E59505B6E300EAA6F030EAA1186
:10057000AB6FAA51586EAB51596E58505C6E5950C2
:100580005D6E300EAC6F030EAC11AD6FAC51586E9A
:10059000AD51596E58505E6E59505F6E606B9F97AB
:1005A000386A010E396E89EF03F0D8903834D46F71
:1005B0003934D56FD890D437D537030ED425D66FBC
:1005C000000ED521D76FD651086ED751096E120093
:1005D000D36F386A010E396E3804CB6ED305D8A4B8
:1005E000F6EF02F0FC0ECA16CA841200040ED35DA8
:1005F000D8A401EF03F0FC0ECA140109CA6ECA8424
:100600001200100ED35DD8A40CEF03F0FC0ECA1438
:100610000209CA6ECA841200CA941200CA51106E2E
:10062000CB51116ECC51126ECD51136E086A2D0E46
:10063000096E310E0A6E010E0B6E20EC00F01450A4
:100640000001CE6F1550CF6FD890CF31D16FCE3122
:10065000D06FD890D133D033CA6AD051D111D28162
:10066000D8B4D291100ED15DD8A439EF03F0000EAA
:10067000D05DD293D8A4D8A0D283D285D2B1D2A350
:10068000D295D2A588EF03F0010ED15DD8A44BEF2F
:1006900003F0000ED05DD8B451EF03F0D8B059EF9D
:1006A00003F0D051386ED151396EFC0ECA1685EF69
:1006B00003F0040ED15DD8A460EF03F0000ED05D0E
:1006C000D8B466EF03F0D8B074EF03F0D890D1310E
:1006D000396ED031386ED89039323832FC0ECA14A7
:1006E0000109CA6E85EF03F0D890D131396ED0314F
:1006F000386E030E086ED89039323832082E7BEFF0
:1007000003F0FC0ECA140209CA6E3804CB6ECA8408
:100710001200616B626B1FEF04F0F00E00016215B6
:100720000C09626F6151BE6E6251BD6E1200F00E17
:10073000000162176251BD6E1200030EC95DD8A49C
:10074000A4EF03F0FF0EC85DD8B4AEEF03F0D8A05D
:10075000AEEF03F0FF0EC86F030EC96FD890C9311A
:10076000096EC831086ED890093208320850616F9E
:10077000030EC815086E0838096E300E0916CF0E24
:1007800062150910626F8DEF03F0C651C86FC75133
:10079000C96F9DEF03F00001BD6FBD51D8A4D5EF27
:1007A00003F0BE6BBF6B11EF04F0640EBD5DD8B4F7
:1007B000DDEF03F0D8A0E6EF03F03950BF6F380447
:1007C000BE6FBE29D8B4BF0711EF04F0BD51C06F92
:1007D000C16BD8903930C36F3830C26FD890C333F3
:1007E000C233C051C203F350C46FF450C56FC0513F
:1007F000C303F350C527C151C203F350C527190ED7
:10080000106E116A126A136AC451086EC551096EDE
:100810000A6A0B6A20EC00F014500001BE6F1550FC
:10082000BF6FD890BE35C06FBF35C16FD890C0378D
:10083000C137C051C86FC151C96F9DEF03F0010EA0
:10084000E8EC02F0A80E0001CA6F610ECB6FCC6B12
:10085000CD6B0EEC03F0320ECBEC03F097EC03F013
:100860006BEF04F0D5EC02F008500001BB6F0950AB
:10087000BC6F4D50106E116A126A136ABB51086E3C
:10088000BC51096E0A6A0B6A20EC00F014504B6EE2
:1008900015504C6E47500001CA6F4850CB6F4950FD
:1008A000CC6F4A50CD6F0EEC03F04B500001C66F79
:1008B0004C50C76FC5EC03F08DEC03F0F00EBD1487
:1008C0000C09BD6E3F0EBD148009BD6E800EB714BD
:1008D0000F09B76E1200D59AD596F80ED5140209F5
:1008E000D56ED58CF294959C959E95909592959405
:1008F0009596B7EF04F0426E42B082EF04F08C9010
:1009000083EF04F08C8042B289EF04F08C928AEF7E
:1009100004F08C8242B490EF04F08C9491EF04F0D8
:100920008C8442B697EF04F08C9698EF04F08C8696
:100930008C8E000000000000000000008C9E120061
:100940003D6E3D380F0B3E6E7BEC04F03D507BEC72
:1009500004F0040ED4EF01F03C6E8C8C3C50A0EF00
:1009600004F00001BA6F8C9CBA51A0EF04F03A6A0F
:100970001CEF05F0B96F040EB95DD8B4C3EF04F0F5
:10098000D8A0C4EF04F0B96BB951D8B4000CB905C4
:10099000D8B4400C020EB95DD8B4140C030EB95D86
:1009A000D8B4540C1200800E3A10B86FB1EF04F0B6
:1009B00008503B6EACEF04F0B56FBAEC04F00001E8
:1009C000B76FB651B7253A6ED3EF04F0010EB1EC14
:1009D00004F0B40ED4EF01F08C9C190E0001E66F08
:1009E000E76BFFEC01F0030E7BEC04F0050E000159
:1009F000E66FE76BFFEC01F0030E7BEC04F00A0EF0
:100A0000D4EC01F0030E7BEC04F0040ED4EC01F006
:100A1000020E7BEC04F0040ED4EC01F0280EB1ECD5
:100A200004F01C0EB1EC04F00C0EB1EC04F0060E58
:100A3000B1EC04F0E6EF04F0ECEC04F04D0E000134
:100A4000636F690E646F200E656F430E666F6F0EE5
:100A5000676F630E686F690E696F6E0E6A6F610E65
:100A60006B6F200E6C6F640E6D6F650E6E6F200ED7
:100A70006F6F490E706F6E0E716F640E726F750E30
:100A8000736F630E746F756F200E766F200E8B6F11
:100A9000540E8C6F690E8D6F650E8E6F6D0E8F6F9D
:100AA000700E906F6F0E916F3A0E926F200E936FD3
:100AB000300E946F956F3A0E966F300E976F986F59
:100AC0003A0E996F300E9A6F9B6F200E9C6F9D6F40
:100AD0009E6FE6EC04F0B00E01010E6F090E0F6F71
:100AE000000E106F140E116F126B630E136F146BE8
:100AF000156BB7EC00F00A0E0001E06FE16B20EC23
:100B000002F0E6EC04F0F19CF19AF292F090F28897
:100B1000F086F28EF2EF08F01200120000019FA59D
:100B2000EDEF05F05450575CB393D8B4B3835150F4
:100B3000565CB395D8B4B385B387B3B3B3A5B397B5
:100B40005050555CB399D8B4B389B38BB3B7B3A93C
:100B5000B39BB3BB9F91030E535CD8A4B2EF05F0D7
:100B6000E80E525CD8B4B8EF05F0D8A0CEEF05F08F
:100B7000E80E106E030E116E126A136A5250086E60
:100B80005350096E0A6A0B6A20EC00F01450000101
:100B9000B26F50260C50526E0D50536E3B0E505C8F
:100BA000D8B4D9EF05F0D8A0D9EF05F0506A512A92
:100BB00012003B0E515CD8B4E4EF05F0D8A0E4EF8E
:100BC00005F0516A542A1200020E545CD8B4EDEFBD
:100BD00005F0D8A0EDEF05F0546A12009FA141EF97
:100BE00006F0200E636F410E646F500E656F410E6C
:100BF000666F470E676F410E686F520E696F200E69
:100C00006A6F6B6F540E6C6F490E6D6F4D0E6E6F89
:100C1000450E6F6F520E706F200E716F726F500E17
:100C2000736F4F0E746F540E756F200E766F8B516D
:100C3000776F8C51786F8D51796F8E517A6F8F519C
:100C40007B6F90517C6F91517D6F92517E6F93516C
:100C50007F6F9451806F9551816F9651826F97513C
:100C6000836F9851846F9951856F9A51866F9B510C
:100C7000876F9C51886F9D51896F9E518A6F82EF5B
:100C800006F0200E636F410E646F430E656F540EC5
:100C9000666F490E676F560E686F410E696F520E90
:100CA0006A6F200E6B6F6C6F6D6F500E6E6F4F0E14
:100CB0006F6F540E706F450E716F4E0E726F430E54
:100CC000736F490E746F410E756F200E766F200E94
:100CD000776F786F796F7A6F7B6F7C6F7D6F540E53
:100CE0007E6F490E7F6F4D0E806F450E816F520EE5
:100CF000826F200E836F846F856F866F876F886F1A
:100D0000896F8A6FE6EC04F0B00E01010E6F090ED8
:100D10000F6F000E106F140E116F126B630E136FB6
:100D2000146B156BB7EC00F00001B66B010EDCEC38
:100D300004F0B00E01010E6F090E0F6F000E106F60
:100D4000140E116F126B770E136F146B156BB7EFD8
:100D500000F0450E636F6E0E646F740E656F720E59
:100D6000666F610E676F720E686F200E696F650E99
:100D70006A6F6E0E6B6F200E6C6F6D0E6D6F6F0E67
:100D80006E6F640E6F6F6F0E706F200E716F640E5A
:100D9000726F650E736F620E746F750E756F670EEE
:100DA000766F200E776F786F796F7A6F7B6F7C6FBD
:100DB0007D6F530E7E6F490E7F6F200E806F816FA7
:100DC000826F836F846F856F4E0E866F4F0E876FB5
:100DD000200E886F896F8A6FE6EC04F00001B66B15
:100DE000000EDCEC04F0B00E01010E6F090E0F6F67
:100DF000000E106F140E116F126B630E136F146BD5
:100E0000156BB7EC00F00001B66B010EDCEC04F0E2
:100E1000B00E01010E6F090E0F6F000E106F140E51
:100E2000116F126B770E136F146B156BB7EF00F029
:100E3000E6EC04F00001B66B000EDCEC04F00001FF
:100E40006051B06FB16B3AEF07F0B00E01010E6F59
:100E5000090E0F6F000E106F020E116F126B0C0E49
:100E6000136F000E146F000E4009156FB7EC00F001
:100E70000001B12BB151B05DD8A425EF07F0B00E41
:100E800001010E6F090E0F6F000E106F020E116F31
:100E9000126B0E0E136F000E146F000E4009156FCB
:100EA000B7EC00F0B00E01010E6F090E0F6F000ECF
:100EB000106F060E116F126B200E136F000E146F61
:100EC000000E4009156FB7EC00F0B00E0001F46F92
:100ED000090EF56F000EF66F4750F76F4850F86F28
:100EE0004950F96F4A50FA6FA1EC01F0020E00016F
:100EF000B66F010EDCEC04F0B00E01010E6F090EAE
:100F00000F6F000E106F050E116F126B260E136F10
:100F1000000E146F000E4009156FB7EC00F0B00E14
:100F20000001EC6F090EED6F000EEE6F4E50B8EC45
:100F300001F0020E0001B66F020EDCEC04F0B00E00
:100F400001010E6F090E0F6F000E106F060E116F6C
:100F5000126B2C0E136F000E146F000E4009156FEC
:100F6000B7EC00F0B00E0001F46F090EF56F000E43
:100F7000F66F4B50F76F4C50F86FF96BFA6BA1ECB2
:100F800001F0020E0001B66F030EDCEC04F0B00EAF
:100F900001010E6F090E0F6F000E106F0E0E116F14
:100FA000126B320E136F000E146F000E4009156F96
:100FB000B7EC00F0B00E0001EC6F090EED6F000E03
:100FC000EE6F9F51010BB8EF01F0200E636F540ECE
:100FD000646F490E656F4D0E666F450E676F520E5A
:100FE000686F200E696F6A6F6B6F6C6F6D6F6E6FDD
:100FF0006F6F706F716F726F736F746F756F766FE5
:10100000E6EC04F00001B66B000EDCEC04F0B00E70
:1010100001010E6F090E0F6F000E106F140E116F8D
:10102000126B630E136F146B156BB7EC00F00001BD
:10103000B66B010EDCEC04F0B00E0001EC6F090E93
:10104000ED6F000EEE6F5750B8EC01F03A0E086EDF
:10105000D8EC04F0B00E0001EC6F090EED6F000E3D
:10106000EE6F5650B8EC01F03A0E086ED8EC04F072
:10107000B00E0001EC6F090EED6F000EEE6F5550D3
:10108000B8EF01F0200E636F646F656F410E666FFD
:10109000630E676F740E686F690E696F760E6A6F04
:1010A000610E6B6F720E6C6F200E6D6F540E6E6F53
:1010B000690E6F6F6D0E706F650E716F720E726FCD
:1010C0003F0E736F200E746F756F766F200E776F03
:1010D000786F796F7A6F7B6F7C6F7D6F530E7E6F49
:1010E000490E7F6F200E806F816F826F836F846FD8
:1010F000856F4E0E866F4F0E876F200E886F896F3B
:101100008A6FE6EC04F00001B66B000EDCEC04F034
:10111000B00E01010E6F090E0F6F000E106F140E4E
:10112000116F126B630E136F146B156BB7EC00F03D
:101130000001B66B010EDCEC04F0B00E01010E6F85
:10114000090E0F6F000E106F140E116F126B770ED9
:10115000136F146B156BB7EF00F0E6EC04F00001B1
:10116000B66B000EDCEC04F0B00E01010E6F090E40
:101170000F6F000E106F070E116F126B180E136FAA
:10118000000E146F000E4009156FB7EC00F0020E50
:101190004D5CD8A4DFEF08F0B00E01010E6F090E10
:1011A0000F6F000E106F030E116F126B100E136F86
:1011B000000E146F000E4009156FB7EF00F0B00E6F
:1011C00001010E6F090E0F6F000E106F030E116FED
:1011D000126B140E136F000E146F000E4009156F82
:1011E000B7EF00F04F50D8A455EF09F000019FA3CE
:1011F000FEEF08F0EEEC05F000019F93DF9181B661
:10120000DF815C50DC6F5D50DD6F45EC02F000016A
:10121000AE6FDC515C6EDD515D6E020EAE5DD8A42A
:1012200015EF09F0010E4F6E9F83DF9181B8DF81CA
:101230005E50DC6F5F50DD6F45EC02F00001AE6F79
:10124000DC515E6EDD515F6E020EAE5DD8A42CEFF8
:1012500009F0020E4F6E9F83DF9181B4DF815A50F7
:10126000DC6F5B50DD6F45EC02F00001AE6FDC51CE
:101270005A6EDD515B6E020EAE5DD8A423EF0CF00A
:101280009FA146EF09F09F9147EF09F09F819F834F
:101290009FA14FEF09F032EC04F023EF0CF097EC34
:1012A00003F08B948C9A23EF0CF04F04D8A4E8EF52
:1012B00009F000019FA361EF09F0E5EC07F00001E0
:1012C0009F93DF9181B4DF815A50DC6F5B50DD6FFB
:1012D00045EC02F00001AE6FDC515A6EDD515B6EE1
:1012E000020EAE5DD8A47AEF09F0030E4F6E9F8315
:1012F00023EF0CF0DF9181B6DF815C50DC6F5D5035
:10130000DD6F45EC02F00001AE6FDC515C6EDD512B
:101310005D6EAE51D8A4B1EF09F0552A3C0E555C74
:10132000D8B496EF09F0D8A09AEF09F0556A562A7A
:1013300023EF0CF03B0E565CD8B4A2EF09F0D8A016
:10134000A6EF09F0566A572A23EF0CF0010E575CFE
:10135000D8B4AFEF09F0D8A0AFEF09F0576A23EF88
:101360000CF0DF9181B8DF815E50DC6F5F50DD6F84
:1013700045EC02F00001AE6FDC515E6EDD515F6E38
:10138000AE51D8A423EF0CF055063C0E555CD8B4F2
:10139000CDEF09F0D8A0D1EF09F0556A560623EF3A
:1013A0000CF03B0E565CD8B4D9EF09F0D8A0DDEFB5
:1013B00009F0566A570623EF0CF0010E575CD8B4BB
:1013C000E6EF09F0D8A0E6EF09F0576A23EF0CF03A
:1013D000020E4F5CD8A478EF0AF000019FA3F5EF4E
:1013E00009F0ADEC08F000019F93DF9181B4DF813B
:1013F0005A50DC6F5B50DD6F45EC02F00001AE6FC0
:10140000DC515A6EDD515B6E020EAE5DD8A40DEF5D
:101410000AF04F6A9F8345EF0AF0DF9181B6DF81C2
:101420005C50DC6F5D50DD6F45EC02F00001AE6F8B
:10143000DC515C6EDD515D6E020EAE5DD8A42AEF0C
:101440000AF0020E4D6E9FB132EC04F000019F8352
:1014500045EF0AF0DF9181B8DF815E50DC6F5F50AD
:10146000DD6F45EC02F00001AE6FDC515E6EDD51C8
:101470005F6E020EAE5DD8A445EF0AF0040E4D6E0D
:101480009FB132EC04F000019F83DF9181B4DF81D2
:101490005A50DC6F5B50DD6F45EC02F00001AE6F1F
:1014A000DC515A6EDD515B6E020EAE5DA29BD8B46C
:1014B000A28BDF9181B6DF815C50DC6F5D50DD6F08
:1014C00045EC02F00001AF6FDC515C6EDD515D6EEA
:1014D000AF51A28DD8A4A29DA28FA2BBA2ADA29F04
:1014E000A2AF23EF0CF0040E4F6E9F8323EF0CF09E
:1014F000030E4F5CD8A4B5EF0AF000019FA385EF5F
:101500000AF042EC08F000019F93DF9181B6DF8181
:101510005C50DC6F5D50DD6F45EC02F00001AE6F9A
:10152000DC515C6EDD515D6E020EAE5DD8A49CEFA9
:101530000AF09F854F6A9F83DF9181B8DF815E50FB
:10154000DC6F5F50DD6F45EC02F00001AE6FDC51E7
:101550005E6EDD515F6E020EAE5DD8A423EF0CF01F
:101560009F954F6A9F8323EF0CF0040E4F5CD8A425
:10157000F1EF0AF000019FA3C2EF0AF0A9EC06F018
:1015800000019F93DF9181B8DF815E50DC6F5F5077
:10159000DD6F45EC02F00001AE6FDC515E6EDD5197
:1015A0005F6E020EAE5DD8A4D8EF0AF04F6A9F833B
:1015B000DF9181B6DF815C50DC6F5D50DD6F45EC03
:1015C00002F00001AE6FDC515C6EDD515D6E020E0B
:1015D000AE5DD8A423EF0CF0050E4F6E9F8323EF72
:1015E0000CF0050E4F5CD8A423EF0CF000019FA374
:1015F000FEEF0AF018EC07F000019F936051D8A4A9
:1016000078EF0BF0DF9181B6DF815C50DC6F5D50CD
:10161000DD6F45EC02F00001AE6FDC515C6EDD5118
:101620005D6E020EAE5DD8A43CEF0BF09F83F40E0E
:101630004726010E4822000E4922000E4A22000EC3
:101640004A5CD8A430EF0BF0000E495CD8A430EF10
:101650000BF0C30E485CD8A430EF0BF0500E475C83
:10166000D8B436EF0BF0D8A03CEF0BF0500E476E1D
:10167000C30E486E496A4A6ADF9181B6DF815C50C9
:10168000DC6F5D50DD6F45EC02F00001AE6FDC51A8
:101690005C6EDD515D6E020EAE5DD8A4E2EF0BF024
:1016A0009F830C0E4726FE0E4822FF0E4922FF0E96
:1016B0004A22000E4A5CD8A46AEF0BF0000E495C87
:1016C000D8A46AEF0BF0270E485CD8A46AEF0BF0A1
:1016D000100E475CD8B470EF0BF0D8B0E2EF0BF00F
:1016E000100E476E270E486E496A4A6AE2EF0BF009
:1016F000020E605DD8A4B0EF0BF0DF9181B6DF8100
:101700005C50DC6F5D50DD6F45EC02F00001AE6FA8
:10171000DC515C6EDD515D6E020EAE5DD8A495EFBE
:101720000BF09F834B2AD8B44C2ADF9181B6DF811E
:101730005C50DC6F5D50DD6F45EC02F00001AE6F78
:10174000DC515C6EDD515D6E020EAE5DD8A4E2EF41
:101750000BF09F834B064B28D8B44C06E2EF0BF0FE
:10176000030E605DD8A4E2EF0BF0DF9181B6DF815C
:101770005C50DC6F5D50DD6F45EC02F00001AE6F38
:10178000DC515C6EDD515D6E020EAE5DD8B432ECA4
:1017900004F00001DF9181B6DF815C50DC6F5D50A9
:1017A000DD6F45EC02F00001AE6FDC515C6EDD5187
:1017B0005D6E020EAE5DD8A4E2EF0BF097EC03F085
:1017C0008B948C9A0001DF9181B4DF815A50DC6FD9
:1017D0005B50DD6F45EC02F00001AE6FDC515A6EDC
:1017E000DD515B6EAE51D8A402EF0CF0602B9F83ED
:1017F0009F87030E605DD8B401EF0CF0D8A002EF14
:101800000CF0606BDF9181B4DF815A50DC6F5B506C
:10181000DD6F45EC02F00001AE6FDC515A6EDD5118
:101820005B6E030EAE5DA59FD8B4A58FA6919FB742
:10183000A681A683A5BFA6A1A693A6A323EF0CF01D
:101840004F6A9F839F978EEC05F0F2EF08F0F2A4A9
:1018500032EF0CF09FA531EF0CF0330E5226030E41
:101860005322F294F2A239EF0CF0F29E8A8EF29299
:10187000F28EF0A040EF0CF0F29E8A9EF090F28E75
:101880001850086E1950096E1A500A6E1B500B6ED4
:101890001C500C6E1D500D6E1E500E6E1F500F6EA4
:1018A0002050106E2150116E2250126E2350136E74
:1018B0002450146E2550156E2650166E2750176E44
:1018C0003450F66E3550F76E3650F86E3750F56E70
:1018D0003250E96E3350EA6E31502E6E2D502C6E20
:0618E0002B502A6E1100DE
:020000040030CA
:0E000000240C391E008580000FC00FE00F4059
:00000001FF
