:020000040000FA
:040000009CEF00F081
:0800080067EF00F03530250020
:1000100032352500506F7765723A2000200E2A6E27
:100020000C6A0D6A0E6A0F6AD890143615361636A9
:100030001736D890083609360A360B360C360D3688
:100040000E360F360F50135CD8A433EF00F00E506D
:10005000125CD8A433EF00F00D50115CD8A433EF3C
:1000600000F00C50105CD8B439EF00F0D8B047EF76
:1000700000F0D8800C5010540C6E0D5011540D6EC1
:100080000E5012540E6E0F5013540F6E14802A2E01
:1000900014EF00F0120030BE61EF00F030BC57EFFB
:1000A00000F02F50EA6E2E50E96EEF5012002E50E5
:1000B000F66E2F50F76E30503F0BF86E0800F5507B
:1000C00012001200FB6E2F50FA6E2E50F96E0001D6
:1000D0002A502B6E2C502D6E2E50316EE950326E00
:1000E000EA50336EF650346EF750356EF850366E77
:1000F000F550376E0850186E0950196E0A501A6E76
:100100000B501B6E0C501C6E0D501D6E0E501E6E53
:100110000F501F6E1050206E1150216E1250226E23
:100120001350236E1450246E1550256E1650266EF3
:100130001750276E0CEF09F0D190C26A0F0EC16EF6
:10014000C06A070EB46E36EF02F0FA510101006F7B
:100150000001FB510101016F0051026F0151036F5A
:100160000001FF6BCDEF00F00001FC51FF252E6E6A
:10017000000E096EFD5109202F6EFE510920306ED0
:100180004BEC00F0086E0001F7512E6EF8512F6E07
:10019000F95162EC00F00001FF2BFF510101025DFB
:1001A000086E03510810D8A4B4EF00F01200D890E4
:1001B0004336443645364636D8904334F36F44349C
:1001C000F46F4534F56F4634F66FD890F337F43753
:1001D000F537F637F3514326F4514422F5514522C1
:1001E000F65146221200010E436E446A456A466A81
:1001F000EB6BEC6B4650EA5DD8A40BEF01F0455079
:10020000E95DD8A40BEF01F04450E85DD8A40BEFF2
:1002100001F04350E75DEE91D8A4D8B0EE81000E16
:10022000EC5DD8A416EF01F00A0EEB5DEE93D8B4A6
:100230001CEF01F0D8A0EE83EE85EEB1EEA3EE95B3
:10024000EEA52BEF01F0D7EC00F00001EB2BD8B4BA
:10025000EC2BFAEF00F0EB51EC11D8A433EF01F0E6
:10026000010EEB6FEC6BEB07EB29D8B4EC07010E3A
:10027000436E446A456A466AEB51EF6FEC51F06F8A
:10028000F16BF26B4AEF01F0D7EC00F00001F12BBB
:10029000D8B4F22BF151EF5D086EF251F05D081009
:1002A000D8A444EF01F0300EED6FEA51465CD8A4BB
:1002B00066EF01F0E951455CD8A466EF01F0E85122
:1002C000445CD8A466EF01F0E751435CD8B46CEF0E
:1002D00001F0D8B07CEF01F0D880E7514354E76FCC
:1002E000E8514454E86FE9514554E96FEA514654E6
:1002F000EA6FED2B55EF01F0ED51086EE4512E6ED3
:10030000E5512F6EE65162EC00F00001EB51EC116B
:10031000D8A433EF01F01200DF6FE06FE16BE26B06
:10032000E36BDC51E46FDD51E56FDE51E66FE051C8
:10033000E76FE151E86FE251E96FE351EA6FF3EFE4
:1003400000F03F6E3F50D8B412003F04D8A4B2EF83
:1003500001F000010A0E086E082EACEF01F000005B
:10036000000012003F060001070E086E082EB6EFCF
:1003700001F000003F50406E416AC6EF01F00001FD
:100380000E0E086E082EC2EF01F0412A4150405C6B
:10039000D8A4BFEF01F01200D651D86FD751D96F52
:1003A000DA6BDB6BE3EF01F00001090E086EB70EAC
:1003B000096E092ED9EF01F0082ED7EF01F00000E9
:1003C000DA2BD8B4DB2BDA51D85D086EDB51D95D5E
:1003D0000810D8A4D4EF01F01200D051D26FD1513F
:1003E000D36FD46BD56B08EF02F00001110E086ECD
:1003F000570E096E6F0E0A6E0A2EFCEF01F0092EE1
:10040000FAEF01F0082EF8EF01F0D42BD8B4D52B79
:10041000D451D25D086ED551D35D0810D8A4F5EF44
:1004200001F01200CC93D884CFA11CEF02F0CCA134
:100430001DEF02F01EEF02F0CCB1D894D8A426EF45
:1004400002F0030ECC11CD6F32EF02F0CD07CD518B
:10045000D8A432EF02F0CC91CFB1CC81030ECC11F5
:10046000CD6FCC83030ECC15CE6F12009494959A69
:100470008B948C9A93809382938893869384939E93
:100480000A0ED06FD16BEDEC01F0870E00019917C9
:100490009280870E99157009996F9931086E08320C
:1004A00008320F0E08160F0E0814096EF00EC11454
:1004B0000910C16E9A6B9A39086E300E0816CF0E6D
:1004C000C1140810C16EF80EC0140509C06EC70E25
:1004D000C016020E496E4A6A999199839995300E19
:1004E0009B6F030E9B119C6F9B51536E9C51546EDE
:1004F0005350556E5450566E300E9D6F030E9D1125
:100500009E6F9D51536E9E51546E5350576E545072
:10051000586E300E9F6F030E9F11A06F9F51536E48
:10052000A051546E5350596E54505A6E386A010E91
:10053000396E4FEF03F0D8903834C46F3934C56F3B
:10054000D890C437C537030EC425C66F000EC52129
:10055000C76FC651086EC751096E1200C36F386A63
:10056000010E396E3804CB6EC305D8A4BCEF02F07F
:10057000FC0ECA16CA841200040EC35DD8A4C7EFCD
:1005800002F0FC0ECA140109CA6ECA841200100ED1
:10059000C35DD8A4D2EF02F0FC0ECA140209CA6EE1
:1005A000CA841200CA941200BA51106EBB51116E67
:1005B000BC51126EBD51136E086A2D0E096E310EBC
:1005C0000A6E010E0B6E0EEC00F014500001BE6FAF
:1005D0001550BF6FD890BF31C16FBE31C06FD8907A
:1005E000C133C033CA6AC051C111C281D8B4C291EB
:1005F000100EC15DD8A4FFEF02F0000EC05DC293E3
:10060000D8A4D8A0C283C285C2B1C2A3C295C2A5D4
:100610004EEF03F0010EC15DD8A411EF03F0000E00
:10062000C05DD8B417EF03F0D8B01FEF03F0C0518E
:10063000386EC151396EFC0ECA164BEF03F0040E32
:10064000C15DD8A426EF03F0000EC05DD8B42CEF36
:1006500003F0D8B03AEF03F0D890C131396EC03111
:10066000386ED89039323832FC0ECA140109CA6E7D
:100670004BEF03F0D890C131396EC031386E030EA4
:10068000086ED89039323832082E41EF03F0FC0E54
:10069000CA140209CA6E3804CB6ECA8412005B6A9F
:1006A0005C6AE3EF03F0F00E5C140C095C6E5B50C7
:1006B000BE6E5C50BD6E1200F00E5C165C50BD6EDE
:1006C0001200030EB95DD8A468EF03F0FF0EB85D09
:1006D000D8B472EF03F0D8A072EF03F0FF0EB86F3A
:1006E000030EB96FD890B931096EB831086ED89041
:1006F0000932083208505B6E030EB815086E0838D0
:10070000096E300E0916CF0E5C1409105C6E53EFA3
:1007100003F0B651B86FB751B96F61EF03F0000144
:10072000AD6FAD51D8A499EF03F0AE6BAF6BD5EFC1
:1007300003F0640EAD5DD8B4A1EF03F0D8A0AAEF2A
:1007400003F03950AF6F3804AE6FAE29D8B4AF079D
:10075000D5EF03F0AD51B06FB16BD8903930B36FB6
:100760003830B26FD890B333B233B051B203F350D4
:10077000B46FF450B56FB051B303F350B527B15116
:10078000B203F350B527190E106E116A126A136A7C
:10079000B451086EB551096E0A6A0B6A0EEC00F08E
:1007A00014500001AE6F1550AF6FD890AE35B06FDA
:1007B000AF35B16FD890B037B137B051B86FB151D4
:1007C000B96F61EF03F0010EAEEC02F0A80E00016C
:1007D000BA6F610EBB6FBC6BBD6BD4EC02F0320E16
:1007E0008FEC03F05CEC03F02DEF04F09BEC02F0D7
:1007F00008500001AB6F0950AC6F4950106E116A80
:10080000126A136AAB51086EAC51096E0A6A0B6A20
:100810000EEC00F01450476E1550486E500E00015B
:10082000BA6FC30EBB6FBC6BBD6BD4EC02F047500C
:100830000001B66F4850B76F89EC03F053EC03F03A
:10084000F00EBD140C09BD6E3F0EBD148009BD6EC7
:10085000800EB7140F09B76E1200D59AD596F80E10
:10086000D5140209D56ED58CF294959C959E9590E1
:1008700095929594959679EF04F0426E42B044EFCC
:1008800004F08C9045EF04F08C8042B24BEF04F002
:100890008C924CEF04F08C8242B452EF04F08C94B2
:1008A00053EF04F08C8442B659EF04F08C965AEF63
:1008B00004F08C868C8E0000000000000000000018
:1008C0008C9E12003D6E3D380F0B3E6E3DEC04F0E9
:1008D0003D503DEC04F0040EA1EF01F03C6E8C8C19
:1008E0003C5062EF04F00001AA6F8C9CAA5162EFA9
:1008F00004F03A6ADEEF04F0A96F040EA95DD8B4E3
:1009000085EF04F0D8A086EF04F0A96BA951D8B404
:10091000000CA905D8B4400C020EA95DD8B4140C83
:10092000030EA95DD8B4540C1200800E3A10A86FC3
:1009300073EF04F008503B6E6EEF04F0A56F7CEC93
:1009400004F00001A76FA651A7253A6E95EF04F0B9
:10095000010E73EC04F0B40EA1EF01F08C9C190EA3
:100960000001D66FD76BCCEC01F0030E3DEC04F028
:10097000050E0001D66FD76BCCEC01F0030E3DECF9
:1009800004F00A0EA1EC01F0030E3DEC04F0040E9D
:10099000A1EC01F0020E3DEC04F0040EA1EC01F01C
:1009A000280E73EC04F01C0E73EC04F00C0E73ECC8
:1009B00004F0060E73EC04F0A8EF04F0AEEC04F0C3
:1009C0004D0E00015D6F690E5E6F200E5F6F430E6E
:1009D000606F6F0E616F630E626F690E636F6E0EF4
:1009E000646F610E656F200E666F640E676F650E33
:1009F000686F200E696F490E6A6F6E0E6B6F640E22
:100A00006C6F750E6D6F630E6E6F6F6F200E706F73
:100A1000200E856F540E866F690E876F650E886F86
:100A20006D0E896F700E8A6F6F0E8B6F3A0E8C6F22
:100A3000200E8D6F300E8E6F8F6F3A0E906F300ECE
:100A4000916F926F3A0E936F300E946F956F200EE8
:100A5000966F976F986FA8EC04F0340E0001F76F53
:100A6000090EF86F000EF96F140EFA6FFB6B5D0E36
:100A7000FC6FFD6BFE6BA5EC00F00A0E0001D06F61
:100A8000D16BEDEC01F0A8EC04F0F19CF19AF2923C
:100A9000F090F288F086F28E78EF07F012001200E4
:100AA000000199A5AFEF05F04F50525CA393D8B465
:100AB000A3834C50515CA395D8B4A385A387A3B35B
:100AC000A3A5A3974B50505CA399D8B4A389A38B3B
:100AD000A3B7A3A9A39BA3BB9991030E4E5CD8A473
:100AE00074EF05F0E80E4D5CD8B47AEF05F0D8A0AD
:100AF00090EF05F0E80E106E030E116E126A136A85
:100B00004D50086E4E50096E0A6A0B6A0EEC00F0EA
:100B100014500001A26F4B260C504D6E0D504E6EBE
:100B20003B0E4B5CD8B49BEF05F0D8A09BEF05F0D3
:100B30004B6A4C2A12003B0E4C5CD8B4A6EF05F071
:100B4000D8A0A6EF05F04C6A4F2A1200020E4F5CA7
:100B5000D8B4AFEF05F0D8A0AFEF05F04F6A1200A0
:100B600099A103EF06F0200E5D6F410E5E6F500EEF
:100B70005F6F410E606F470E616F410E626F520EE4
:100B8000636F200E646F656F540E666F490E676F5A
:100B90004D0E686F450E696F520E6A6F200E6B6FB7
:100BA0006C6F500E6D6F4F0E6E6F540E6F6F200E88
:100BB000706F8551716F8651726F8751736F885155
:100BC000746F8951756F8A51766F8B51776F8C5125
:100BD000786F8D51796F8E517A6F8F517B6F9051F5
:100BE0007C6F91517D6F92517E6F93517F6F9451C5
:100BF000806F9551816F9651826F9751836F985195
:100C0000846F44EF06F0200E5D6F410E5E6F430E61
:100C10005F6F540E606F490E616F560E626F410E2A
:100C2000636F520E646F200E656F666F676F500EB4
:100C3000686F4F0E696F540E6A6F450E6B6F4E0EE4
:100C40006C6F430E6D6F490E6E6F410E6F6F200E0D
:100C5000706F200E716F726F736F746F756F766F38
:100C6000776F540E786F490E796F4D0E7A6F450E7F
:100C70007B6F520E7C6F200E7D6F7E6F7F6F806F5B
:100C8000816F826F836F846FA8EC04F0340E0001D3
:100C9000F76F090EF86F000EF96F140EFA6FFB6B09
:100CA0005D0EFC6FFD6BFE6BA5EC00F00001A66B0A
:100CB000010E9EEC04F0340E0001F76F090EF86F80
:100CC000000EF96F140EFA6FFB6B710EFC6FFD6B6B
:100CD000FE6BA5EF00F0200E5D6F540E5E6F490EA7
:100CE0005F6F4D0E606F450E616F520E626F200E8A
:100CF000636F646F656F666F676F686F696F6A6F48
:100D00006B6F6C6F6D6F6E6F6F6F706FA8EC04F030
:100D10000001A66B000E9EEC04F0340E0001F76F8C
:100D2000090EF86F000EF96F140EFA6FFB6B5D0E73
:100D3000FC6FFD6BFE6BA5EC00F00001A66B010ED5
:100D40009EEC04F0340E0001DC6F090EDD6F000E26
:100D5000DE6F52508CEC01F03A0E086E9AEC04F003
:100D6000340E0001DC6F090EDD6F000EDE6F515096
:100D70008CEC01F03A0E086E9AEC04F0340E00018F
:100D8000DC6F090EDD6F000EDE6F50508CEF01F04E
:100D9000200E5D6F5E6F5F6F410E606F630E616F5F
:100DA000740E626F690E636F760E646F610E656F0D
:100DB000720E666F200E676F540E686F690E696F52
:100DC0006D0E6A6F650E6B6F720E6C6F3F0E6D6FFE
:100DD000200E6E6F6F6F706F200E716F726F736F7A
:100DE000746F756F766F776F530E786F490E796FEA
:100DF000200E7A6F7B6F7C6F7D6F7E6F7F6F4E0EE4
:100E0000806F4F0E816F200E826F836F846FA8EC0E
:100E100004F00001A66B000E9EEC04F0340E0001FD
:100E2000F76F090EF86F000EF96F140EFA6FFB6B77
:100E30005D0EFC6FFD6BFE6BA5EC00F00001A66B78
:100E4000010E9EEC04F0340E0001F76F090EF86FEE
:100E5000000EF96F140EFA6FFB6B710EFC6FFD6BD9
:100E6000FE6BA5EF00F0A8EC04F00001A66B000EED
:100E70009EEC04F0340E0001F76F090EF86F000EBF
:100E8000F96F070EFA6FFB6B140EFC6F000EFD6F0F
:100E9000000E4009FE6FA5EC00F0020E495CD8A4DC
:100EA00065EF07F0340E0001F76F090EF86F000EC2
:100EB000F96F030EFA6FFB6B0C0EFC6F000EFD6FEB
:100EC000000E4009FE6FA5EF00F0340E0001F76F31
:100ED000090EF86F000EF96F030EFA6FFB6B100E20
:100EE000FC6F000EFD6F000E4009FE6FA5EF00F0D5
:100EF0004A50D8A4DBEF07F0000199A384EF07F074
:100F0000B0EC05F000019993CF9181B6CF81575095
:100F1000CC6F5850CD6F12EC02F00001A16FCC5194
:100F2000576ECD51586E020EA15DD8A49BEF07F00D
:100F3000010E4A6E9983CF9181B8CF815950CC6F01
:100F40005A50CD6F12EC02F00001A16FCC51596ED6
:100F5000CD515A6E020EA15DD8A4B2EF07F0020E79
:100F60004A6E9983CF9181B4CF815550CC6F565042
:100F7000CD6F12EC02F00001A16FCC51556ECD5136
:100F8000566E020EA15DD8A408EF09F099A1CCEF2E
:100F900007F09991CDEF07F09981998399A1D5EF49
:100FA00007F0F6EC03F008EF09F05CEC03F08B942B
:100FB0008C9A08EF09F04A04D8A46EEF08F00001FB
:100FC00099A3E7EF07F06BEC06F000019993CF913E
:100FD00081B4CF815550CC6F5650CD6F12EC02F0DA
:100FE0000001A16FCC51556ECD51566E020EA15D20
:100FF000D8A400EF08F0030E4A6E998308EF09F0B9
:10100000CF9181B6CF815750CC6F5850CD6F12EC35
:1010100002F00001A16FCC51576ECD51586EA15115
:10102000D8A437EF08F0502A3C0E505CD8B41CEF1F
:1010300008F0D8A020EF08F0506A512A08EF09F014
:101040003B0E515CD8B428EF08F0D8A02CEF08F084
:10105000516A522A08EF09F0010E525CD8B435EFFC
:1010600008F0D8A035EF08F0526A08EF09F0CF91E8
:1010700081B8CF815950CC6F5A50CD6F12EC02F02D
:101080000001A16FCC51596ECD515A6EA151D8A417
:1010900008EF09F050063C0E505CD8B453EF08F04E
:1010A000D8A057EF08F0506A510608EF09F03B0E40
:1010B000515CD8B45FEF08F0D8A063EF08F0516A34
:1010C000520608EF09F0010E525CD8B46CEF08F03C
:1010D000D8A06CEF08F0526A08EF09F0020E4A5CE3
:1010E000D8A4CDEF08F0000199A37BEF08F033EC12
:1010F00007F000019993CF9181B4CF815550CC6F07
:101100005650CD6F12EC02F00001A16FCC51556E1C
:10111000CD51566E020EA15DD8A493EF08F04A6A35
:10112000998308EF09F0CF9181B6CF815750CC6FEA
:101130005850CD6F12EC02F00001A16FCC51576EE8
:10114000CD51586E020EA15DD8A4B0EF08F0020E8A
:10115000496E99B1F6EC03F00001998308EF09F0AC
:10116000CF9181B8CF815950CC6F5A50CD6F12ECCE
:1011700002F00001A16FCC51596ECD515A6E020E92
:10118000A15DD8A4CBEF08F0040E496E99B1F6EC3E
:1011900003F00001998308EF09F0030E4A5CD8A41C
:1011A00008EF09F0000199A3DAEF08F0C8EC06F0A7
:1011B00000019993CF9181B6CF815750CC6F585091
:1011C000CD6F12EC02F00001A16FCC51576ECD51E2
:1011D000586E020EA15DD8A4F1EF08F099854A6A15
:1011E0009983CF9181B8CF815950CC6F5A50CD6F30
:1011F00012EC02F00001A16FCC51596ECD515A6E24
:10120000020EA15DD8A408EF09F099954A6A998366
:1012100050EC05F078EF07F0F2A417EF09F099A56C
:1012200016EF09F0330E4D26030E4E22F294F2A271
:101230001EEF09F0F29E8A8EF292F28EF0A025EF58
:1012400009F0F29E8A9EF090F28E1850086E1950A6
:10125000096E1A500A6E1B500B6E1C500C6E1D50FE
:101260000D6E1E500E6E1F500F6E2050106E2150CE
:10127000116E2250126E2350136E2450146E25509E
:10128000156E2650166E2750176E3450F66E355078
:10129000F76E3650F86E3750F56E3250E96E3350B7
:1012A000EA6E31502E6E2D502C6E2B502A6E11008E
:020000040030CA
:0E000000240C391E008580000FC00FE00F4059
:00000001FF
